:04000000D7EF0AF03C
:0800080094EF00F0000000007D
:100010000000000000000000046ED8CF05F0E0CF23
:1000200006F00001E9CF0CF0EACF07F0E1CF08F0CD
:10003000E2CF09F0D9CF0AF0DACF0BF0F3CF12F00C
:10004000F4CF13F0FACF14F0F5CF15F0F6CF16F089
:10005000F7CF17F000C00EF001C00FF002C010F093
:1000600003C011F09DA038EF00F09EB0D1EF00F07A
:10007000A0A43EEF00F0A1B4A3EF01F00EC000F089
:100080000FC001F010C002F011C003F00CC0E9FF76
:1000900007C0EAFF078E08C0E1FF09C0E2FF0AC0FF
:1000A000D9FF0BC0DAFF12C0F3FF13C0F4FF14C076
:1000B000FAFF15C0F5FF16C0F6FF17C0F7FF045092
:1000C00006C0E0FF05C0D8FF1000F76ADA0FF66E31
:1000D000000EF7220900F5501200280C0106F76AFD
:1000E000EE0FF66E000EF7220900F5501200000028
:1000F0001515151515001F1F1F1F1F1F1F1F1F116F
:1001000011111111111F20002000200020200000DB
:100110003C43656E7465723E00000C00636F756E43
:10012000743A20254C7500009D9A9EAAFED7AECF4A
:1001300028F0036A2D50290FE96E000E0320EA6EA5
:1001400028C0EFFF2D2A2850210805E12D6A010E55
:100150002E6E95988C789E9A1100010E8B5F0BE3A2
:10016000EA6A8B0EE96EEF5006E0040E006E002E78
:10017000FED7EF2EFAD7C2EF00F0020E8A6FA50E5F
:100180008B6FEBD78A2FFBD7896B0A0ED8808855E7
:10019000895D06E2D50E006E002EFED7892BF5D7BD
:1001A0001200485266E121C088F0E7DF95948C8404
:1001B00093928A9293908A90949A8B8A21C088F025
:1001C000DCDF95948C9493928A9293908A90949A7F
:1001D0008B8A21C088F0D1DF95948C9493928A8287
:1001E00093908A90949A8B8A21C088F0C6DF959468
:1001F0008C9493928A8293908A90949A8B9A21C03D
:1002000088F0BBDF95948C9493928A8293908A8035
:10021000949A8B9A21C088F0B0DF95948C94939235
:100220008A9293908A80949A8B9A21C088F0A5DF55
:1002300095948C8493928A9293908A80949A8B9AC4
:1002400021C088F09ADF95948C8493928A9293903F
:100250008A90949A8B9A3A2AD8B43B2A36503B5CBF
:1002600008E303E13A50355C04E236C03BF035C0A8
:100270003AF0482C61D021C088F07FDF95948C84BF
:1002800093928A9293908A90949A8B9A21C088F044
:1002900074DF95948C8493928A9293908A80949A36
:1002A0008B9A21C088F069DF95948C9493928A92FE
:1002B00093908A80949A8B9A21C088F05EDF9594FF
:1002C0008C9493928A8293908A80949A8B9A21C07C
:1002D00088F053DF95948C9493928A8293908A90BD
:1002E000949A8B9A21C088F048DF95948C949392CD
:1002F0008A8293908A90949A8B8A21C088F03DDFFD
:1003000095948C9493928A9293908A90949A8B8AE3
:1003100021C088F032DF95948C8493928A929390D6
:100320008A90949A8B8A3A50D8B43B063A0639524E
:1003300003E0422AD8B4432ACF68CE0ECE6E9E90F8
:100340009E903EEF00F09D909D9AF250006EF29EBE
:10035000AA6A010EA96E20C0A8FFA69CA69EA6842C
:100360000F01550EA76EAA0EA76EA682A6B2FED7E3
:10037000A6940050F212F2CF00F0F29EAA6A020E8A
:10038000A96E22C0A8FFA69CA69EA684550EA76EA5
:10039000AA0EA76EA682A6B2FED7A6940050F212AD
:1003A000F2CF00F0F29EAA6A030EA96E34C0A8FF35
:1003B000A69CA69EA684550EA76EAA0EA76EA68220
:1003C000A6B2FED7A6940050F2123AC03CF03BC051
:1003D0003DF0F2CF00F0F29EAA6A040EA96E3CC076
:1003E000A8FFA69CA69EA684550EA76EAA0EA76E71
:1003F000A682A6B2FED7A6940050F212F2CF00F069
:10040000F29EAA6A050EA96E3DC0A8FFA69CA69EF4
:10041000A684550EA76EAA0EA76EA682A6B2FED718
:10042000A6940050F212F2CF00F0F29EAA6A060ED5
:10043000A96E40C0A8FFA69CA69EA684550EA76ED6
:10044000AA0EA76EA682A6B2FED7A6940050F212FC
:1004500035C037F036C038F0F2CF00F0F29EAA6A0D
:10046000070EA96E37C0A8FFA69CA69EA684550EAF
:10047000A76EAA0EA76EA682A6B2FED7A6940050BB
:10048000F212F2CF00F0F29EAA6A080EA96E38C0EE
:10049000A8FFA69CA69EA684550EA76EAA0EA76EC0
:1004A000A682A6B2FED7A6940050F212F2CF00F0B8
:1004B000F29EAA6A090EA96E3EC0A8FFA69CA69E3F
:1004C000A684550EA76EAA0EA76EA682A6B2FED768
:1004D000A6940050F212F2CF00F0F29EAA6A0A0E21
:1004E000A96E33C0A8FFA69CA69EA684550EA76E33
:1004F000AA0EA76EA682A6B2FED7A6940050F2124C
:10050000F2CF00F0F29EAA6A0B0EA96E32C0A8FFCD
:10051000A69CA69EA684550EA76EAA0EA76EA682BE
:10052000A6B2FED7A6940050F212939E8A8E939E96
:100530008A9E939E8A8E939E8A9E939E8A8E939E77
:100540008A9E939E8A8E939E8A9EA094A194000177
:100550003EEF00F0456570726F6D204661696C007A
:1005600043656E746565204D616368696E65000062
:1005700053706565643A2025202020003C4D616E53
:1005800075656C3E00003C204175746F203E000094
:10059000416363656C3A202520202000250020203F
:1005A0002020000025002500683130002500202093
:1005B00020200000250025006131300025002500A5
:1005C000250025003C204175746F203E0000EA6A3A
:1005D0007F0EE96EEF500EE0140E016E006A002EE1
:1005E000FED7012EFBD7BF0E006E002EFED700D027
:1005F000EF2EF2D7120086B102D0899801D08988F7
:10060000929886B302D0899A01D0898A929A86B547
:1006100002D08D9001D08D80969086B702D08D92B9
:1006200001D08D8296920000929689860A0E006E05
:10063000002EFED70000929689961200876B929644
:100640008986050E006E002EFED79288879180B8AD
:100650008781928A879380BA87839680879584B0B2
:1006600087859682879784B2878792968996050EAA
:10067000006E002EFED787C001F01200929489848C
:100680000000DCDF01C086F0D9DF01C085F08639CB
:10069000006EF00E001600508511016E53EF03F04E
:1006A00092928992EBD701C085F001BEFBD78353AC
:1006B00003E09292898202D09292899200009294F1
:1006C00089940000929689968439856F0F0E85175C
:1006D00085C086F090DF84510F0B856F866F8BDFAE
:1006E0001200010E1F6E92928992929489949296B2
:1006F0008996230E7F6F6BDF716B7151020808E3DF
:10070000030E866F78DF050E7F6F61DF712BF5D7E3
:10071000020E866F70DF716B7151030809E3036A83
:100720007151D3DC726F836B846FBADF712BF4D796
:1007300060EF0BF0836B400E846FB2DF716B715111
:1007400017080BE3036A7151CADC726F010E836FE5
:1007500072C084F0A5DF712BF2D7836B800E846F9B
:100760009FDF62EF0BF0D650D7CF03F0F2A40CD08E
:10077000010E1926D8B01A2AD8B41B2AD8B41C2ABC
:10078000F294D650D7CF03F0006E03C001F019C029
:1007900002F01AC003F01B50E83203320232013279
:1007A0000032E8320332023201320032E8320332E0
:1007B00002320132003212008051010A07E0030ABE
:1007C00007E0010A08E0070A09E00BD0816B0AD0B4
:1007D000400E816F07D0140E816F04D0540E816FCC
:1007E00001D0816B010E7F5D812781518009826F6D
:1007F000836B846F55DF12007E510C0A05E0060AF8
:100800000DE0020A12E016D0836B010E846F48DF00
:10081000010E1F6E020E7F6FDADE11D01F2A010E4D
:100820007F6F1FC080F0C8DF0AD0836B100E846F0B
:1008300037DF05D0010E836F7EC084F031DF1200F8
:100840000900F5520CE0F6CF78F0F7CF79F0F5CF4C
:100850007EF0D2DF78C0F6FF79C0F7FFF1D7120043
:10086000EACF7DF0E9CF7CF07639F009786F782710
:10087000E20F796F320F7B6F76510F0B7927792753
:100880007B27E90F7A6F7A277A2775390F0B7A273A
:100890007B277A377B377B1F7B3775510F0B7B2785
:1008A0007837070E776F0A0E7A077B27FDE3790703
:1008B0007A27FDE378077927FDE377077827FDE3BB
:1008C000EA6A770EE96E070E7C157C9DE926000E1C
:1008D000EA22E9507B0803E1EA5201E17C8DEF5006
:1008E000006E08E17CBD06D07CB913D07CB702D085
:1008F000200E03D07C877C99300E0026EACF76F05C
:10090000E9CF75F000C07EF077DF76C0EAFF75C0F2
:10091000E9FFEE507CADDDD712007F51016A7E5DAC
:1009200003E27EC000F00CD0006A080E806F7E37B4
:1009300000367F51005CD8B0006E0136802FF7D7AB
:100940001200200E73A9300E746F72C000F072AFE7
:1009500008D0001E002A00C072F02D0E746F738F35
:100960007381015072C07EF0640E7F6FD6DF00C0CD
:1009700072F0300E0124756F72C07EF00A0E7F6F28
:10098000CCDF300E0024776F300E0124766F74C0F8
:1009900000F0300E755D04E0738373BF738512D071
:1009A00074C075F0200E746F300E765D04E07381B4
:1009B00073BF738307D0D8A4738104E175C076F048
:1009C000200E756F73B505D073B306D073B107D021
:1009D00009D074C07EF010DF75C07EF00DDF76C0E8
:1009E0007EF00ADF77C07EF007DF1200015072C090
:1009F0007EF0640E7F6F91DF00C072F00150300E08
:100A000007E173A30CD073B70AD073B9200E03D0DB
:100A1000739773997381012601C07EF0EDDE72C079
:100A20007EF00A0E7F6F79DF00C072F00150300E49
:100A300006E173B708D073A106D073B9200E012662
:100A400001C07EF0D9DE300E722772C07EF0D4DE97
:100A5000120029506D080EE195988C782A503008C4
:100A600003E1256A010E266E2A50310803E1010ECA
:100A7000256E266A12008E0E006E73C001F072C0E1
:100A800002F0036A015209E102C001F0026A080E95
:100A9000005E015202E1006A08D0D89001BE04D085
:100AA000023601360006F9D7019E12002950680867
:100AB00037E195988C782A5030082DE12B50310879
:100AC00002E1010E206E2B50320802E1020E206E70
:100AD0002B50330802E1030E206E2B50340802E144
:100AE000040E206E2B50350802E1050E206E2B50AF
:100AF000360802E1060E206E2B50370802E1070E81
:100B0000206E2B50380802E1080E206E2B50390859
:100B100002E1090E206E2A50310802E10A0E206E11
:100B2000736B20C072F0A7DF12002950610837E113
:100B300095988C782A5030082DE12B50310802E12D
:100B4000010E226E2B50320802E1020E226E2B5053
:100B5000330802E1030E226E2B50340802E1040E2A
:100B6000226E2B50350802E1050E226E2B503608FE
:100B700002E1060E226E2B50370802E1070E226EAC
:100B80002B50380802E1080E226E2B50390802E182
:100B9000090E226E2A50310802E10A0E226E736B92
:100BA00022C072F068DF1200958E83AE1AD0010E5B
:100BB000316E36C03BF035C03AF0325211E1140EBE
:100BC0007F6F040E806FF8DD010E7E6F15DE0A0E5A
:100BD0007F6FFDDC780E9EA8FED7AD6E010E326EE3
:100BE0000CD0316A335209E0010E7F6F040E806F22
:100BF000E3DD020E7E6F00DE336A31C001F01200C9
:100C000095948C9493928A9293908A90949A8B9ACA
:100C10001200016A026A006A036A7B5102E17A519A
:100C200018E0100E7C6FD89078377937003603368D
:100C30007B51035C02E17A51005C07E37A51005E6C
:100C4000D8A003067B51035ED880013602367C2F84
:100C5000EAD71200200E79A9300E7A6F78C000F022
:100C600078AF08D0001E002A00C078F02D0E7A6FF1
:100C7000798F7981015078C07EF0640E7F6F4DDEF0
:100C800000C078F0300E01247B6F78C07EF00A0E31
:100C90007F6F43DE300E00247D6F300E01247C6FA9
:100CA0007AC000F0300E7B5D04E0798379BF7985EE
:100CB00012D07AC07BF0200E7A6F300E7C5D04E09B
:100CC000798179BF798307D0D8A4798104E17BC089
:100CD0007CF0200E7B6F79B505D079B307D079B160
:100CE00009D00CD07A519EA8FED7AD6E7B519EA83C
:100CF000FED7AD6E7C519EA8FED7AD6E7D519EA8ED
:100D0000FED7AD6E1200412A3B5207E140503A5CDB
:100D100004E2010E405C3A6E3B6A4150140813E154
:100D20003BC079F03AC078F07B6B0A0E7A6F71DFC6
:100D300001C077F0710E9EA8FED7AD6E77C078F037
:100D4000180E796F87DF4050415C02E0000E01D041
:100D5000010E786F3B5203E13A50405C02E2000E14
:100D600001D0010E78114AE0416A3BC079F03AC0E7
:100D700078F07B6B40C07AF04CDF01C03EF03E5013
:100D8000120802E2130E3E6E3E50010802E3020E0C
:100D90003E6E3F503E5C29E23E5012080DE1130EBC
:100DA0007F6F040E806F08DD080EF66E010EF76E81
:100DB00047DD3EC03FF022D03E2C0DD0020E7F6FAB
:100DC000040E806FF9DC0A0EF66E010EF76E38DD48
:100DD0003EC03FF013D03EC07FF0040E806FECDCCD
:100DE0000C0EF66E010EF76E2BDD3EC07FF0040E8A
:100DF000806FE2DC7E6B00DD3EC03FF01200486A8F
:100E00009D8081DF9D901200958C83AC21D0010ED6
:100E1000316E33521CE1010E7F6F040E806FCCDC0B
:100E2000010E7E6FE9DC0A0E7F6FE7EC02F0790EAF
:100E30009EA8FED7AD6E020E7F6F040E806FBCDCE5
:100E4000060EF66E010EF76EFBDC010E336E0CD053
:100E5000316A325209E0140E7F6F040E806FACDCF1
:100E6000020E7E6FC9DC326A31C001F01200010E41
:100E7000486E9D8048DF9D9012000900F6CF76F005
:100E8000F7CF77F0F5CF7EF0B7DC76C0F6FF77C00E
:100E9000F7FF752FF2D7FCEF07F00D0E7F6F010EF5
:100EA000806F8ADC100EF66E010EF76EC9DC436AA5
:100EB000426A010E7F6F040E806F7EDC020E7E6F31
:100EC0009BDC140E7F6F040E806F76DC020E7E6F4B
:100ED00093DC020E7F6F040E806F6EDC060E216EB7
:100EE0009D8A62DE015209E08BDEFA0E7F6FE7EC2D
:100EF00002F095988C782E6A15D09582000E83B2F8
:100F0000010E756F9486000E82B6010E751108E011
:100F100077DE010E7F6F040E806F4EDC346AD6D010
:100F20006EDFDED79D8A010E396E6EDF015209E059
:100F300067DEFA0E7F6FE7EC02F02E6A3B6A3A6AD0
:100F400015D09582000E83B2010E756F9486000E47
:100F500082B6010E751108E053DE010E7F6F040E9C
:100F6000806F2ADC346AB2D082DFDCD7D89043307D
:100F7000036E4230026E016E3B50035C22E303E1DC
:100F800001503A5C1EE29D8A396AB3EC03F003C05B
:100F900066F002C065F001C064F000C063F09582A5
:100FA000000E83B2010E756F9486000E82B6010E9C
:100FB0007513FADD7551011002E022DE87D01FDFC4
:100FC000D5D71EDE1A0EF66E010EF76E39DC010E55
:100FD0007F6F030E806FDCEC03F043C036F042C03D
:100FE00035F0030E3526000E36221C0EF66E010E6D
:100FF000F76E070E756F41D7100EE96E36C076F0AA
:1010000035C075F02DDCD89036303B6E35303A6EF9
:10101000010E346E396A36C079F035C078F07B6BDA
:10102000140E7A6FF6DD01C040F0010E405C416E97
:10103000740E9EA8FED7AD6E40C078F0180E796F82
:1010400009DE230E7F6FE7EC02F03BC079F03AC077
:1010500078F07B6B0A0E7A6FDCDD01C073F0710EE5
:101060009EA8FED7AD6E73C078F0180E796FF2DDD2
:101070003BC079F03AC078F07B6B40C07AF0C9DDB4
:1010800001C03EF0010E7F6F040E806FDCEC03F0B8
:10109000020E7E6FFCEC03F0140E7F6F040E806F67
:1010A000DCEC03F0020E7E6FFCEC03F0020E746FBA
:1010B00074510A080BE374C07FF0040E806FDCECFF
:1010C00003F07E6BFCEC03F0742BF2D71200010EE0
:1010D000726F95988C789D8A9D8A722D41D09D8AD9
:1010E0000A0ED8802254205C246E736B0A0ED880BE
:1010F0002254735D33E29D8A746B2350745D2AE23F
:101100009D8A9582000E83B2010E776F9486000E41
:1011100082B6010E77139484000E82B4010E771309
:101120002950670802E1000E01D0010E771102E09C
:1011300067DDAED039DD015208E0010E726F60DD6F
:10114000640E7F6FE7EC02F005D024C021F057DE7B
:10115000742BD3D7010E2426732BC8D7726BBDD73F
:1011600023DD01520BE04CDD95988C78640E7F6F87
:10117000E7EC02F0010E726F2E6A1DD09482000E11
:1011800082B2010E776F9582000E83B2010E771343
:101190009486000E82B6010E77132950670802E18B
:1011A000000E01D0010E771102E02ADD71D024C0BB
:1011B00021F025DE91D79D8A722D40D09D8A0A0E9E
:1011C000D8802254205C246E756B0A0ED88022547D
:1011D000755D32E29D8A766B2350765D29E29D8AA9
:1011E0009582000E83B2010E776F9486000E82B650
:1011F000010E77132950670802E1000E01D0010E9D
:10120000771102E0FDDC44D0FFDD01520CE0010E5D
:10121000726FF6DC020E776FFA0E7F6FE7EC02F06A
:10122000772FFAD705D024C021F021DE762BD4D732
:10123000010E2426752BC9D7726BBED7E5DD01528E
:1012400009E0DEDC640E7F6FE7EC02F0010E726FE6
:101250002E6A1DD09482000E82B2010E776F9582A5
:10126000000E83B2010E77139486000E82B6010E33
:1012700077132950670802E1000E01D0010E7711A3
:1012800002E0BEDC05D024C021F0F1DD94D723D7E5
:1012900012009D8A2E52D8B478D09D8A29EC05F090
:1012A00005DC43DC2950630803E1060E726FF5DDAF
:1012B0002950670801E10BDF2950640866E1780EC8
:1012C0009EA8FED7AD6E320E7F6FE7EC02F0680E7F
:1012D0009EA8FED7AD6E300E9EA8FED7AD6E20C084
:1012E00078F0180E796FB6DC320E7F6FE7EC02F003
:1012F000610E9EA8FED7AD6E300E9EA8FED7AD6ED5
:1013000022C078F0180E796FA5DC320E7F6FE7EC03
:1013100002F0265208E06D0E9EA8FED7AD6E300E8C
:101320009EA8FED7AD6E255208E06D0E9EA8FED792
:10133000AD6E310E9EA8FED7AD6E320E7F6FE7EC1C
:1013400002F0345209E0740E9EA8FED7AD6E40C084
:1013500078F0180E796F7EDC320E7F6FE7EC02F0CA
:101360003BC079F03AC078F07B6B0A0E7A6F51DCA3
:1013700001C071F0710E9EA8FED7AD6E71C078F0FD
:10138000180E796F67DC300E296E0CEF0EF0090035
:10139000F5520DE0F6CF71F0F7CF72F0F5509EA840
:1013A000FED7AD6E71C0F6FF72C0F7FFF0D7120026
:1013B000442C43D09D8A0A0ED8802254205C246E8F
:1013C000716B0A0ED8802254715D31E29D8A726B76
:1013D0002350725D28E29D8A9582000E83B2010E31
:1013E000736F9486000E82B6010E73130DDD0150EB
:1013F000731329506C0802E1000E01D0010E731323
:101400002A50310802E1000E01D0010E731106E0EE
:1014100000EC06F0466A46C001F00FD024C021F06F
:1014200026DD722BD5D7010E2426712BCAD7446A2C
:10143000010E466E016E01D0BBD7120095988C88C4
:10144000445230E09D8A0A0ED8802254205C246EDB
:10145000716B0A0ED8802254715D1EE29D8A726BF8
:101460002350725D15E29D8A9486000E82B6010EAD
:10147000736FCADC7351011006E000EC06F0466A97
:1014800046C001F011D024C021F0F1DC722BE8D766
:10149000010E2426712BDDD7446A010E466E016EC3
:1014A00003D0CED795988C98A0EF11F095988C88A2
:1014B000442C31D09D8A0A0ED8802254205C246EA0
:1014C000716B0A0ED8802254715D1FE29D8A726B87
:1014D0002350725D16E29D8A9582000E83B2010E42
:1014E000736FD4EC05F07351011006E000EC06F0C8
:1014F000466A46C001F011D024C021F080DC722B76
:10150000E7D7010E2426712BDCD7446A010E466E04
:10151000016E03D0CDD795988C98D3EF11F0442C61
:1015200044D09D8A0A0ED8802254205C246E716BB0
:101530000A0ED8802254715D32E29D8A726B23506C
:10154000725D29E29D8A9582000E83B2010E746F4E
:101550009486000E82B6010E7413D4EC05F001508F
:1015600074132950720802E1000E01D0010E7413A9
:101570002A50310802E1000E01D0010E741106E07C
:1015800000EC06F0466A46C001F00FD024C021F0FE
:1015900036DC722BD4D7010E2426712BC9D7446AAE
:1015A000010E466E016E01D0BAD7AAEF12F0F86AAA
:1015B0009F909F8AA294D08E078E700ED36E9B8CC4
:1015C0009B9E1C6A1B6A1A6A196AD59E870ED56E85
:1015D000D76AD66AF294B886820EAF6E060EB06EE7
:1015E000A60EAC6E900EAB6E050E206E216A060E36
:1015F000226E1E0E236E246A256A010E266E276E49
:101600002D6A2E6A2F6A306A316A326E336E346EFA
:1016100036683568396A3B6E5E0E3A6E3E6A3F6ADE
:10162000406A010E405C416E43684268010E446EA0
:10163000456A466E476A486A686B676B0F01386B8C
:10164000396B3A6B3B6B3C6B776A786A796A1D6AD7
:101650001E6A310E496E320E4A6E330E4B6E340ED8
:101660004C6E350E4D6E360E4E6E370E4F6E380E7A
:10167000506E390E516E010E526E020E536E030EF5
:10168000546E040E556E050E566E060E576E070EFE
:10169000586E080E596E090E5A6EF00EBD169E90C9
:1016A0001A0E9C6EA084C00EF2129D8A9D90370E79
:1016B000CD6ECC6ACF68CE0ECE6E000171EF03F016
:1016C0009AEF03F0B3EC03F003C066F002C065F0DC
:1016D00001C064F000C063F066C05EF065C05DF0FC
:1016E00064C05CF063C05BF05EC062F05DC061F03E
:1016F0005CC060F05BC05FF0F2CF71F0F29EAA6A4E
:10170000010EA96EA69CA69EA680A85071BFF28E5F
:10171000000A02E0000E01D0010E726FF2CF73F0EA
:10172000F29EAA6A010EA96EA69CA69EA680A8504B
:1017300073BFF28E0A0802E3000E01D0010E72118F
:10174000000AD8B4F0D0F250006EF29EAA6A010EE0
:10175000A96E050EA86EA69CA69EA6840F01550E26
:10176000A76EAA0EA76EA682A6B2FED7A6940050B8
:10177000F212F2CF00F0F29EAA6A020EA96E060ED5
:10178000A86EA69CA69EA684550EA76EAA0EA76E4E
:10179000A682A6B2FED7A6940050F212F2CF00F0B5
:1017A000F29EAA6A030EA96EA86AA69CA69EA684AB
:1017B000550EA76EAA0EA76EA682A6B2FED7A69455
:1017C0000050F212F2CF00F0F29EAA6A040EA96E47
:1017D000640EA86EA69CA69EA684550EA76EAA0EA1
:1017E000A76EA682A6B2FED7A6940050F212F2CF40
:1017F00000F0F29EAA6A050EA96E640EA86EA69C61
:10180000A69EA684550EA76EAA0EA76EA682A6B2A5
:10181000FED7A6940050F212F2CF00F0F29EAA6A10
:10182000060EA96EA86AA69CA69EA684550EA76E53
:10183000AA0EA76EA682A6B2FED7A6940050F212F8
:10184000F2CF00F0F29EAA6A070EA96EA86AA69CC3
:10185000A69EA684550EA76EAA0EA76EA682A6B255
:10186000FED7A6940050F212F2CF00F0F29EAA6AC0
:10187000080EA96EA86AA69CA69EA684550EA76E01
:10188000AA0EA76EA682A6B2FED7A6940050F212A8
:10189000F2CF00F0F29EAA6A090EA96EA86AA69C71
:1018A000A69EA684550EA76EAA0EA76EA682A6B205
:1018B000FED7A6940050F212F2CF00F0F29EAA6A70
:1018C0000A0EA96E010EA86EA69CA69EA684550EB1
:1018D000A76EAA0EA76EA682A6B2FED7A694005047
:1018E000F212F2CF00F0F29EAA6A0B0EA96E010E60
:1018F000A86EA69CA69EA684550EA76EAA0EA76EDD
:10190000A682A6B2FED7A6940050F212010E0001E4
:101910007F6F030E806FDCEC03F0540EF66E050E45
:10192000F76E20EC04F0F2CF71F0F29EAA6A010E7D
:10193000A96EA69CA69EA680A85071BFF28E206EAE
:10194000F2CF71F0F29EAA6A020EA96EA69CA69E24
:10195000A680A85071BFF28E226EF2CF71F0F29E77
:10196000AA6A030EA96EA69CA69EA680A85071BF67
:10197000F28E346EF2CF71F0F29EAA6A0A0EA96E50
:10198000A69CA69EA680A85071BFF28E336EF2CFA1
:1019900071F0F29EAA6A0B0EA96EA69CA69EA68066
:1019A000A85071BFF28E326E3452D8B4C6D0F2CF86
:1019B00071F0F29EAA6A040EA96EA69CA69EA6804D
:1019C000A85071BFF28E3C6EF2CF71F0F29EAA6AFF
:1019D000050EA96EA69CA69EA680A85071BFF28E89
:1019E0003D6E3DC03BF03CC03AF0010E7F6F030EF0
:1019F000806FDCEC03F0100EE96E3BC076F03AC06D
:101A000075F030EC04F0F2CF71F0F29EAA6A060E87
:101A1000A96EA69CA69EA680A85071BFF28E406EAD
:101A2000200E7E6FFCEC03F040C072F0180E736F56
:101A3000A1EC04F0F2CF71F0F29EAA6A070EA96E33
:101A4000A69CA69EA680A85071BFF28E376EF2CFDC
:101A500071F0F29EAA6A080EA96EA69CA69EA680A8
:101A6000A85071BFF28E386E38C036F037C035F0EE
:101A7000F2CF71F0F29EAA6A090EA96EA69CA69EEC
:101A8000A680A85071BFF28E3E6E010E7F6F040ECD
:101A9000806FDCEC03F0020E7E6FFCEC03F0140EA2
:101AA0007F6F040E806FDCEC03F0020E7E6FFCECA7
:101AB00003F03B5203E140503A5C10E3020E696FC1
:101AC00069513E5C0BE369C07FF0040E806FDCEC73
:101AD00003F07E6BFCEC03F0692BF2D7958E83AE9E
:101AE00014D0010E7F6F040E806FDCEC03F0020E49
:101AF0007E6FFCEC03F0140E7F6F040E806FDCEC45
:101B000003F0010E7E6FFCEC03F0958C83AC14D0D7
:101B1000010E7F6F040E806FDCEC03F0010E7E6F10
:101B2000FCEC03F0140E7F6F040E806FDCEC03F00E
:101B3000020E7E6FFCEC03F00BD0040E7F6F806F03
:101B4000DCEC03F0600EF66E050EF76E20EC04F090
:101B50009D8A010E7F6F806FDCEC03F0700EF66ED5
:101B6000050EF76E20EC04F0090E7F6F010E806FFA
:101B7000DCEC03F020500A0DF3CF72F01B0E736FF4
:101B8000F6EC04F00D0E7F6F010E806FDCEC03F0BD
:101B9000265206E07C0EF66E050EF76E20EC04F081
:101BA000255206E0860EF66E050EF76E20EC04F068
:101BB000010E7F6F020E806FDCEC03F0900EF66E6C
:101BC000050EF76E20EC04F0090E7F6F020E806F99
:101BD000DCEC03F022500A0DF3CF72F01B0E736F92
:101BE000F6EC04F0948282A2A7D2010E6A6F6B6BAE
:101BF000B3EC03F003C05EF002C05DF001C05CF026
:101C000000C05BF0020E716FFA0E7F6FE7EC02F01E
:101C1000712FFAD749EF09F09D8A6A2D05D1B3ECEF
:101C200003F003C066F002C065F001C064F000C0BC
:101C300063F05B50635D716F5C506459726F5D500F
:101C40006559736F5E506659746F74530CE173532A
:101C50000AE17251080805E2FF0A05E17151C40862
:101C600002E3000E01D0010E716F6B2D01D002D086
:101C7000000E01D0010E71151DE0080E7F6F6AC0C5
:101C800080F0DCEC03F09C0EF66E050EF76E20EC97
:101C900004F020500A0DF3CF72F0180E736FA1EC10
:101CA00004F06B6B66C05EF065C05DF064C05CF014
:101CB00063C05BF05B50635D716F5C506459726F21
:101CC0005D506559736F5E506659746F74530CE1C3
:101CD00073530AE17251080805E2FF0A05E17151E8
:101CE000C40802E3000E01D0010E716F6B5302E0D5
:101CF000000E01D0010E711516E0080E7F6F6AC04C
:101D000080F0DCEC03F09E0EF66E050EF76E20EC14
:101D100004F0010E6B6F66C05EF065C05DF064C0DC
:101D20005CF063C05BF0958283A238D0010E205E28
:101D3000205202E1010E206E080E7F6F6AC080F013
:101D4000DCEC03F0A40EF66E050EF76E20EC04F04A
:101D500020500A0DF3CF72F0180E736FA1EC04F04F
:101D6000200E7E6FFCEC03F0680E9EA8FED7AD6ED1
:101D7000300E9EA8FED7AD6E20C078F0180E796F99
:101D80002AEC06F0200E9EA8FED7AD6E020E716FF3
:101D9000FA0E7F6FE7EC02F0712FFAD7948682A6D5
:101DA00043D0010E20262050090802E20A0E206EC0
:101DB000080E7F6F6AC080F0DCEC03F0A60EF66EB2
:101DC000050EF76E20EC04F020500A0DF3CF72F0F0
:101DD000180E736FA1EC04F0200E7E6FFCEC03F084
:101DE0002050090813E3680E9EA8FED7AD6E300E92
:101DF0009EA8FED7AD6E20C078F0180E796F2AEC41
:101E000006F0200E9EA8FED7AD6E06D0A80EF66E88
:101E1000050EF76EC7EC09F0020E716FFA0E7F6FB8
:101E2000E7EC02F0712FFAD76A510208D8A405D165
:101E3000B3EC03F003C066F002C065F001C064F0CB
:101E400000C063F05B50635D716F5C506459726FEA
:101E50005D506559736F5E506659746F74530CE131
:101E600073530AE17251080805E2FF0A05E1715156
:101E7000C40802E3000E01D0010E716F6B2D01D07A
:101E800002D0000E01D0010E71151DE0080E7F6F0B
:101E90006AC080F0DCEC03F0AC0EF66E050EF76E57
:101EA00020EC04F022500A0DF3CF72F0180E736F7D
:101EB000A1EC04F06B6B66C05EF065C05DF064C0C1
:101EC0005CF063C05BF05B50635D716F5C506459A4
:101ED000726F5D506559736F5E506659746F7453BD
:101EE0000CE173530AE17251080805E2FF0A05E1AB
:101EF0007151C40802E3000E01D0010E716F6B53E3
:101F000002E0000E01D0010E711516E0080E7F6F81
:101F10006AC080F0DCEC03F0AE0EF66E050EF76ED4
:101F200020EC04F0010E6B6F66C05EF065C05DF0E2
:101F300064C05CF063C05BF0958283A238D0010E70
:101F4000225E225202E1010E226E080E7F6F6AC0ED
:101F500080F0DCEC03F0B40EF66E050EF76E20ECAC
:101F600004F022500A0DF3CF72F0180E736FA1EC3B
:101F700004F0200E7E6FFCEC03F0610E9EA8FED7ED
:101F8000AD6E300E9EA8FED7AD6E22C078F0180E52
:101F9000796F2AEC06F0200E9EA8FED7AD6E020ED9
:101FA000716FFA0E7F6FE7EC02F0712FFAD794860B
:101FB00082A643D0010E222622500A0802E20A0E0F
:101FC000226E080E7F6F6AC080F0DCEC03F0B60E64
:101FD000F66E050EF76E20EC04F022500A0DF3CFDA
:101FE00072F0180E736FA1EC04F0200E7E6FFCEC03
:101FF00003F02250090813E3610E9EA8FED7AD6ED0
:10200000300E9EA8FED7AD6E22C078F0180E796F04
:102010002AEC06F0200E9EA8FED7AD6E06D0B80EB4
:10202000F66E050EF76EC7EC09F0020E716FFA0E30
:102030007F6FE7EC02F0712FFAD7948482A435D039
:10204000080E7F6F010E806FDCEC03F0BC0EF66EA5
:10205000050EF76E20EC04F020500A0DF3CF72F05D
:10206000180E736FA1EC04F0080E7F6F020E806FE4
:10207000DCEC03F0BE0EF66E050EF76E20EC04F0FD
:1020800022500A0DF3CF72F0180E736FA1EC04F01A
:102090006A076A5302E1020E6A6F020E716FFA0E4E
:1020A0007F6FE7EC02F0712FFAD7958083A036D0CE
:1020B000080E7F6F010E806FDCEC03F0C00EF66E31
:1020C000050EF76E20EC04F020500A0DF3CF72F0ED
:1020D000180E736FA1EC04F0080E7F6F020E806F74
:1020E000DCEC03F0C20EF66E050EF76E20EC04F089
:1020F00022500A0DF3CF72F0180E736FA1EC04F0AA
:102100006A2B6A51020802E2010E6A6F020E716FB9
:10211000FA0E7F6FE7EC02F0712FFAD7948282A259
:1021200009D0020E716FFA0E7F6FE7EC02F0712F8B
:10213000FAD701D06FD52E6A2E52D8B480D029ECB0
:1021400005F056EC05F095EC05F02950630804E124
:10215000060E726F4DEC07F02950670802E167EC3C
:1021600008F0295064086BE1780E9EA8FED7AD6E8A
:10217000320E7F6FE7EC02F0680E9EA8FED7AD6EC0
:10218000300E9EA8FED7AD6E20C078F0180E796F85
:102190002AEC06F0320E7F6FE7EC02F0610E9EA88B
:1021A000FED7AD6E300E9EA8FED7AD6E22C078F081
:1021B000180E796F2AEC06F0320E7F6FE7EC02F012
:1021C000265208E06D0E9EA8FED7AD6E300E9EA87A
:1021D000FED7AD6E255208E06D0E9EA8FED7AD6EFF
:1021E000310E9EA8FED7AD6E320E7F6FE7EC02F087
:1021F00034520AE0740E9EA8FED7AD6E40C078F04F
:10220000180E796F2AEC06F0320E7F6FE7EC02F0C1
:102210003BC079F03AC078F07B6B0A0E7A6F09EC1C
:1022200006F001C06CF0710E9EA8FED7AD6E6CC0BA
:1022300078F0180E796F2AEC06F0300E296E958A28
:1022400083AA54D0020E716FFA0E7F6FE7EC02F092
:10225000712FFAD727523CE0276A010E256E266AB5
:102260000D0E7F6F010E806FDCEC03F0C40EF66E76
:10227000050EF76E20EC04F06D0E9EA8FED7AD6E35
:10228000310E9EA8FED7AD6E010E446ED8EC09F05B
:10229000465203E1010E466E1AD037EC07F09580E6
:1022A000000E83B0010E716F9486000E82B6010E8F
:1022B00071139484000E82B4010E711304EC07F0C4
:1022C0007151011003E000EC06F001D0DFD70DD012
:1022D000010E276E256A266E6D0E9EA8FED7AD6E86
:1022E000300E9EA8FED7AD6E01D0A9D7010E446E68
:1022F000456A9582000E83B2010E2614716F295033
:102300006C0802E0000E01D0010E726F2A503008F6
:1023100002E0000E01D0010E721571111DE09D8AC0
:1023200004EC07F001C071F09486000E82B6010E35
:10233000011004E000EC06F09D900ED01EEF0AF0B4
:10234000465203E1010E466E07D020C021F037EC63
:1023500007F0010E2F6ECDD79486000E82B6010EC7
:102360002614716F2950720802E0000E01D0010E90
:10237000726F2A50300802E0000E01D0010E721573
:1023800071111DE09D8AD4EC05F001C071F09582B9
:10239000000E83B2010E011004E000EC06F09D90E7
:1023A0000ED056EF0AF0465203E1010E466E07D0FA
:1023B00020C021F0FFEC06F0010E306ECDD7305278
:1023C00028E06D6B0A0ED88022546D5D1EE29D8A56
:1023D0006E6B23506E5D15E29D8A9582000E83B26E
:1023E000010E716FD4EC05F07151011004E000ECA6
:1023F00006F09D9006D024C021F0FFEC06F06E2B75
:10240000E8D7010E245E6D2BDDD7306A00EC06F0B4
:10241000D6D72F5228E06F6B0A0ED88022546F5DFA
:102420001EE29D8A706B2350705D15E29D8A948632
:10243000000E82B6010E716F04EC07F071510110AD
:1024400004E000EC06F09D9006D024C021F037ECAB
:1024500007F0702BE8D7010E245E6F2BDDD72F6AB3
:1024600000EC06F0D6D700EC06F09582000E83B2A1
:10247000010E2514716F29506C0802E0000E01D086
:10248000010E726F2A50310802E0000E01D0010ED9
:10249000721571113CE0FA0E7F6FE7EC02F0010E4D
:1024A000446E6C0E296E310E2A6E9D8AD8EC09F0AE
:1024B000465203E1010E466E2AD037EC07F09580B4
:1024C000000E83B0010E716F9486000E82B6010E6D
:1024D00071139484000E82B4010E711304EC07F0A2
:1024E0000150711329506C0802E1000E01D0010E59
:1024F00071132A50310802E1000E01D0010E711152
:1025000005E000EC06F0300E296E01D0CED794869F
:10251000000E82B6010E2514716F2950720802E078
:10252000000E01D0010E726F2A50310802E0000E39
:1025300001D0010E721571113CE0FA0E7F6FE7ECCD
:1025400002F0010E446E720E296E310E2A6E9D8AC3
:102550008FEF0AF0465203E1010E466E2AD0FFECDF
:1025600006F09580000E83B0010E716F9582000E0B
:1025700083B2010E71139484000E82B4010E7113A4
:10258000D4EC05F0015071132950720802E1000EDD
:1025900001D0010E71132A50310802E1000E01D062
:1025A000010E711105E000EC06F0300E296E01D02D
:1025B000CED7958083A00CD0020E716FFA0E7F6F7C
:1025C000E7EC02F0712FFAD7060E726F4DEC07F0B0
:1025D000948482A40CD0020E716FFA0E7F6FE7EC28
:1025E00002F0712FFAD7670E296E67EC08F0A8EF9A
:0425F0000DF00300E7
:020000040030CA
:0E00000000E81E3C00BF81000FC00FE00F4063
:00000001FF
;PIC18F46K22
;CRC=DC4E  CREATED="09-Eyl-22 18:09"
