:0400000002EF0AF011
:0800080099EF00F00000000078
:100010000000000000000000046ED8CF05F0E0CF23
:1000200006F00001E9CF0CF0EACF07F0E1CF08F0CD
:10003000E2CF09F0D9CF0AF0DACF0BF0F3CF12F00C
:10004000F4CF13F0FACF14F0F5CF15F0F6CF16F089
:10005000F7CF17F000C00EF001C00FF002C010F093
:1000600003C011F09DA038EF00F09EB0D4EF00F077
:10007000A0A43EEF00F0A1B4A6EF01F00EC000F086
:100080000FC001F010C002F011C003F00CC0E9FF76
:1000900007C0EAFF078E08C0E1FF09C0E2FF0AC0FF
:1000A000D9FF0BC0DAFF12C0F3FF13C0F4FF14C076
:1000B000FAFF15C0F5FF16C0F6FF17C0F7FF045092
:1000C00006C0E0FF05C0D8FF1000F76ADA0FF66E31
:1000D000000EF7220900F5501200280C0106F76AFD
:1000E000EE0FF66E000EF7220900F5501200000028
:1000F0001515151515001F1F1F1F1F1F1F1F1F116F
:1001000011111111111F20002000200020200000DB
:100110002020202020486F6D696E672E2E2E202013
:10012000202000000C00636F756E743A20254C751A
:1001300000009D9A9EAAFED7AECF28F0036A3150E8
:10014000290FE96E000E0320EA6E28C0EFFF312A66
:100150002850210803E1316A010E326E9E9A110087
:10016000010E8B5F0BE3EA6A8B0EE96EEF5006E03F
:10017000040E006E002EFED7EF2EFAD7C5EF00F06A
:10018000020E8A6FA50E8B6FEBD78A2FFBD7896B78
:100190000A0ED8808855895D06E2D50E006E002EC5
:1001A000FED7892BF5D71200495266E121C088F0AD
:1001B000E7DF95948C8493928A9293908A90949A94
:1001C0008B8A21C088F0DCDF95948C9493928A927C
:1001D00093908A90949A8B8A21C088F0D1DF95946D
:1001E0008C9493928A8293908A90949A8B8A21C05D
:1001F00088F0C6DF95948C9493928A8293908A902B
:10020000949A8B9A21C088F0BBDF95948C9493923A
:100210008A8293908A80949A8B9A21C088F0B0DF6A
:1002200095948C9493928A9293908A80949A8B9AC4
:1002300021C088F0A5DF95948C8493928A92939044
:100240008A80949A8B9A21C088F09ADF95948C8446
:1002500093928A9293908A90949A8B9A3E2AD8B4D9
:100260003F2A3A503F5C08E303E13E50395C04E228
:100270003AC03FF039C03EF0492C61D021C088F02F
:100280007FDF95948C8493928A9293908A90949A2B
:100290008B9A21C088F074DF95948C8493928A9213
:1002A00093908A80949A8B9A21C088F069DF959404
:1002B0008C9493928A9293908A80949A8B9A21C07C
:1002C00088F05EDF95948C9493928A8293908A80D2
:1002D000949A8B9A21C088F053DF95948C949392D2
:1002E0008A8293908A90949A8B9A21C088F048DFF2
:1002F00095948C9493928A8293908A90949A8B8A04
:1003000021C088F03DDF95948C9493928A929390CB
:100310008A90949A8B8A21C088F032DF95948C84DD
:1003200093928A9293908A90949A8B8A3E50D8B4F2
:100330003F063E063D5203E0392AD8B43A2ACF6838
:10034000CE0ECE6E9E909E903EEF00F09D909D9AB8
:10035000F250006EF29EAA6A010EA96E20C0A8FF9C
:10036000A69CA69EA6840F01550EA76EAA0EA76E88
:10037000A682A6B2FED7A6940050F212F2CF00F0E9
:10038000F29EAA6A020EA96E22C0A8FFA69CA69E93
:10039000A684550EA76EAA0EA76EA682A6B2FED799
:1003A000A6940050F212F2CF00F0F29EAA6A030E59
:1003B000A96E38C0A8FFA69CA69EA684550EA76E5F
:1003C000AA0EA76EA682A6B2FED7A6940050F2127D
:1003D0003EC040F03FC041F0F2CF00F0F29EAA6A6A
:1003E000040EA96E40C0A8FFA69CA69EA684550E2A
:1003F000A76EAA0EA76EA682A6B2FED7A69400503C
:10040000F212F2CF00F0F29EAA6A050EA96E41C068
:10041000A8FFA69CA69EA684550EA76EAA0EA76E40
:10042000A682A6B2FED7A6940050F212F2CF00F038
:10043000F29EAA6A060EA96E44C0A8FFA69CA69EBC
:10044000A684550EA76EAA0EA76EA682A6B2FED7E8
:10045000A6940050F21239C03BF03AC03CF0F2CF03
:1004600000F0F29EAA6A070EA96E3BC0A8FFA69CE8
:10047000A69EA684550EA76EAA0EA76EA682A6B249
:10048000FED7A6940050F212F2CF00F0F29EAA6AB4
:10049000080EA96E3CC0A8FFA69CA69EA684550E79
:1004A000A76EAA0EA76EA682A6B2FED7A69400508B
:1004B000F212F2CF00F0F29EAA6A090EA96E42C0B3
:1004C000A8FFA69CA69EA684550EA76EAA0EA76E90
:1004D000A682A6B2FED7A6940050F212F2CF00F088
:1004E000F29EAA6A0A0EA96E37C0A8FFA69CA69E15
:1004F000A684550EA76EAA0EA76EA682A6B2FED738
:10050000A6940050F212F2CF00F0F29EAA6A0B0EEF
:10051000A96E36C0A8FFA69CA69EA684550EA76EFF
:10052000AA0EA76EA682A6B2FED7A6940050F2121B
:10053000939E8A8E939E8A9E939E8A8E939E8A9E77
:10054000939E8A8E939E8A9E939E8A8E939E8A9E67
:10055000A094A19400013EEF00F0456570726F6DAC
:10056000204661696C0043656E746565204D61636A
:1005700068696E65000053706565643A2025202027
:1005800020003C4D616E75656C3E00003C2041755D
:10059000746F203E0000416363656C3A2025202083
:1005A000200043656E746572204D616368696E65F5
:1005B00000002500202020200000250025006831B3
:1005C000300025002020202000002500250061317A
:1005D000300025002500250025003C204175746F62
:1005E000203E0000EA6A7F0EE96EEF500EE0140E26
:1005F000016E006A002EFED7012EFBD7BF0E006EE3
:10060000002EFED700D0EF2EF2D7120086B102D016
:10061000899801D08988929886B302D0899A01D0AE
:10062000898A929A86B502D08D9001D08D8096905D
:1006300086B702D08D9201D08D829692000092965C
:1006400089860A0E006E002EFED7000092968996CB
:100650001200876B92968986050E006E002EFED7DB
:100660009288879180B88781928A879380BA87839E
:100670009680879584B087859682879784B287878E
:1006800092968996050E006E002EFED787C001F067
:100690001200929489840000DCDF01C086F0D9DF6B
:1006A00001C085F08639006EF00E001600508511ED
:1006B000016E5EEF03F092928992EBD701C085F054
:1006C00001BEFBD7835303E09292898202D09292BB
:1006D00089920000929489940000929689968439B8
:1006E000856F0F0E851785C086F090DF84510F0B44
:1006F000856F866F8BDF1200010E1F6E92928992BA
:100700009294899492968996230E7F6F6BDF726B19
:100710007251020808E3030E866F78DF050E7F6FC3
:1007200061DF722BF5D7020E866F70DF726B72512C
:10073000030809E3036A7251C8DC736F836B846F2B
:10074000BADF722BF4D788EF0AF0836B400E846F08
:10075000B2DF726B725117080BE3036A7251BFDC90
:10076000736F010E836F73C084F0A5DF722BF2D715
:10077000836B800E846F9FDF8AEF0AF0D650D7CF4D
:1007800003F0F2A40CD0010E1926D8B01A2AD8B45E
:100790001B2AD8B41C2AF294D650D7CF03F0006E8F
:1007A00003C001F019C002F01AC003F01B50E83278
:1007B0000332023201320032E832033202320132B5
:1007C0000032E8320332023201320032120080512C
:1007D000010A07E0030A07E0010A08E0070A09E046
:1007E0000BD0816B0AD0400E816F07D0140E816F41
:1007F00004D0540E816F01D0816B010E7F5D812783
:1008000081518009826F836B846F55DF12007E51A6
:100810000C0A05E0060A0DE0020A12E016D0836B0E
:10082000010E846F48DF010E1F6E020E7F6FDADE4D
:1008300011D01F2A010E7F6F1FC080F0C8DF0AD0C1
:10084000836B100E846F37DF05D0010E836F7EC07F
:1008500084F031DF12000900F5520CE0F6CF78F099
:10086000F7CF79F0F5CF7EF0D2DF78C0F6FF79C010
:10087000F7FFF1D71200EACF7DF0E9CF7CF07639AF
:10088000F009786F7827E20F796F320F7B6F76511E
:100890000F0B792779277B27E90F7A6F7A277A2739
:1008A00075390F0B7A277B277A377B377B1F7B378E
:1008B00075510F0B7B277837070E776F0A0E7A0773
:1008C0007B27FDE379077A27FDE378077927FDE3A6
:1008D00077077827FDE3EA6A770EE96E070E7C1545
:1008E0007C9DE926000EEA22E9507B0803E1EA52EA
:1008F00001E17C8DEF50006E08E17CBD06D07CB933
:1009000013D07CB702D0200E03D07C877C99300EA8
:100910000026EACF76F0E9CF75F000C07EF077DFF1
:1009200076C0EAFF75C0E9FFEE507CADDDD712005E
:100930007F51016A7E5D03E27EC000F00CD0006A48
:10094000080E806F7E3700367F51005CD8B0006E95
:100950000136802FF7D71200200E74A9300E756F64
:1009600073C000F073AF08D0001E002A00C073F0FF
:100970002D0E756F748F7481015073C07EF0640EFC
:100980007F6FD6DF00C073F0300E0124766F73C026
:100990007EF00A0E7F6FCCDF300E0024786F300EB1
:1009A0000124776F75C000F0300E765D04E074832B
:1009B00074BF748512D075C076F0200E756F300E3E
:1009C000775D04E0748174BF748307D0D8A4748108
:1009D00004E176C077F0200E766F74B505D074B35D
:1009E00006D074B107D009D075C07EF010DF76C094
:1009F0007EF00DDF77C07EF00ADF78C07EF007DF83
:100A00001200015073C07EF0640E7F6F91DF00C052
:100A100073F00150300E07E174A30CD074B70AD004
:100A200074B9200E03D0749774997481012601C0A3
:100A30007EF0EDDE73C07EF00A0E7F6F79DF00C0BE
:100A400073F00150300E06E174B708D074A106D0DF
:100A500074B9200E012601C07EF0D9DE300E732756
:100A600073C07EF0D4DE1200200E79A9300E7A6FAA
:100A700078C000F078AF08D0001E002A00C078F0DF
:100A80002D0E7A6F798F7981015078C07EF0640ED7
:100A90007F6F4EDF00C078F0300E01247B6F78C08E
:100AA0007EF00A0E7F6F44DF300E00247D6F300E23
:100AB00001247C6F7AC000F0300E7B5D04E0798306
:100AC00079BF798512D07AC07BF0200E7A6F300E14
:100AD0007C5D04E0798179BF798307D0D8A47981DE
:100AE00004E17BC07CF0200E7B6F79B505D079B333
:100AF00007D079B109D00CD07A519EA8FED7AD6E3F
:100B00007B519EA8FED7AD6E7C519EA8FED7AD6EE0
:100B10007D519EA8FED7AD6E12000900F5520DE082
:100B2000F6CF72F0F7CF73F0F5509EA8FED7AD6EFA
:100B300072C0F6FF73C0F7FFF0D7120029506D089E
:100B40000EE195988C782A50300803E1256A010E51
:100B5000266E2A50310803E1010E256E266AD1EF78
:100B60000FF08E0E006E73C001F072C002F0036AC7
:100B7000015209E102C001F0026A080E005E015252
:100B800002E1006A08D0D89001BE04D002360136D6
:100B90000006F9D7019E12002950680837E19598A0
:100BA0008C782A5030082DE12B50310802E1010EDB
:100BB000206E2B50320802E1020E206E2B503308BB
:100BC00002E1030E206E2B50340802E1040E206E69
:100BD0002B50350802E1050E206E2B50360802E13D
:100BE000060E206E2B50370802E1070E206E2B50A8
:100BF000380802E1080E206E2B50390802E1090E78
:100C0000206E2A50310802E10A0E206E736B20C05C
:100C100072F0A7DFD3EF0FF02950610837E1959804
:100C20008C782A5030082DE12B50310802E1010E5A
:100C3000226E2B50320802E1020E226E2B50330836
:100C400002E1030E226E2B50340802E1040E226EE4
:100C50002B50350802E1050E226E2B50360802E1BA
:100C6000060E226E2B50370802E1070E226E2B5023
:100C7000380802E1080E226E2B50390802E1090EF5
:100C8000226E2A50310802E10A0E226E736B22C0D6
:100C900072F067DFD5EF0FF0958E83AE15D0010EA1
:100CA000356E3AC03FF039C03EF0140E7F6F040E2F
:100CB000806F8DDD010E7E6FAADD780E9EA8FED7B7
:100CC000AD6E010E366E0CD0356A375209E0010E5A
:100CD0007F6F040E806F7BDD020E7E6F98DD376ABA
:100CE00035C001F0120095948C9493928A9293905F
:100CF0008A90949A8B9A1200016A026A006A036AC7
:100D00007B5102E17A5118E0100E7C6FD890783751
:100D10007937003603367B51035C02E17A51005C7F
:100D200007E37A51005ED8A003067B51035ED880AA
:100D3000013602367C2FEAD71200452A3F5207E1DE
:100D400044503E5C04E2010E445C3E6E3F6A4550F6
:100D5000140813E13FC079F03EC078F07B6B0A0EB7
:100D60007A6FCADF01C077F0710E9EA8FED7AD6E14
:100D700077C078F0180E796F77DE4450455C02E05A
:100D8000000E01D0010E3814786F3F5203E13E503F
:100D9000445C02E2000E01D0010E78114AE0456A7F
:100DA0003FC079F03EC078F07B6B44C07AF0A4DF9E
:100DB00001C042F04250120802E2130E426E42504D
:100DC000010802E3020E426E4350425C29E24250A7
:100DD00012080DE1130E7F6F040E806FF8DC080E11
:100DE000F66E010EF76E37DD42C043F022D0422C82
:100DF0000DD0020E7F6F040E806FE9DC0A0EF66ED6
:100E0000010EF76E28DD42C043F013D042C07FF0E0
:100E1000040E806FDCDC0C0EF66E010EF76E1BDD2F
:100E200042C07FF0040E806FD2DC7E6BF0DC42C0EB
:100E300043F01200496A9D8080DF9D901200958CDE
:100E400083AC1DD0010E356E375218E1010E7F6F55
:100E5000040E806FBCDC010E7E6FD9DC790E9EA87B
:100E6000FED7AD6E020E7F6F040E806FB0DC060EF3
:100E7000F66E010EF76EEFDC010E376E0CD0356AA0
:100E8000365209E0140E7F6F040E806FA0DC020E54
:100E90007E6FBDDC366A35C001F01200010E496E6E
:100EA0009D804BDF9D9012000900F6CF76F0F7CFC2
:100EB00077F0F5CF7EF0ABDC76C0F6FF77C0F7FFBA
:100EC000752FF2D700EF08F0010E7F6F040E806FD0
:100ED0007EDC020E7E6F9BDC140E7F6F040E806F33
:100EE00076DC020E7E6F93DC020E7F6F040E806F45
:100EF0006EDC100EF66E010EF76EADDC060E216E86
:100F0000386A3A6A396AC8DE015205E0ECDE959823
:100F10008C78326A15D09582000E83B2010E756FFF
:100F20009486000E82B6010E751108E0DCDE010E1B
:100F30007F6F040E806F4BDC386ABFD07BDFE3D756
:100F4000010E3D6E7CDF015205E0CDDE326A3F6A64
:100F50003E6A15D09582000E83B2010E756F94869D
:100F6000000E82B6010E751108E0BDDE010E7F6F26
:100F7000040E806F2CDC386AA0D090DFE1D7D890C7
:100F80003A30036E3930026E016E3F50035C21E34C
:100F900003E101503E5C1DE23D6ABEEC03F003C07C
:100FA00067F002C066F001C065F000C064F0958291
:100FB000000E83B2010E756F9486000E82B6010E8C
:100FC00075136ADE7551011002E08DDE76D032DFD6
:100FD000D6D789DE240EF66E010EF76E3CDC010ECC
:100FE0007F6F030E806FE7EC03F0030E3926000ECF
:100FF0003A22260EF66E010EF76E070E756F54D765
:10100000100EE96E3AC076F039C075F034DCD89035
:101010003A303F6E39303E6E010E386E3D6A3AC04E
:1010200079F039C078F07B6B140E7A6F65DE01C001
:1010300044F0010E445C456E3FC079F03EC078F04C
:101040007B6B0A0E7A6F58DE01C073F0710E9EA89A
:10105000FED7AD6E73C078F0180E796F05DD3FC016
:1010600079F03EC078F07B6B44C07AF045DE01C079
:1010700042F0010E7F6F040E806FE7EC03F0020E6A
:101080007E6F07EC04F0140E7F6F040E806FE7ECA8
:1010900003F0020E7E6F07EC04F0020E746F7451C1
:1010A0000A080BE374C07FF0040E806FE7EC03F0D6
:1010B0007E6B07EC04F0742BF2D71200010E726FF6
:1010C00095988C78722D3BD00A0ED8802254205CE3
:1010D000246E736B0A0ED8802254735D2EE2746BFB
:1010E0002350745D26E29582000E83B2010E776F65
:1010F0009486000E82B6010E77139484000E82B49B
:10110000010E771102E0EFDDA1D0C6DD01520CE047
:10111000010E726FE8DD020E776FFA0E7F6FF2EC50
:1011200002F0772FFAD705D024C021F083DE742B8C
:10113000D7D7010E2426732BCDD7726BC3D7ACDD66
:1011400001520FE0D0DD95988C78020E776FFA0E81
:101150007F6FF2EC02F0772FFAD7010E726F326ACE
:1011600016D09482000E82B2010E786F9582000E26
:1011700083B2010E78139486000E82B6010E7811A8
:1011800002E0B1DD63D024C021F054DE9BD7722D84
:1011900036D00A0ED8802254205C246E756B0A0E5D
:1011A000D8802254755D29E2766B2350765D21E26A
:1011B0009582000E83B2010E776F9486000E82B680
:1011C000010E771102E08FDD41D039DE01520CE0D3
:1011D000010E726F88DD020E776FFA0E7F6FF2ECF0
:1011E00002F0772FFAD705D024C021F057DE762BF6
:1011F000DCD7010E2426752BD2D7726BC8D71FDE21
:1012000001520DE070DD020E776FFA0E7F6FF2EC87
:1012100002F0772FFAD7010E726F326A16D09482DD
:10122000000E82B2010E786F9582000E83B2010E1D
:1012300078139486000E82B6010E781102E053DD19
:1012400005D024C021F02ADEA2D73CD71200462CBC
:1012500031D00A0ED8802254205C246E726B0A0EA4
:10126000D8802254725D20E2736B2350735D18E2C4
:101270009582000E83B2010E746F9486000E82B6C2
:10128000010E7413DCDD7451011005E02CDD486A99
:1012900048C001F00FD024C021F000DE732BE5D749
:1012A000010E2426722BDBD7466A010E486E016EB2
:1012B00001D0CDD7120095988C88465231E00A0EA5
:1012C000D8802254205C246E726B0A0ED88022547F
:1012D000725D20E2736B2350735D18E29582000EFD
:1012E00083A2010E746F9486000E82B6010E7413F1
:1012F000A6DD7451011005E0F6DC486A48C001F033
:1013000011D024C021F0CADD732BE5D7010E2426AD
:10131000722BDBD7466A010E486E016E03D0CDD723
:1013200095988C98BFEF10F095988C88462C31D00A
:101330000A0ED8802254205C246E726B0A0ED8806C
:101340002254725D20E2736B2350735D18E2948621
:10135000000E82A6010E746F9582000E83B2010EFC
:1013600074139ADC7451011005E0BDDC486A48C072
:1013700001F011D024C021F05DDD732BE5D7010E03
:101380002426722BDBD7466A010E486E016E03D00D
:10139000CDD795988C98E2EF10F0462C31D00A0EFC
:1013A000D8802254205C246E726B0A0ED88022549E
:1013B000725D20E2736B2350735D18E29582000E1C
:1013C00083B2010E756F9486000E82B6010E7513FE
:1013D00063DC7551011005E086DC486A48C001F005
:1013E0000FD024C021F026DD732BE5D7010E242673
:1013F000722BDBD7466A010E486E016E01D0CDD745
:101400008CEF11F0F86A9F909F8AA294D08E078E7D
:10141000700ED36E9B8C9B9E1C6A1B6A1A6A196A9B
:10142000D59E870ED56ED76AD66AF294B886820E9C
:10143000AF6E060EB06EA60EAC6E900EAB6E050EC5
:10144000206E216A060E226E1E0E236E246A256A05
:10145000010E266E276E316A326A336A346A356A43
:10146000366E376E386A3A6839683D6A3F6E5E0E8E
:101470003E6E426A436A446A010E445C456E010E48
:10148000466E476A486E496A696B686B0F01386B34
:10149000396B3A6B3B6B3C6B776A786A796A1D6A89
:1014A0001E6A310E4A6E320E4B6E330E4C6E340E87
:1014B0004D6E350E4E6E360E4F6E370E506E380E28
:1014C000516E390E526E010E536E020E546E030EA3
:1014D000556E040E566E050E576E060E586E070EAC
:1014E000596E080E5A6E090E5B6EF00EBD169E9078
:1014F0001A0E9C6EA084C00EF2129D8A9D90370E2B
:10150000CD6ECC6ACF68CE0ECE6E00017CEF03F0BC
:10151000A5EF03F0BEEC03F003C067F002C066F075
:1015200001C065F000C064F067C05FF066C05EF0A7
:1015300065C05DF064C05CF05FC063F05EC062F0E7
:101540005DC061F05CC060F0F2CF72F0F29EAA6AFA
:10155000010EA96EA69CA69EA680A85072BFF28E10
:10156000000A02E0000E01D0010E736FF2CF74F09A
:10157000F29EAA6A010EA96EA69CA69EA680A850FD
:1015800074BFF28E0A0802E3000E01D0010E73113F
:10159000000AD8B4F0D0F250006EF29EAA6A010E92
:1015A000A96E050EA86EA69CA69EA6840F01550ED8
:1015B000A76EAA0EA76EA682A6B2FED7A69400506A
:1015C000F212F2CF00F0F29EAA6A020EA96E060E87
:1015D000A86EA69CA69EA684550EA76EAA0EA76E00
:1015E000A682A6B2FED7A6940050F212F2CF00F067
:1015F000F29EAA6A030EA96EA86AA69CA69EA6845D
:10160000550EA76EAA0EA76EA682A6B2FED7A69406
:101610000050F212F2CF00F0F29EAA6A040EA96EF8
:10162000640EA86EA69CA69EA684550EA76EAA0E52
:10163000A76EA682A6B2FED7A6940050F212F2CFF1
:1016400000F0F29EAA6A050EA96E640EA86EA69C12
:10165000A69EA684550EA76EAA0EA76EA682A6B257
:10166000FED7A6940050F212F2CF00F0F29EAA6AC2
:10167000060EA96EA86AA69CA69EA684550EA76E05
:10168000AA0EA76EA682A6B2FED7A6940050F212AA
:10169000F2CF00F0F29EAA6A070EA96EA86AA69C75
:1016A000A69EA684550EA76EAA0EA76EA682A6B207
:1016B000FED7A6940050F212F2CF00F0F29EAA6A72
:1016C000080EA96EA86AA69CA69EA684550EA76EB3
:1016D000AA0EA76EA682A6B2FED7A6940050F2125A
:1016E000F2CF00F0F29EAA6A090EA96EA86AA69C23
:1016F000A69EA684550EA76EAA0EA76EA682A6B2B7
:10170000FED7A6940050F212F2CF00F0F29EAA6A21
:101710000A0EA96E010EA86EA69CA69EA684550E62
:10172000A76EAA0EA76EA682A6B2FED7A6940050F8
:10173000F212F2CF00F0F29EAA6A0B0EA96E010E11
:10174000A86EA69CA69EA684550EA76EAA0EA76E8E
:10175000A682A6B2FED7A6940050F212010E000196
:101760007F6F030E806FE7EC03F05A0EF66E050EE6
:10177000F76E2BEC04F0F2CF72F0F29EAA6A010E23
:10178000A96EA69CA69EA680A85072BFF28E206E5F
:10179000F2CF72F0F29EAA6A020EA96EA69CA69ED5
:1017A000A680A85072BFF28E226EF2CF72F0F29E27
:1017B000AA6A030EA96EA69CA69EA680A85072BF18
:1017C000F28E386EF2CF72F0F29EAA6A0A0EA96EFD
:1017D000A69CA69EA680A85072BFF28E376EF2CF4E
:1017E00072F0F29EAA6A0B0EA96EA69CA69EA68017
:1017F000A85072BFF28E366E3852D8B4C6D0F2CF2F
:1018000072F0F29EAA6A040EA96EA69CA69EA680FD
:10181000A85072BFF28E406EF2CF72F0F29EAA6AAA
:10182000050EA96EA69CA69EA680A85072BFF28E39
:10183000416E41C03FF040C03EF0010E7F6F030E8D
:10184000806FE7EC03F0100EE96E3FC076F03EC00B
:1018500075F03BEC04F0F2CF72F0F29EAA6A060E2D
:10186000A96EA69CA69EA680A85072BFF28E446E5A
:10187000200E7E6F07EC04F044C073F0180E746FF6
:10188000ACEC04F0F2CF72F0F29EAA6A070EA96ED9
:10189000A69CA69EA680A85072BFF28E3B6EF2CF89
:1018A00072F0F29EAA6A080EA96EA69CA69EA68059
:1018B000A85072BFF28E3C6E3CC03AF03BC039F08B
:1018C000F2CF72F0F29EAA6A090EA96EA69CA69E9D
:1018D000A680A85072BFF28E426E010E7F6F040E7A
:1018E000806FE7EC03F0020E7E6F07EC04F0140E3D
:1018F0007F6F040E806FE7EC03F0020E7E6F07EC43
:1019000004F03F5203E144503E5C10E3020E6A6F64
:101910006A51425C0BE36AC07FF0040E806FE7EC13
:1019200003F07E6B07EC04F06A2BF2D7958E83AE42
:1019300014D0010E7F6F040E806FE7EC03F0020EEF
:101940007E6F07EC04F0140E7F6F040E806FE7ECDF
:1019500003F0010E7E6F07EC04F0958C83AC14D07D
:10196000010E7F6F040E806FE7EC03F0010E7E6FB7
:1019700007EC04F0140E7F6F040E806FE7EC03F0A9
:10198000020E7E6F07EC04F00BD0040E7F6F806FA9
:10199000E7EC03F0660EF66E050EF76E2BEC04F026
:1019A0009D8A010E7F6F806FE7EC03F0760EF66E76
:1019B000050EF76E2BEC04F0090E7F6F010E806FA1
:1019C000E7EC03F020500A0DF3CF73F01B0E746F99
:1019D00001EC05F00D0E7F6F010E806FE7EC03F058
:1019E000265206E0820EF66E050EF76E2BEC04F022
:1019F000255206E08C0EF66E050EF76E2BEC04F009
:101A0000010E7F6F020E806FE7EC03F0960EF66E0C
:101A1000050EF76E2BEC04F0090E7F6F020E806F3F
:101A2000E7EC03F022500A0DF3CF73F01B0E746F36
:101A300001EC05F038520BE1040E7F6F806FE7EC8C
:101A400003F0A20EF66E050EF76E2BEC04F09482F6
:101A500082A2A2D2948282B2FDD7010E6B6F6C6B10
:101A6000BEEC03F003C05FF002C05EF001C05DF0A9
:101A700000C05CF0020E726FFA0E7F6FF2EC02F0A3
:101A8000722FFAD76B2D03D1BEEC03F003C067F0C1
:101A900002C066F001C065F000C064F05C50645D97
:101AA000726F5D506559736F5E506659746F5F5009
:101AB0006759756F75530CE174530AE17351080847
:101AC00005E2FF0A05E17251C40802E3000E01D0ED
:101AD000010E726F6C2D01D002D0000E01D0010EEC
:101AE00072151DE0080E7F6F6BC080F0E7EC03F00D
:101AF000B20EF66E050EF76E2BEC04F020500A0DB8
:101B0000F3CF73F0180E746FACEC04F06C6B67C01D
:101B10005FF066C05EF065C05DF064C05CF05C5074
:101B2000645D726F5D506559736F5E506659746F76
:101B30005F506759756F75530CE174530AE1735127
:101B4000080805E2FF0A05E17251C40802E3000E2D
:101B500001D0010E726F6C5302E0000E01D0010E35
:101B6000721516E0080E7F6F6BC080F0E7EC03F093
:101B7000B40EF66E050EF76E2BEC04F0010E6C6FD2
:101B800067C05FF066C05EF065C05DF064C05CF089
:101B9000958283A237D02006205202E1010E206EEA
:101BA000080E7F6F6BC080F0E7EC03F0BA0EF66EA4
:101BB000050EF76E2BEC04F020500A0DF3CF73F0F6
:101BC000180E746FACEC04F0200E7E6F07EC04F07E
:101BD000680E9EA8FED7AD6E300E9EA8FED7AD6EE5
:101BE00020C078F0180E796F34EC05F0200E9EA816
:101BF000FED7AD6E020E726FFA0E7F6FF2EC02F03E
:101C0000722FFAD7948682A642D0202A2050090843
:101C100002E20A0E206E080E7F6F6BC080F0E7ECC8
:101C200003F0BC0EF66E050EF76E2BEC04F02050A0
:101C30000A0DF3CF73F0180E746FACEC04F0200EA5
:101C40007E6F07EC04F02050090813E3680E9EA88D
:101C5000FED7AD6E300E9EA8FED7AD6E20C078F0D8
:101C6000180E796F34EC05F0200E9EA8FED7AD6EED
:101C700006D0BE0EF66E050EF76E8DEC05F0020E68
:101C8000726FFA0E7F6FF2EC02F0722FFAD76B517F
:101C90000208D8A403D1BEEC03F003C067F002C071
:101CA00066F001C065F000C064F05C50645D726F66
:101CB0005D506559736F5E506659746F5F50675918
:101CC000756F75530CE174530AE17351080805E20E
:101CD000FF0A05E17251C40802E3000E01D0010EB3
:101CE000726F6C2D01D002D0000E01D0010E721562
:101CF0001DE0080E7F6F6BC080F0E7EC03F0C20EB2
:101D0000F66E050EF76E2BEC04F022500A0DF3CFA1
:101D100073F0180E746FACEC04F06C6B67C05FF07E
:101D200066C05EF065C05DF064C05CF05C50645DF0
:101D3000726F5D506559736F5E506659746F5F5076
:101D40006759756F75530CE174530AE173510808B4
:101D500005E2FF0A05E17251C40802E3000E01D05A
:101D6000010E726F6C5302E0000E01D0010E72156D
:101D700016E0080E7F6F6BC080F0E7EC03F0C40E36
:101D8000F66E050EF76E2BEC04F0010E6C6F67C05B
:101D90005FF066C05EF065C05DF064C05CF0958287
:101DA00083A237D02206225202E1010E226E080ED3
:101DB0007F6F6BC080F0E7EC03F0CA0EF66E050E85
:101DC000F76E2BEC04F022500A0DF3CF73F0180ECF
:101DD000746FACEC04F0200E7E6F07EC04F0610E23
:101DE0009EA8FED7AD6E300E9EA8FED7AD6E22C067
:101DF00078F0180E796F34EC05F0200E9EA8FED70F
:101E0000AD6E020E726FFA0E7F6FF2EC02F0722F5F
:101E1000FAD7948682A642D0222A22500A0802E2E9
:101E20000A0E226E080E7F6F6BC080F0E7EC03F0A5
:101E3000CC0EF66E050EF76E2BEC04F022500A0D58
:101E4000F3CF73F0180E746FACEC04F0200E7E6FBD
:101E500007EC04F02250090813E3610E9EA8FED798
:101E6000AD6E300E9EA8FED7AD6E22C078F0180E73
:101E7000796F34EC05F0200E9EA8FED7AD6E06D02B
:101E8000CE0EF66E050EF76E8DEC05F0020E726F3B
:101E9000FA0E7F6FF2EC02F0722FFAD7948482A4CC
:101EA00035D0080E7F6F010E806FE7EC03F0D20E85
:101EB000F66E050EF76E2BEC04F020500A0DF3CFF2
:101EC00073F0180E746FACEC04F0080E7F6F020E06
:101ED000806FE7EC03F0D40EF66E050EF76E2BEC78
:101EE00004F022500A0DF3CF73F0180E746FACECAF
:101EF00004F06B076B5302E1020E6B6F020E726F00
:101F0000FA0E7F6FF2EC02F0722FFAD7958083A061
:101F100036D0080E7F6F010E806FE7EC03F0D60E0F
:101F2000F66E050EF76E2BEC04F020500A0DF3CF81
:101F300073F0180E746FACEC04F0080E7F6F020E95
:101F4000806FE7EC03F0D80EF66E050EF76E2BEC03
:101F500004F022500A0DF3CF73F0180E746FACEC3E
:101F600004F06B2B6B51020802E2010E6B6F020E44
:101F7000726FFA0E7F6FF2EC02F0722FFAD7948232
:101F800082A209D0020E726FFA0E7F6FF2EC02F09D
:101F9000722FFAD701D076D53252D8B47FD09EEFC7
:101FA00005F0CCEF05F00CEF06F02950630804E1D2
:101FB000060E726F64EC07F02950670802E15EECD0
:101FC00008F02950640869E1780E9EA8FED7AD6E2E
:101FD0001E0E7F6FF2EC02F0680E9EA8FED7AD6E6B
:101FE000300E9EA8FED7AD6E20C078F0180E796F27
:101FF00034EC05F01E0E7F6FF2EC02F0610E9EA82D
:10200000FED7AD6E300E9EA8FED7AD6E22C078F022
:10201000180E796F34EC05F01E0E7F6FF2EC02F0B3
:10202000265208E06D0E9EA8FED7AD6E300E9EA81B
:10203000FED7AD6E255208E06D0E9EA8FED7AD6EA0
:10204000310E9EA8FED7AD6E1E0E7F6FF2EC02F031
:1020500038520AE0740E9EA8FED7AD6E44C078F0E8
:10206000180E796F34EC05F01E0E7F6FF2EC02F063
:102070003FC079F03EC078F07B6B0A0E7A6F7CEC43
:1020800006F001C06DF0710E9EA8FED7AD6E6DC05A
:1020900078F0180E796F34EC05F0326A958A83AACD
:1020A00054D0020E726FFA0E7F6FF2EC02F0722FB4
:1020B000FAD727523CE0276A010E256E266A0D0EDC
:1020C0007F6F010E806FE7EC03F0DA0EF66E050EFF
:1020D000F76E2BEC04F06D0E9EA8FED7AD6E310EA0
:1020E0009EA8FED7AD6E010E466E27EC09F0485251
:1020F00003E1010E486E1AD04EEC07F09580000EF9
:1021000083B0010E726F9486000E82B6010E7213B8
:102110009484000E82B4010E72131FEC07F072510A
:10212000011003E073EC06F001D0DFD70DD0010EF3
:10213000276E256A266E6D0E9EA8FED7AD6E300EF8
:102140009EA8FED7AD6E01D0A9D7010E466E476A94
:102150009582000E83B2010E26141DE01FEC07F0DD
:1021600001C072F09486000E82B6010E011005E0E7
:1021700073EC06F0326A9D900ED05BEF09F0485286
:1021800003E1010E486E07D020C021F04EEC07F0AD
:10219000010E336EDDD79486000E82B6010E261432
:1021A0001DE04CEC06F001C072F09582000E83B287
:1021B000010E011005E073EC06F0326A9D900ED01E
:1021C00094EF09F0485203E1010E486E07D020C099
:1021D00021F01AEC07F0010E346EDDD7345226E000
:1021E0006E6B0A0ED88022546E5D1CE26F6B23501A
:1021F0006F5D14E29582000E83B2010E726F4CEC9B
:1022000006F07251011004E073EC06F09D9006D0C8
:1022100024C021F01AEC07F06F2BE9D7010E245EE1
:102220006E2BDFD7346A73EC06F0D8D7335226E032
:10223000706B0A0ED8802254705D1CE2716B2350C3
:10224000715D14E29486000E82B6010E726F1FEC6F
:1022500007F07251011004E073EC06F09D9006D077
:1022600024C021F04EEC07F0712BE9D7010E245E5B
:10227000702BDFD7336A73EC06F0D8D773EC06F017
:102280009582000E83B2010E726F252C01D002D010
:10229000000E01D0010E721526E0010E466E9582E9
:1022A00083B2FDD727EC09F0485203E1010E486ED6
:1022B0001AD04EEC07F09580000E83B0010E726FBD
:1022C0009486000E82B6010E72139484000E82B4BE
:1022D000010E72131FEC07F07251011003E073EC52
:1022E00006F001D0DFD79486000E82B6010E736F20
:1022F000252C01D002D0000E01D0010E73152BE069
:10230000010E466E020E726FFA0E7F6FF2EC02F053
:10231000722FFAD7CDEF09F0485203E1010E486E53
:102320001AD01AEC07F09580000E83B0010E726F80
:102330009582000E83B2010E72139484000E82B453
:10234000010E72134CEC06F07251011003E073ECB5
:1023500006F001D0DFD7958083A00CD0020E726FFB
:10236000FA0E7F6FF2EC02F0722FFAD7060E726F40
:1023700064EC07F0948482A40AD0020E726FFA0E05
:102380007F6FF2EC02F0722FFAD75EEC08F0D0EF1C
:042390000CF003004A
:020000040030CA
:0E00000000E81E3C00BF81000FC00FE00F4063
:00000001FF
;PIC18F46K22
;CRC=3F2F  CREATED="07-Eyl-22 17:14"
