:040000001EEF08F0F7
:08000800046ED8CF05F0E0CF33
:1000100006F00001E9CF0CF0EACF07F0E1CF08F0DD
:10002000E2CF09F0D9CF0AF0DACF0BF0F3CF12F01C
:10003000F4CF13F0FACF14F0F5CF15F0F6CF16F099
:10004000F7CF17F000C00EF001C00FF002C010F0A3
:1000500003C011F09DA030EF00F09EB008EF01F05A
:100060009DAA36EF00F09EBAA6EF00F0A0A43CEFE8
:1000700000F0A1B4DAEF01F00EC000F00FC001F003
:1000800010C002F011C003F00CC0E9FF07C0EAFF86
:10009000078E08C0E1FF09C0E2FF0AC0D9FF0BC00C
:1000A000DAFF12C0F3FF13C0F4FF14C0FAFF15C04B
:1000B000F5FF16C0F6FF17C0F7FF045006C0E0FFBB
:1000C00005C0D8FF1000F76AD60FF66E000EF722B3
:1000D0000900F5501200280C0106F76AEA0FF66EC7
:1000E000000EF7220900F550120000001515151535
:1000F00015001F1F1F1F1F1F1F1F1F11111111117F
:10010000111F0900F6CF74F0F7CF75F0F5509EA8D7
:10011000FED7AD6E74C0F6FF75C0F7FF732FF1D731
:10012000C1EF00F0EF5210E0EACF74F0E9CF73F0C6
:10013000EF509EA8FED7AD6E74C0EAFF73C0E9FF12
:10014000E92AD8B4EA2AEED7C5EF00F09EAAFED776
:10015000AECF28F0036A3150290FE96E000E03205C
:10016000EA6E28C0EFFF312A285021080EE1316ADB
:10017000010E326E920EF66E010EF76E060E736F62
:10018000C0D7EA6A28C0E9FFCDD79D9A9E9A3CEF76
:1001900000F0646174613A202573000020002000A3
:1001A0002000202000002020202020486F6D696E54
:1001B000672E2E2E2020202000000C00636F756E0D
:1001C000743A20254C750000010E765F0BE3EA6A55
:1001D000760EE96EEF5006E0040E006E002EFED79C
:1001E000EF2EFAD7F9EF00F0020E756FA50E766FBD
:1001F000EBD7752FFBD7746B0A0ED8807355745DDF
:1002000006E2D50E006E002EFED7742BF5D7120035
:10021000485266E121C073F0E7DF95948C84939295
:100220008A9293908A90949A8B8A21C073F0DCDF33
:1002300095948C9493928A9293908A90949A8B8AB4
:1002400021C073F0D1DF95948C9493928A8293901D
:100250008A90949A8B8A21C073F0C6DF95948C940F
:1002600093928A8293908A90949A8B9A21C073F089
:10027000BBDF95948C9493928A8293908A80949A0F
:100280008B9A21C073F0B0DF95948C9493928A92EC
:1002900093908A80949A8B9A21C073F0A5DF9594ED
:1002A0008C8493928A9293908A80949A8B9A21C09C
:1002B00073F09ADF95948C8493928A9293908A90AB
:1002C000949A8B9A3E2AD8B43F2A3A503F5C08E36E
:1002D00003E13E50395C04E23AC03FF039C03EF0E1
:1002E000482C61D021C073F07FDF95948C84939269
:1002F0008A9293908A90949A8B9A21C073F074DFBB
:1003000095948C8493928A9293908A80949A8B9AF3
:1003100021C073F069DF95948C9493928A929390A4
:100320008A80949A8B9A21C073F05EDF95948C94A6
:1003300093928A8293908A80949A8B9A21C073F0C8
:1003400053DF95948C9493928A8293908A90949A96
:100350008B9A21C073F048DF95948C9493928A8293
:1003600093908A90949A8B8A21C073F03DDF959484
:100370008C9493928A9293908A90949A8B8A21C0BB
:1003800073F032DF95948C8493928A9293908A9042
:10039000949A8B8A3E50D8B43F063E063D5203E005
:1003A000392AD8B43A2ACF68D00ECE6E9E909E904D
:1003B0003CEF00F09D909D9AF250006EF29EAA6A6A
:1003C000010EA96E20C0A8FFA69CA69EA6840F01C0
:1003D000550EA76EAA0EA76EA682A6B2FED7A69449
:1003E0000050F212F2CF00F0F29EAA6A020EA96E3D
:1003F00022C0A8FFA69CA69EA684550EA76EAA0E94
:10040000A76EA682A6B2FED7A6940050F212F2CF33
:1004100000F0F29EAA6A030EA96E38C0A8FFA69C3F
:10042000A69EA684550EA76EAA0EA76EA682A6B299
:10043000FED7A6940050F2123EC040F03FC041F0FB
:10044000F2CF00F0F29EAA6A040EA96E40C0A8FF87
:10045000A69CA69EA684550EA76EAA0EA76EA6827F
:10046000A6B2FED7A6940050F212F2CF00F0F29E90
:10047000AA6A050EA96E41C0A8FFA69CA69EA684E6
:10048000550EA76EAA0EA76EA682A6B2FED7A69498
:100490000050F212F2CF00F0F29EAA6A060EA96E88
:1004A00044C0A8FFA69CA69EA684550EA76EAA0EC1
:1004B000A76EA682A6B2FED7A6940050F21239C04B
:1004C0003BF03AC03CF0F2CF00F0F29EAA6A070E71
:1004D000A96E3BC0A8FFA69CA69EA684550EA76E3B
:1004E000AA0EA76EA682A6B2FED7A6940050F2125C
:1004F000F2CF00F0F29EAA6A080EA96E3CC0A8FFD7
:10050000A69CA69EA684550EA76EAA0EA76EA682CE
:10051000A6B2FED7A6940050F212F2CF00F0F29EDF
:10052000AA6A090EA96E42C0A8FFA69CA69EA68430
:10053000550EA76EAA0EA76EA682A6B2FED7A694E7
:100540000050F212F2CF00F0F29EAA6A0A0EA96ED3
:1005500037C0A8FFA69CA69EA684550EA76EAA0E1D
:10056000A76EA682A6B2FED7A6940050F212F2CFD2
:1005700000F0F29EAA6A0B0EA96E36C0A8FFA69CD8
:10058000A69EA684550EA76EAA0EA76EA682A6B238
:10059000FED7A6940050F212939E8A8E939E8A9E56
:1005A000939E8A8E939E8A9E939E8A8E939E8A9E07
:1005B000939E8A8E939E8A9EA094A19400013CEF04
:1005C00000F0456570726F6D204661696C0043658F
:1005D0006E746565204D616368696E6500005370D7
:1005E0006565643A202500003C4D616E75656C3E82
:1005F00000003C204175746F203E0000416363653C
:100600006C3A2025000043656E746572204D61636D
:1006100068696E650000250020202020000025006C
:100620002500250020202020000025002500250091
:100630002500250025003C204175746F203E0000F8
:10064000EA6A6A0EE96EEF500EE0140E016E006A5F
:10065000002EFED7012EFBD7BF0E006E002EFED758
:1006600000D0EF2EF2D7120071B102D0899801D0DC
:100670008988929871B302D0899A01D0898A929A16
:1006800071B502D08D9001D08D80969071B702D057
:100690008D9201D08D8296920000929689860A0EE4
:1006A000006E002EFED70000929689961200726BA3
:1006B00092968986050E006E002EFED79288729162
:1006C00080B87281928A729380BA72839680729592
:1006D00084B072859682729784B272879296899658
:1006E000050E006E002EFED772C001F0120092942B
:1006F00089840000DCDF01C071F0D9DF01C070F037
:100700007139006EF00E001600507011016E8CEF02
:1007100003F092928992EBD701C070F001BEFBD733
:100720006E5303E09292898202D0929289920000E5
:10073000929489940000929689966F39706F0F0E8B
:10074000701770C071F090DF6F510F0B706F716F89
:100750008BDF1200010E1F6E9292899292948994FF
:1007600092968996230E6A6F6BDF5E6A5E5002086E
:1007700008E3030E716F78DF050E6A6F61DF5E2A92
:10078000F5D7020E716F70DF5E6A5E50030809E3F1
:10079000036A5E5098DC5F6E6E6B6F6FBADF5E2A25
:1007A000F4D779EF08F06E6B400E6F6FB2DF5E6AC0
:1007B0005E5017080BE3036A5E508FDC5F6E010E1C
:1007C0006E6F5FC06FF0A5DF5E2AF2D76E6B800E92
:1007D0006F6F9FDF7BEF08F0D650D7CF03F0F2A406
:1007E0000CD0010E1926D8B01A2AD8B41B2AD8B4B6
:1007F0001C2AF294D650D7CF03F0006E03C001F04C
:1008000019C002F01AC003F01B50E8320332023262
:1008100001320032E8320332023201320032E83271
:10082000033202320132003212006B51010A07E03A
:10083000030A07E0010A08E0070A09E00BD06C6B25
:100840000AD0400E6C6F07D0140E6C6F04D0540E9B
:100850006C6F01D06C6B010E6A5D6C276C51800966
:100860006D6F6E6B6F6F55DF120069510C0A05E0FA
:10087000060A0DE0020A12E016D06E6B010E6F6FD1
:1008800048DF010E1F6E020E6A6FDADE11D01F2ADA
:10089000010E6A6F1FC06BF0C8DF0AD06E6B100EBE
:1008A0006F6F37DF05D0010E6E6F69C06FF031DFFB
:1008B00012000900F5520CE0F6CF61F0F7CF62F0BC
:1008C000F5CF69F0D2DF61C0F6FF62C0F7FFF1D764
:1008D0001200EACF68F0E9CF67F06139F009636F81
:1008E0006327E20F646F320F666F61510F0B64274D
:1008F00064276627E90F656F6527652760390F0B49
:100900006527662765376637661F663760510F0BA8
:1009100066276337070E626F0A0E65076627FDE3D9
:1009200064076527FDE363076427FDE36207632728
:10093000FDE3EA6A620EE96E070E6715679DE92618
:10094000000EEA22E950660803E1EA5201E1678DF0
:10095000EF50006E08E167BD06D067B913D067B7E6
:1009600002D0200E03D067876799300E0026EACFA9
:1009700061F0E9CF60F000C069F077DF61C0EAFFA5
:1009800060C0E9FFEE5067ADDDD712006651016A25
:10099000655D03E265C000F00CD0006A080E676F69
:1009A000653700366651005CD8B0006E0136672F9F
:1009B000F7D71200200E60A9300E616F5FC000F003
:1009C0005FAE08D0001E002A00C05FF02D0E616FE0
:1009D000608F608101505FC065F0640E666FD6DF86
:1009E00000C05FF0300E0124626F5FC065F00A0E38
:1009F000666FCCDF300E0024646F300E0124636F0D
:100A000061C000F0300E625D04E0608360BF60850D
:100A100012D061C062F0200E616F300E635D04E0A1
:100A2000608160BF608307D0D8A4608104E162C0A8
:100A300063F0200E626F60B505D060B306D060B180
:100A400007D009D061C069F010DF62C069F00DDF26
:100A500063C069F00ADF64C069F007DF120001506B
:100A60005FC065F0640E666F91DF00C05FF00150FB
:100A7000300E07E160A30CD060B70AD060B9200E39
:100A800003D0609760996081012601C069F0EDDEB6
:100A90005FC065F00A0E666F79DF00C05FF001503D
:100AA000300E06E160B708D060A106D060B9200E14
:100AB000012601C069F0D9DE300E5F265FC069F003
:100AC000D4DE1200958C83AC19D0010E356E3752EE
:100AD00014E1010E6A6F040E6B6FA7DE010E696FE1
:100AE000C4DE020E6A6F040E6B6F9FDE9C0EF66E04
:100AF000010EF76EDEDE010E376E0CD0356A36520F
:100B000009E0140E6A6F040E6B6F8FDE020E696FC0
:100B1000ACDE366A35C001F0120095948C94939245
:100B20008A9293908A90949A8B9A1200016A026A30
:100B3000006A036A635102E1625118E0100E646FAB
:100B4000D89060376137003603366351035C02E1A9
:100B50006251005C07E36251005ED8A00306635156
:100B6000035ED88001360236642FEAD712003F5266
:100B700007E144503E5C04E2010E445C3E6E3F6A75
:100B80003FC061F03EC060F0636B44C062F0CEDFF6
:100B900000C060F003C061F0605302E1615302E005
:100BA000000E01D0010E3814606F3F5203E13E5039
:100BB000445C02E2000E01D0010E60114BE03FC028
:100BC00061F03EC060F0636B44C062F0AFDF01C013
:100BD00042F04250120802E2130E426E42500108E7
:100BE00002E3020E426E4350425C2BE24250120876
:100BF0000DE1130E6A6F040E6B6F17DE9E0EF66E1C
:100C0000010EF76E56DE42C043F024D0422C0DD0C8
:100C1000020E6A6F040E6B6F08DEA00EF66E010EF8
:100C2000F76E47DE42C043F015D0010E4224606FDC
:100C30006A6F040E6B6FF9DDA20EF66E010EF76E91
:100C400038DE42C06AF0040E6B6FEFDD696B0DDEBB
:100C500042C043F01200010E486E9D8088DF9D90D7
:100C60001200452C31D00A0ED8802254205C246E0C
:100C70005E6A0A0ED88022545E5C20E25F6A2350CE
:100C80005F5C18E29582000E83B2010E606F94865D
:100C9000000E82B6010E601315DF6051011005E0F1
:100CA0003CDF476A47C001F00FD024C021F0D3DFFA
:100CB0005F2AE5D7010E24265E2ADBD7456A010E9E
:100CC000476E016E01D0CDD7120095988C88452CC7
:100CD00031D00A0ED8802254205C246E5E6A0A0E3F
:100CE000D88022545E5C20E25F6A23505F5C18E289
:100CF0009582000E83A2010E606F9486000E82B66C
:100D0000010E6013DFDE6051011005E006DF476A67
:100D100047C001F011D024C021F09DDF5F2AE5D744
:100D2000010E24265E2ADBD7456A010E476E016E4E
:100D300003D0CDD795988C98AFEF0DF0958E83AEFC
:100D400011D0010E356E3AC03FF039C03EF0140E9E
:100D50006A6F040E6B6F69DD010E696F86DD010E2F
:100D6000366E0CD0356A375209E0010E6A6F040EF8
:100D70006B6F5BDD020E696F78DD376A35C001F09D
:100D80001200486A9D80F3DE9D90120095988C8831
:100D9000452C31D00A0ED8802254205C246E5E6A25
:100DA0000A0ED88022545E5C20E25F6A23505F5CAA
:100DB00018E29486000E82A6010E606F9582000EE6
:100DC00083B2010E6013BADF6051011005E0A5DEA9
:100DD000476A47C001F011D024C021F0D2DF5F2A5A
:100DE000E5D7010E24265E2ADBD7456A010E476E41
:100DF000016E03D0CDD795988C98D2EF0DF0452C8D
:100E000031D00A0ED8802254205C246E5E6A0A0E0D
:100E1000D88022545E5C20E25F6A23505F5C18E257
:100E20009582000E83B2010E616F9486000E82B629
:100E3000010E611383DF6151011005E06EDE476A28
:100E400047C001F00FD024C021F09BDF5F2AE5D717
:100E5000010E24265E2ADBD7456A010E476E016E1D
:100E600001D0CDD77CEF0EF00900F6CF61F0F7CFBF
:100E700062F0F5CF69F0F9DC61C0F6FF62C0F7FF00
:100E8000602FF2D7DAEF07F0010E6A6F040E6B6F76
:100E9000CCDC020E696FE9DC140E6A6F040E6B6F16
:100EA000C4DC020E696FE1DC020E6A6F040E6B6F28
:100EB000BCDCA60EF66E010EF76EFBDC060E216E94
:100EC000386A3A6A396A3ADF015205E026DE9598B7
:100ED0008C78326A15D09582000E83B2010E606F55
:100EE0009486000E82B6010E601108E016DE010E37
:100EF0006A6F040E6B6F99DC386A9ED042DFE3D7CD
:100F0000010E3D6EDFDD015205E007DE326A3F6A09
:100F10003E6A15D09582000E83B2010E606F9486F2
:100F2000000E82B6010E601108E0F7DD010E6A6F57
:100F3000040E6B6F7ADC386A7FD08DDEE1D7D890F3
:100F40003A30036E3930026E016E3F50035C20E38D
:100F500003E101503E5C1CE23D6A3EDC03C054F0FC
:100F600002C053F001C052F000C051F09582000E53
:100F700083B2010E606F9486000E82B6010E60137C
:100F8000DDDE6051011002E0C8DD56D0FADED7D7B1
:100F9000C4DDBA0EF66E010EF76E8BDC010E6A6FC1
:100FA000030E6B6F42DCBC0EF66E010EF76E070E81
:100FB000606F5AD7100EE96E3AC061F039C060F028
:100FC00088DCD8903A303F6E39303E6E010E386E74
:100FD0003D6A3AC061F039C060F0636B140E626F15
:100FE000A5DD01C044F03FC061F03EC060F0636B1E
:100FF00044C062F09BDD01C042F0010E6A6F040E36
:101000006B6F13DC020E696F30DC140E6A6F040E16
:101010006B6F0BDC020E696F28DC020E5F6E5F5097
:101020000A080AE35FC06AF0040E6B6F15EC04F067
:10103000696B1BDC5F2AF3D7AAEF0EF0F86AD09E2B
:10104000078E700ED36E9B8C9B9E1C6A1B6A1A6A5D
:10105000196AD59E870ED56ED76AD66AF294B8867D
:10106000820EAF6E060EB06EA60EAC6E900EAB6E1C
:10107000050E206E216A060E226E1E0E236E246A55
:10108000256A010E266E276E316A326A336A346A27
:10109000356A366E376E386A3A6839683D6A3F6E2F
:1010A0005E0E3E6E426A436A446A010E456E466AAF
:1010B000476E486A566A556A0F01386B396B3A6B4E
:1010C0003B6B3C6B776A786A796A1D6A1E6AF00E20
:1010D000BD169E901A0E9C6EA084C00EF2129D90BA
:1010E000370ECD6ECC6ACF68D00ECE6E0001AAEF5F
:1010F00003F0D3EF03F0ECEC03F003C054F002C0B4
:1011000053F001C052F000C051F054C04CF053C035
:101110004BF052C04AF051C049F04CC050F04BC0A7
:101120004FF04AC04EF049C04DF0F2CF5EF0F29E53
:10113000AA6A010EA96EA69CA69EA680A8505EBEB5
:10114000F28EF2CF5FF0F29EAA6A010EA96EA69C03
:10115000A69EA680A8505FBEF28E0A0802E3000E8B
:1011600001D0010E000AD8B4F0D0F250006EF29E09
:10117000AA6A010EA96E050EA86EA69CA69EA6845C
:101180000F01550EA76EAA0EA76EA682A6B2FED7B5
:10119000A6940050F212F2CF00F0F29EAA6A020E5C
:1011A000A96E060EA86EA69CA69EA684550EA76ED6
:1011B000AA0EA76EA682A6B2FED7A6940050F2127F
:1011C000F2CF00F0F29EAA6A030EA96EA86AA69C4E
:1011D000A69EA684550EA76EAA0EA76EA682A6B2DC
:1011E000FED7A6940050F212F2CF00F0F29EAA6A47
:1011F000040EA96E640EA86EA69CA69EA684550E2B
:10120000A76EAA0EA76EA682A6B2FED7A69400501D
:10121000F212F2CF00F0F29EAA6A050EA96E640ED9
:10122000A86EA69CA69EA684550EA76EAA0EA76EB3
:10123000A682A6B2FED7A6940050F212F2CF00F01A
:10124000F29EAA6A060EA96EA86AA69CA69EA6840D
:10125000550EA76EAA0EA76EA682A6B2FED7A694BA
:101260000050F212F2CF00F0F29EAA6A070EA96EA9
:10127000A86AA69CA69EA684550EA76EAA0EA76E67
:10128000A682A6B2FED7A6940050F212F2CF00F0CA
:10129000F29EAA6A080EA96EA86AA69CA69EA684BB
:1012A000550EA76EAA0EA76EA682A6B2FED7A6946A
:1012B0000050F212F2CF00F0F29EAA6A090EA96E57
:1012C000A86AA69CA69EA684550EA76EAA0EA76E17
:1012D000A682A6B2FED7A6940050F212F2CF00F07A
:1012E000F29EAA6A0A0EA96E010EA86EA69CA69E80
:1012F000A684550EA76EAA0EA76EA682A6B2FED72A
:10130000A6940050F212F2CF00F0F29EAA6A0B0EE1
:10131000A96E010EA86EA69CA69EA684550EA76E69
:10132000AA0EA76EA682A6B2FED7A6940050F2120D
:10133000010E00016A6F030E6B6F15EC04F0C20E14
:10134000F66E050EF76E59EC04F0F2CF5EF0F29EE9
:10135000AA6A010EA96EA69CA69EA680A8505EBE93
:10136000F28E206EF2CF5EF0F29EAA6A020EA96E95
:10137000A69CA69EA680A8505EBEF28E226EF2CFDC
:101380005EF0F29EAA6A030EA96EA69CA69EA68097
:10139000A8505EBEF28E386EF2CF5EF0F29EAA6A60
:1013A0000A0EA96EA69CA69EA680A8505EBEF28ECE
:1013B000376EF2CF5EF0F29EAA6A0B0EA96EA69C63
:1013C000A69EA680A8505EBEF28E366E3852D8B465
:1013D000C6D0F2CF5EF0F29EAA6A040EA96EA69C59
:1013E000A69EA680A8505EBEF28E406EF2CF5EF042
:1013F000F29EAA6A050EA96EA69CA69EA680A8507B
:101400005EBEF28E416E41C03FF040C03EF0010E24
:101410006A6F030E6B6F15EC04F0100EE96E3FC09F
:1014200061F03EC060F069EC04F0F2CF5EF0F29E35
:10143000AA6A060EA96EA69CA69EA680A8505EBEAD
:10144000F28E446E200E696F35EC04F044C05FF0FC
:10145000180E606FDAEC04F0F2CF5EF0F29EAA6A2A
:10146000070EA96EA69CA69EA680A8505EBEF28E10
:101470003B6EF2CF5EF0F29EAA6A080EA96EA69CA1
:10148000A69EA680A8505EBEF28E3C6E3CC03AF08E
:101490003BC039F0F2CF5EF0F29EAA6A090EA96E47
:1014A000A69CA69EA680A8505EBEF28E426E010E3D
:1014B0006A6F040E6B6F15EC04F0020E696F35EC69
:1014C00004F0140E6A6F040E6B6F15EC04F0020E3C
:1014D000696F35EC04F03F5203E144503E5C10E389
:1014E000020E576E5750425C0BE357C06AF0040E71
:1014F0006B6F15EC04F0696B35EC04F0572AF2D7EA
:10150000958E83AE14D0010E6A6F040E6B6F15ECCE
:1015100004F0020E696F35EC04F0140E6A6F040ECD
:101520006B6F15EC04F0010E696F35EC04F0958CCF
:1015300083AC14D0010E6A6F040E6B6F15EC04F0CF
:10154000010E696F35EC04F0140E6A6F040E6B6FB8
:1015500015EC04F0020E696F35EC04F00BD0040EAC
:101560006A6F6B6F15EC04F0CE0EF66E050EF76E1B
:1015700059EC04F09D8A010E6A6F6B6F15EC04F054
:10158000DE0EF66E050EF76E59EC04F020500A0DD3
:10159000F3CF5FF01B0E606F2FEC05F00D0E6A6F3E
:1015A000010E6B6F15EC04F0262C06D0E80EF66EDB
:1015B000050EF76E59EC04F0252C06D0F20EF66EEF
:1015C000050EF76E59EC04F0010E6A6F020E6B6F98
:1015D00015EC04F0FC0EF66E050EF76E59EC04F0F7
:1015E00022500A0DF3CF5FF01B0E606F2FEC05F059
:1015F00038520BE1040E6A6F6B6F15EC04F0060EA7
:10160000F66E060EF76E59EC04F0948282A246D272
:10161000948282B2FDD7010E586E596AECEC03F049
:1016200003C04CF002C04BF001C04AF000C049F0CA
:10163000020E5E6EFA0E6A6F20EC03F05E2EFAD791
:10164000582CD5D0ECEC03F003C054F002C053F09A
:1016500001C052F000C051F04950515C5E6E4A50DA
:1016600052585F6E4B505358606F4C505458616FD6
:1016700061530CE160530AE15F50080805E2FF0A7C
:1016800005E15E50C40802E3000E01D0010E5E6E5B
:10169000592C01D002D0000E01D0010E5E141DE0C5
:1016A000080E6A6F58C06BF015EC04F0160EF66E5B
:1016B000060EF76E59EC04F020500A0DF3CF5FF0E0
:1016C000180E606FDAEC04F0596A54C04CF053C045
:1016D0004BF052C04AF051C049F04950515C5E6E27
:1016E0004A5052585F6E4B505358606F4C5054588C
:1016F000616F61530CE160530AE15F50080805E235
:10170000FF0A05E15E50C40802E3000E01D0010E9D
:101710005E6E595202E0000E01D0010E5E1416E01A
:10172000080E6A6F58C06BF015EC04F0180EF66ED8
:10173000060EF76E59EC04F0010E596E54C04CF0D1
:1017400053C04BF052C04AF051C049F0958283A279
:1017500025D02006205202E1010E206E080E6A6F8D
:1017600058C06BF015EC04F01E0EF66E060EF76E08
:1017700059EC04F020500A0DF3CF5FF0180E606FA3
:10178000DAEC04F0200E696F35EC04F0020E5E6EA8
:10179000FA0E6A6F20EC03F05E2EFAD7948682A6CA
:1017A00026D0202A2050090802E20A0E206E080ED8
:1017B0006A6F58C06BF015EC04F0200EF66E060E42
:1017C000F76E59EC04F020500A0DF3CF5FF0180EBD
:1017D000606FDAEC04F0200E696F35EC04F0020E55
:1017E0005E6EFA0E6A6F20EC03F05E2EFAD7585048
:1017F0000208D8A4D5D0ECEC03F003C054F002C02A
:1018000053F001C052F000C051F04950515C5E6E7F
:101810004A5052585F6E4B505358606F4C5054585A
:10182000616F61530CE160530AE15F50080805E203
:10183000FF0A05E15E50C40802E3000E01D0010E6C
:101840005E6E592C01D002D0000E01D0010E5E1444
:101850001DE0080E6A6F58C06BF015EC04F0220E04
:10186000F66E060EF76E59EC04F022500A0DF3CF17
:101870005FF0180E606FDAEC04F0596A54C04CF057
:1018800053C04BF052C04AF051C049F04950515C2E
:101890005E6E4A5052585F6E4B505358606F4C50BA
:1018A0005458616F61530CE160530AE15F500808BE
:1018B00005E2FF0A05E15E50C40802E3000E01D014
:1018C000010E5E6E595202E0000E01D0010E5E1450
:1018D00016E0080E6A6F58C06BF015EC04F0240E89
:1018E000F66E060EF76E59EC04F0010E596E54C0F8
:1018F0004CF053C04BF052C04AF051C049F09582B1
:1019000083A225D02206225202E1010E226E080E89
:101910006A6F58C06BF015EC04F02A0EF66E060ED6
:10192000F76E59EC04F022500A0DF3CF5FF0180E59
:10193000606FDAEC04F0200E696F35EC04F0020EF3
:101940005E6EFA0E6A6F20EC03F05E2EFAD7948674
:1019500082A626D0222A22500A0802E20A0E226E0D
:10196000080E6A6F58C06BF015EC04F02C0EF66E82
:10197000060EF76E59EC04F022500A0DF3CF5FF01B
:10198000180E606FDAEC04F0200E696F35EC04F08D
:10199000020E5E6EFA0E6A6F20EC03F05E2EFAD72E
:1019A000948482A435D0080E6A6F010E6B6F15EC1B
:1019B00004F02E0EF66E060EF76E59EC04F0205071
:1019C0000A0DF3CF5FF0180E606FDAEC04F0080E2A
:1019D0006A6F020E6B6F15EC04F0300EF66E060E99
:1019E000F76E59EC04F022500A0DF3CF5FF0180E99
:1019F000606FDAEC04F05806585202E1020E586E9D
:101A0000020E5E6EFA0E6A6F20EC03F05E2EFAD7BD
:101A1000958083A036D0080E6A6F010E6B6F15ECAF
:101A200004F0320EF66E060EF76E59EC04F02050FC
:101A30000A0DF3CF5FF0180E606FDAEC04F0080EB9
:101A40006A6F020E6B6F15EC04F0340EF66E060E24
:101A5000F76E59EC04F022500A0DF3CF5FF0180E28
:101A6000606FDAEC04F0582A5850020802E2010EC6
:101A7000586E020E5E6EFA0E6A6F20EC03F05E2E58
:101A8000FAD7948282A209D0020E5E6EFA0E6A6FB5
:101A900020EC03F05E2EFAD701D0D2D5958A83AA26
:101AA00044D0020E5E6EFA0E6A6F20EC03F05E2EDA
:101AB000FAD7275234E0276A010E256E266A0D0EEA
:101AC0006A6F010E6B6F15EC04F0360EF66E060EA3
:101AD000F76E59EC04F0010E456E31EC06F04752FA
:101AE00003E1010E476E1AD02BEC06F09580000E34
:101AF00083B0010E5E6E9486000E82B6010E5E12F9
:101B00009484000E82B4010E5E1262EC05F05E5009
:101B1000011003E08DEC05F001D0DFD705D0010EF8
:101B2000276E256A266E01D0B9D7010E456E466A2A
:101B30009582000E83B2010E26141DE062EC05F0C2
:101B400001C05EF09486000E82B6010E011005E021
:101B50008DEC05F0326A9D900ED065EF06F047528D
:101B600003E1010E476E07D020C021F02BEC06F0F8
:101B7000010E336EDDD79486000E82B6010E261458
:101B80001DE09EEC06F001C05EF09582000E83B26F
:101B9000010E011005E08DEC05F0326A9D900ED02B
:101BA000C6EF06F0475203E1010E476E07D020C092
:101BB00021F0C1EC06F0010E346EDDD7345226E080
:101BC0005A6A0A0ED88022545A5C1CE25B6A23507F
:101BD0005B5C14E29582000E83B2010E5E6E9EEC99
:101BE00006F05E50011004E08DEC05F09D9006D0EB
:101BF00024C021F0C1EC06F05B2AE9D7010E245E77
:101C00005A2ADFD7346A8DEC05F0D8D7335226E054
:101C10005C6A0A0ED88022545C5C1CE25D6A235028
:101C20005D5C14E29486000E82B6010E5E6E62EC7C
:101C300005F05E50011004E08DEC05F09D9006D09B
:101C400024C021F02BEC06F05D2AE9D7010E245EBA
:101C50005C2ADFD7336A8DEC05F0D8D78DEC05F020
:101C60009582000E83B2010E5E6E252C01D002D04B
:101C7000000E01D0010E5E1426E0010E456E958225
:101C800083B2FDD731EC06F0475203E1010E476EF7
:101C90001AD02BEC06F09580000E83B0010E5E6E1C
:101CA0009486000E82B6010E5E129484000E82B4F9
:101CB000010E5E1262EC05F05E50011003E08DEC47
:101CC00005F001D0DFD79486000E82B6010E5F6E5C
:101CD000252C01D002D0000E01D0010E5F142BE0A4
:101CE000010E456E020E5E6EFA0E6A6F20EC03F076
:101CF0005E2EFAD7FFEF06F0475203E1010E476E62
:101D00001AD0C1EC06F09580000E83B0010E5E6E15
:101D10009582000E83B2010E5E129484000E82B48E
:101D2000010E5E129EEC06F05E50011003E08DEC99
:101D300005F001D0DFD7958083A00CD0020E5E6E37
:101D4000FA0E6A6F20EC03F05E2EFAD7060E5E6E76
:101D500044EF07F0948482A48CD0020E5E6EFA0EDB
:101D60006A6F20EC03F05E2EFAD7F250006EF29EFE
:101D7000AA6A010EA96E20C0A8FFA69CA69EA684F2
:101D80000F01550EA76EAA0EA76EA682A6B2FED7A9
:101D9000A6940050F212F2CF00F0F29EAA6A020E50
:101DA000A96E22C0A8FFA69CA69EA684550EA76E6B
:101DB000AA0EA76EA682A6B2FED7A6940050F21273
:101DC000F2CF00F0F29EAA6A030EA96E38C0A8FFF7
:101DD000A69CA69EA684550EA76EAA0EA76EA682E6
:101DE000A6B2FED7A6940050F2123EC040F03FC00B
:101DF00041F0F2CF00F0F29EAA6A040EA96E40C034
:101E0000A8FFA69CA69EA684550EA76EAA0EA76E36
:101E1000A682A6B2FED7A6940050F212F2CF00F02E
:101E2000F29EAA6A050EA96E41C0A8FFA69CA69EB6
:101E3000A684550EA76EAA0EA76EA682A6B2FED7DE
:101E4000A6940050F212F2CF00F0F29EAA6A060E9B
:101E5000A96E44C0A8FFA69CA69EA684550EA76E98
:101E6000AA0EA76EA682A6B2FED7A6940050F212C2
:081E70000001BAEF0AF00300C3
:020000040030CA
:0E00000000E81E3C00BF81000FC00FE00F4063
:00000001FF
;PIC18F46K22
;CRC=9474  CREATED="02-Eyl-22 18:00"
