:0400000064EF05F0B4
:08000800046ED8CF05F0E0CF33
:1000100006F00001E9CF0CF0EACF07F0E1CF08F0DD
:10002000E2CF09F0D9CF0AF0DACF0BF0F3CF12F01C
:10003000F4CF13F0FACF14F0F5CF15F0F6CF16F099
:10004000F7CF17F000C00EF001C00FF002C010F0A3
:1000500003C011F09DAA30EF00F09EBAAAEF00F0A5
:100060000EC000F00FC001F010C002F011C003F08C
:100070000CC0E9FF07C0EAFF078E08C0E1FF09C016
:10008000E2FF0AC0D9FF0BC0DAFF12C0F3FF13C0B2
:10009000F4FF14C0FAFF15C0F5FF16C0F6FF17C035
:1000A000F7FF045006C0E0FF05C0D8FF1000F76A54
:1000B000BE0FF66E000EF7220900F5501200280C54
:1000C0000106F76AD20FF66E000EF7220900F5500E
:1000D000120000001010101010000000141414146E
:1000E0001400000015151515150000000000000093
:1000F000000001010101010101011F050A0A0E0EA4
:100100000E1F10101010101010100900F6CF71F013
:10011000F7CF72F0F5509EA8FED7AD6E71C0F6FF16
:1001200072C0F7FF702EF1D7C5EF00F0EF5210E06C
:10013000EACF71F0E9CF70F0EF509EA8FED7AD6E18
:1001400071C0EAFF70C0E9FFE92AD8B4EA2AEED705
:10015000C9EF00F09EAAFED7AECF2BF0036A345051
:100160002C0FE96E000E0320EA6E2BC0EFFF342A3D
:100170002B5021080EE1346A010E356E9A0EF66E90
:10018000010EF76E060E706EC0D7EA6A2BC0E9FF4B
:10019000CDD79D9A9E9A30EF00F0646174613A2049
:1001A00025730000202020202020486F6D696E6795
:1001B0002E2E2E2020200000202020202020202055
:1001C000202020202020202020202020202020004F
:1001D00053706565643A202500003C4D616E75657D
:1001E0006C3E00003C204175746F203E000041636E
:1001F00063656C3A202500002500202020200000A7
:1002000025002500250020202020000025002500B5
:1002100025002500250025003C204175746F203EF7
:100220000000EA6A670EE96EEF500DE0020E016E03
:10023000006A002EFED7012EFBD7970E006E002E0F
:10024000FED7EF2EF3D712006EB002D0899801D0FE
:10025000898892986EB202D0899A01D0898A929A3E
:100260006EB402D08D9001D08D8096906EB602D083
:100270008D9201D08D82969200009296898600D050
:1002800000D09296899612006F6A9296898600D065
:1002900092886F9080B86F80928A6F9280BA6F82D6
:1002A00096806F9484B06F8496826F9684B26F86C6
:1002B0009296899600D06FC001F0120092948984C2
:1002C0000000E2DF01C06EF0DFDF01C06DF06E38CC
:1002D000006EF00E001600506D10016E73EF01F00D
:1002E00092928992EBD701C06DF001BEFBD76B52A1
:1002F00003E09292898202D09292899200009294B5
:1003000089940000929689966C386D6E0F0E6D166A
:100310006DC06EF099DF6C500F0B6D6E6E6E94DFDA
:100320001200010E1F6E9292899292948994929675
:100330008996230E676E75DF5F6A5F50020808E3D7
:10034000030E6E6E81DF050E676E6BDF5F2AF5D7D9
:10035000020E6E6E79DF5F6A5F50030809E3036A7D
:100360005F50A5DE606E6B6A6C6EBADF5F2AF4D7F1
:10037000ABEF05F06B6A400E6C6EB2DF5F6A5F50E8
:1003800037080BE3036A5F509CDE606E010E6B6EF4
:1003900060C06CF0A5DF5F2AF2D76B6A800E6C6ECE
:1003A0009FDFACEF05F0D650D7CF03F0F2A40CD00E
:1003B000010E1926D8B01A2AD8B41B2AD8B41C2A80
:1003C000F294D650D7CF03F0006E03C001F019C0ED
:1003D00002F01AC003F01B50E8320332023201323D
:1003E000003212006850010A07E0030A07E0010A20
:1003F00008E0070A09E00BD0696A0AD0400E696E6E
:1004000007D0140E696E04D0540E696E01D0696A6B
:10041000010E675C6926695080096A6E6B6A6C6EB2
:100420005FDF120066500C0A05E0060A0DE0020AC2
:1004300012E016D06B6A010E6C6E52DF010E1F6E59
:10044000020E676EEEDE11D01F2A010E676E1FC00E
:1004500068F0C8DF0AD06B6A100E6C6E41DF05D001
:10046000010E6B6E66C06CF03BDF12000900F552A6
:100470000CE0F6CF60F0F7CF61F0F5CF66F0D2DF99
:1004800060C0F6FF61C0F7FFF1D712006750016A44
:10049000665C03E266C000F00CD0006A080E686E6D
:1004A000663600366750005CD8B0006E0136682EA4
:1004B000F7D71200200E61A8300E626E60C000F007
:1004C00060AE08D0001E002A00C060F02D0E626EE3
:1004D000618E6180015060C066F0640E676ED6DF89
:1004E00000C060F0300E0124636E60C066F00A0E3A
:1004F000676ECCDF300E0024656E300E0124646E12
:1005000062C000F0300E635C04E0618261BE618411
:1005100012D062C063F0200E626E300E645C04E0A4
:10052000618061BE618207D0D8A4618004E163C0AC
:1005300064F0200E636E61B405D061B206D061B084
:1005400007D009D062C066F06DDF63C066F06ADF75
:1005500064C066F067DF65C066F064DF12008E0E6F
:10056000006E60C001F05FC002F0036A015209E151
:1005700002C001F0026A080E005E015202E1006A48
:1005800008D0D89001BE04D0023601360006F9D753
:10059000019E00EF03F02C5073082EE1356A2D50B8
:1005A000390802E1050E246E2D50380802E1050ECF
:1005B000246E2D50370802E1060E246E2D503608A9
:1005C00002E1070E246E2D50350802E1080E246E5C
:1005D0002D50340802E1090E246E2D50330802E13B
:1005E0000A0E246E2D50320802E10B0E246E2D509F
:1005F000310802E10C0E246E606A24C05FF0AFD7B0
:1006000012008E0E006E5F50005E60C002F061C08E
:1006100001F0028E005209E0D890025202E101522C
:1006200004E002320132002EF7D760AE05D0011E81
:10063000021E012AD8B4022A1200420E006E002EB9
:10064000FED70000420E006E002EFED70000420EC4
:10065000006E002EFED70000666A0A0ED880655430
:10066000665C07E2310E006E002EFED700D0662ACF
:10067000F4D7120095948C8493928A9293908A90E6
:10068000949A8B9A64C065F0D8DF95948C84939289
:100690008A9293908A80949A8B9A64C065F0CDDF99
:1006A00095948C9493928A9293908A80949A8B9A40
:1006B00064C065F0C2DF95948C9493928A82939083
:1006C0008A80949A8B9A64C065F0B7DF95948C9475
:1006D00093928A8293908A90949A8B9A64C065F0E0
:1006E000ACDF95948C9493928A8293908A90949A9A
:1006F0008B8A64C065F0A1DF95948C9493928A9262
:1007000093908A90949A8B8A64C065F096DF959452
:100710008C8493928A9293908A90949A8B8A64C0E4
:1007200065F08BDF1200958C83AC03D0010E386E20
:1007300001D0386A38C001F0120095948C949392DD
:100740008A9293908A90949A8B9A010E676E69DDD3
:10075000120095948C8493928A9293908A90949AA2
:100760008B8A64C065F069DF95948C9493928A9229
:1007700093908A90949A8B8A64C065F05EDF95941A
:100780008C9493928A8293908A90949A8B8A64C074
:1007900065F053DF95948C9493928A8293908A901B
:1007A000949A8B9A64C065F048DF95948C949392E8
:1007B0008A8293908A80949A8B9A64C065F03DDF18
:1007C00095948C9493928A9293908A80949A8B9A1F
:1007D00064C065F032DF95948C8493928A929390F2
:1007E0008A80949A8B9A64C065F027DF95948C84F4
:1007F00093928A9293908A90949A8B9A64C065F0AF
:100800001CDF1200958E83AE03D0010E386E01D02E
:10081000386A38C001F012003A6A396A010E676E10
:10082000040E686EDFDDA40EF66E010EF76E1EDE9E
:10083000E9DF015205E081DF95988C78356A11D0A7
:100840009582000E83B2010E616E9486000E82B610
:10085000010E611002E071DF8ED05FC064F079DFBD
:10086000E7D7A1DD03C03EF002C03DF001C03CF07F
:1008700000C03BF058DF015203E05FDF356A14D05F
:100880009582000E83B2010E616E9486000E82B6D0
:10089000010E611002E051DF6ED0392AD8B43A2A35
:1008A0005FC064F0E7DEE6D77EDD03C042F002C041
:1008B00041F001C040F000C03FF075DD03C046F0DC
:1008C00002C045F001C044F000C043F03F50435C1B
:1008D000606E40504458616E41504558626E4250BF
:1008E0004658636E3B503F5C646E3C504058656EAA
:1008F0003D504158666E3E504258676ED890673002
:10090000036E6630026E6530016E6430006E6350B7
:10091000035C26E30BE16250025C22E307E16150D5
:10092000015C1EE303E16050005C1AE33CDD03C0A0
:1009300046F002C045F001C044F000C043F095828B
:10094000000E83B2010E616E9486000E82B6010E17
:10095000611002E0F2DE0FD05FC064F0FADEB6D7BD
:10096000ECDE010E676E040E686E3CDDB80EF66EAE
:10097000010EF76E7BDDCDEF0BF0010E5F6E9598EB
:100980008C785F2C33D00A0ED8802554245C276ED7
:10099000606A0A0ED8802554605C26E2616A26509F
:1009A000615C1EE29582000E83B2010E656E948634
:1009B000000E82B6010E65129484000E82B4010E00
:1009C000651002E0BADE7ED01DDF015204E0010EA8
:1009D0005F6EB3DE05D027C064F0BBDE612ADFD7CF
:1009E000010E2726602AD5D75F6ACBD70BDF0152CD
:1009F00007E0A3DE95988C78010E5F6E356A16D0FD
:100A00009482000E82B2010E656E9582000E83B252
:100A1000010E65129486000E82B6010E651002E08A
:100A20008CDE50D024C064F094DEABD75F2C2BD08A
:100A30000A0ED8802554245C276E626A0A0ED8807C
:100A40002554625C1EE2636A2650635C16E295825E
:100A500083A202D072DE36D0948682A602D06DDEEA
:100A600031D061DE015204E0010E5F6E66DE05D01A
:100A700027C064F0FFDD632AE7D7010E2726622A2C
:100A8000DDD75F6AD3D74FDE015205E056DE010E97
:100A90005F6E356A16D09482000E82B2010E656ECA
:100AA0009582000E83B2010E65129486000E82B606
:100AB000010E651002E041DE05D024C064F0DADDED
:100AC000B5D75FD7DAEF0BF0F86AD09E078E700EBD
:100AD000D36E9B6AD3501C6A1B6A1A6A196AD59E28
:100AE000860ED56ED76AD66AF294B8960C0EAF6EA3
:100AF000A20EAC6E900EAB6E00000000050E246ED0
:100B0000060E256E1E0E266E276A286A010E296EB5
:100B1000010E2A6E346A356A366A376A386A3A6A6A
:100B2000396A486A476AC150C00B0F09C16E070E87
:100B3000B46E1D6A1E6AC150C00B0E09C16EC05052
:100B4000C00B0709C06EC08EC280F00EBD16C00E6D
:100B5000F21291EF01F00ED426DC03C046F002C081
:100B600045F001C044F000C043F046C03EF045C02F
:100B70003DF044C03CF043C03BF03EC042F03DC0BD
:100B800041F03CC040F03BC03FF09D8A95988C7886
:100B9000010E676E686E26DC010E676E686E22DCE1
:100BA000D00EF66E010EF76E61DC24500A0DF3CF05
:100BB00060F0180E616E7EDC0D0E676E010E686EC1
:100BC00011DC292C05D0DA0EF66E010EF76E4EDC24
:100BD000282C05D0E40EF66E010EF76E47DC010EF0
:100BE000676E020E686EF2EC01F0EE0EF66E010E0C
:100BF000F76E3CDC25500A0DF3CF60F0180E616EE5
:100C000059DC948282A246D2948282B2FDD7010E30
:100C1000496E4A6AD3EC01F003C03EF002C03DF0D9
:100C200001C03CF000C03BF0020E5F6EFA0E676E32
:100C300011EC01F05F2EFAD7492CD5D0D3EC01F09E
:100C400003C046F002C045F001C044F000C043F0CC
:100C50003B50435C5F6E3C504458606E3D5045587D
:100C6000616E3E504658626E62520CE161520AE17A
:100C70006050080805E2FF0A05E15F50C40802E37E
:100C8000000E01D0010E5F6E4A2C01D002D0000E82
:100C900001D0010E5F141DE0080E676E49C068F0B8
:100CA000F2EC01F0F80EF66E010EF76E36EC02F083
:100CB00024500A0DF3CF60F0180E616E5AEC02F06A
:100CC0004A6A46C03EF045C03DF044C03CF043C0D7
:100CD0003BF03B50435C5F6E3C504458606E3D506F
:100CE0004558616E3E504658626E62520CE1615248
:100CF0000AE16050080805E2FF0A05E15F50C408F8
:100D000002E3000E01D0010E5F6E4A5202E0000EB7
:100D100001D0010E5F1416E0080E676E49C068F03E
:100D2000F2EC01F0FA0EF66E010EF76E36EC02F000
:100D3000010E4A6E46C03EF045C03DF044C03CF056
:100D400043C03BF0958283A225D02406245202E1C1
:100D5000010E246E080E676E49C068F0F2EC01F0D7
:100D6000000EF66E020EF76E36EC02F024500A0DFD
:100D7000F3CF60F0180E616E5AEC02F0200E666E32
:100D800012EC02F0020E5F6EFA0E676E11EC01F0CB
:100D90005F2EFAD7948682A626D0242A24500908EA
:100DA00002E20A0E246E080E676E49C068F0F2EC8B
:100DB00001F0020EF66E020EF76E36EC02F02450D1
:100DC0000A0DF3CF60F0180E616E5AEC02F0200E9F
:100DD000666E12EC02F0020E5F6EFA0E676E11EC98
:100DE00001F05F2EFAD749500208D8A4D5D0D3EC31
:100DF00001F003C046F002C045F001C044F000C05D
:100E000043F03B50435C5F6E3C504458606E3D5035
:100E10004558616E3E504658626E62520CE1615216
:100E20000AE16050080805E2FF0A05E15F50C408C6
:100E300002E3000E01D0010E5F6E4A2C01D002D0F9
:100E4000000E01D0010E5F141DE0080E676E49C050
:100E500068F0F2EC01F0040EF66E020EF76E36EC5E
:100E600002F025500A0DF3CF60F0180E616E5AECB7
:100E700002F04A6A46C03EF045C03DF044C03CF036
:100E800043C03BF03B50435C5F6E3C504458606E47
:100E90003D504558616E3E504658626E62520CE1BC
:100EA00061520AE16050080805E2FF0A05E15F505F
:100EB000C40802E3000E01D0010E5F6E4A5202E048
:100EC000000E01D0010E5F1416E0080E676E49C0D7
:100ED00068F0F2EC01F0060EF66E020EF76E36ECDC
:100EE00002F0010E4A6E46C03EF045C03DF044C0DF
:100EF0003CF043C03BF0958283A225D025062552C5
:100F000002E1010E256E080E676E49C068F0F2EC32
:100F100001F00C0EF66E020EF76E36EC02F0255064
:100F20000A0DF3CF60F0180E616E5AEC02F0200E3D
:100F3000666E12EC02F0020E5F6EFA0E676E11EC36
:100F400001F05F2EFAD7948682A626D0252A255056
:100F50000A0802E20A0E256E080E676E49C068F0A4
:100F6000F2EC01F00E0EF66E020EF76E36EC02F0A9
:100F700025500A0DF3CF60F0180E616E5AEC02F0A6
:100F8000200E666E12EC02F0020E5F6EFA0E676EB5
:100F900011EC01F05F2EFAD7948482A435D0080EAC
:100FA000676E010E686EF2EC01F0100EF66E020E26
:100FB000F76E36EC02F024500A0DF3CF60F0180EF5
:100FC000616E5AEC02F0080E676E020E686EF2EC6B
:100FD00001F0120EF66E020EF76E36EC02F025509E
:100FE0000A0DF3CF60F0180E616E5AEC02F049065C
:100FF000495202E1020E496E020E5F6EFA0E676EF2
:1010000011EC01F05F2EFAD7958083A036D0080E40
:10101000676E010E686EF2EC01F0140EF66E020EB1
:10102000F76E36EC02F024500A0DF3CF60F0180E84
:10103000616E5AEC02F0080E676E020E686EF2ECFA
:1010400001F0160EF66E020EF76E36EC02F0255029
:101050000A0DF3CF60F0180E616E5AEC02F0492AC7
:101060004950020802E2010E496E020E5F6EFA0E4E
:10107000676E11EC01F05F2EFAD7948282A209D03C
:10108000020E5F6EFA0E676E11EC01F05F2EFAD75A
:1010900001D0D2D5352CF2D0CBEC02F02C50720816
:1010A000D8A474D02D50300828E195988C784B6ADC
:1010B0004B5031081DE39D8ACBEC02F003C062F077
:1010C00002C061F001C060F000C05FF001EC03F00D
:1010D00001C05FF001C064F03AEC03F093EC03F060
:1010E000015204E09DEC03F0356A02D04B2AE0D7B0
:1010F00095988C789DEC03F0356A2D50310846E1C7
:1011000095988C782C50720802E0000E01D0010EE8
:101110005F6E2D50310802E0000E01D0010E5F1607
:101120002C50730802E0000E01D0010E5F102EE07B
:101130009D8ACBEC02F003C062F002C061F001C0F6
:1011400060F000C05FF001EC03F001C05FF001C08F
:1011500064F03AEC03F093EC03F0015204E09DECF0
:1011600003F0356A13D02C50730802E1000E01D051
:10117000010E5F6E000E9EBA010E5F1406E0959898
:101180008C789DEC03F0356A01D0BCD72C506C08EC
:10119000D8A474D02D50300828E195988C784C6AEA
:1011A0004C5031081DE39D8ACBEC02F003C062F085
:1011B00002C061F001C060F000C05FF001EC03F01C
:1011C00001C05FF001C064F0A9EC03F002EC04F090
:1011D000015204E09DEC03F0356A02D04C2AE0D7BE
:1011E00095988C789DEC03F0356A2D50310846E1D6
:1011F00095988C782C506C0802E0000E01D0010EFE
:101200005F6E2D50310802E0000E01D0010E5F1616
:101210002C50730802E0000E01D0010E5F102EE08A
:101220009D8ACBEC02F003C062F002C061F001C005
:1012300060F000C05FF001EC03F001C05FF001C09E
:1012400064F0A9EC03F002EC04F0015204E0356A0A
:101250009DEC03F013D02C50730802E1000E01D076
:10126000010E5F6E000E9EBA010E5F1406E09598A7
:101270008C789DEC03F0356A01D0BCD7958A83AA9F
:1012800084D0010E4D6E4E6A020E5F6EFA0E676ECE
:1012900011EC01F05F2EFAD72A2C6FD02A6A010ECA
:1012A000286E296A0D0E676E010E686EF2EC01F071
:1012B000180EF66E020EF76E36EC02F04D2C37D09B
:1012C0000A0ED8802554245C276E4F6A0A0ED880F7
:1012D00025544F5C2AE24E2C01D027D0506A26506C
:1012E000505C1FE29582000E83B2010E606E948600
:1012F000000E82B6010E601005E09DEC03F0010EB9
:101300004E6E0FD093EC03F0015205E09DEC03F01C
:10131000010E4E6E06D027C064F03AEC03F0502A5E
:10132000DED7010E27264F2AD1D74D6AC7D793ECB7
:1013300003F0015204E09DEC03F0356A1DD024C097
:1013400064F03AEC03F09580000E83B0010E606EFD
:101350009486000E82B6010E60129486000E82B64C
:10136000010E60129484000E82B4010E601003E03E
:101370009DEC03F001D0A2D708D02A5205E1010E5E
:101380002A6E286A296E01D079D7010E516E526AF1
:101390009582000E83B2010E606E292C01D002D01E
:1013A000000E01D0010E601457E093EC03F00152DF
:1013B00004E09DEC03F0356A4FD0512C37D00A0E73
:1013C000D8802554245C276E536A0A0ED880255491
:1013D000535C2AE2522C01D027D0546A2650545C28
:1013E0001FE29582000E83A2010E606E9486000EAD
:1013F00082B6010E601005E09DEC03F0010E526E06
:101400000FD093EC03F0015205E09DEC03F0010EC8
:10141000526E06D027C064F03AEC03F0542ADED7AF
:10142000010E2726532AD1D7516AC7D7948682A6A0
:1014300003D09DEC03F010D0522C07D0525202E0A2
:10144000000E01D0010E526E07D024C064F03AECB9
:1014500003F0010E366E9CD79486000E82B6010E04
:10146000606E292C01D002D0000E01D0010E601454
:1014700057E002EC04F0015204E09DEC03F0356A01
:101480004FD0512C37D00A0ED8802554245C276EBB
:10149000556A0A0ED8802554555C2AE2522C01D098
:1014A00027D0566A2650565C1FE2948682B605D035
:1014B0009DEC03F0010E526E17D0958283A205D0E9
:1014C0009DEC03F0010E526E0FD002EC04F00152BD
:1014D00005E09DEC03F0010E526E06D027C064F0CB
:1014E000A9EC03F0562ADED7010E2726552AD1D7BC
:1014F000516AC7D7958283A203D09DEC03F010D028
:10150000522C07D0525202E0000E01D0010E526E52
:1015100007D024C064F0A9EC03F0010E376E9CD70D
:10152000372C25D0576A0A0ED8802554575C1BE209
:10153000586A2650585C06E227C064F0A9EC03F014
:10154000582AF7D7010E275E958283A203D09DEC1F
:1015500003F009D002EC04F0015203E09DEC03F02B
:1015600002D0572AE0D7376A9DEC03F0D9D7362C42
:1015700025D0596A0A0ED8802554595C1BE25A6A54
:1015800026505A5C06E227C064F03AEC03F05A2A6F
:10159000F7D7010E275E948682A603D09DEC03F058
:1015A00009D093EC03F0015203E09DEC03F002D06C
:1015B000592AE0D7366A9DEC03F0D9D79DEC03F0A9
:1015C0009582000E83B2010E606E282C01D002D0ED
:1015D000000E01D0010E601462E0010E516E526ADD
:1015E000020E5F6EFA0E676E11EC01F05F2EFAD7F5
:1015F000512C37D00A0ED8802554245C276E5B6AA4
:101600000A0ED88025545B5C2AE2522C01D027D0E8
:101610005C6A26505C5C1FE29582000E83B2010E6C
:10162000606E9486000E82B6010E601005E09DEC9F
:1016300003F0010E526E0FD093EC03F0015205E05F
:101640009DEC03F0010E526E06D027C064F03AEC18
:1016500003F05C2ADED7010E27265B2AD1D7516A18
:10166000C7D793EC03F0015204E09DEC03F0356A18
:1016700016D024C064F03AEC03F09580000E83B0DD
:10168000010E606E9486000E82B6010E6012948484
:10169000000E82B4010E601001E001D0A9D794863B
:1016A000000E82B6010E606E282C01D002D0000E12
:1016B00001D0010E601462E0010E516E526A020EFA
:1016C0005F6EFA0E676E11EC01F05F2EFAD7512CA7
:1016D00037D00A0ED8802554245C276E5D6A0A0E26
:1016E000D88025545D5C2AE2522C01D027D05E6A56
:1016F00026505E5C1FE29582000E83B2010E606E82
:101700009486000E82B6010E601005E09DEC03F099
:10171000010E526E0FD002EC04F0015205E09DEC78
:1017200003F0010E526E06D027C064F0A9EC03F05E
:101730005E2ADED7010E27265D2AD1D7516AC7D788
:1017400002EC04F0015204E09DEC03F0356A16D07F
:1017500024C064F0A9EC03F09580000E83B0010E64
:10176000606E9582000E83B2010E60129484000EAA
:1017700082B4010E601001E001D0A9D7958083A04A
:101780000CD0020E5F6EFA0E676E11EC01F05F2E48
:10179000FAD7060E5F6E0CEF04F0948482A40AD090
:1017A000020E5F6EFA0E676E11EC01F05F2EFAD733
:0A17B000BDEF04F0C5EF05F00300E3
:020000040030CA
:0E00000000C1191E008781000FC00FE00F40E5
:00000001FF
;PIC18F4520
;CRC=911F  CREATED="22-Aðu-22 12:14"
