:0400000058EF08F0BD
:08000800046ED8CF05F0E0CF33
:1000100006F00001E9CF0CF0EACF07F0E1CF08F0DD
:10002000E2CF09F0D9CF0AF0DACF0BF0F3CF12F01C
:10003000F4CF13F0FACF14F0F5CF15F0F6CF16F099
:10004000F7CF17F000C00EF001C00FF002C010F0A3
:1000500003C011F09DA030EF00F09EB019EF01F049
:100060009DAA36EF00F09EBAA6EF00F0A0A43CEFE8
:1000700000F0A1B4EBEF01F00EC000F00FC001F0F2
:1000800010C002F011C003F00CC0E9FF07C0EAFF86
:10009000078E08C0E1FF09C0E2FF0AC0D9FF0BC00C
:1000A000DAFF12C0F3FF13C0F4FF14C0FAFF15C04B
:1000B000F5FF16C0F6FF17C0F7FF045006C0E0FFBB
:1000C00005C0D8FF1000F76AD60FF66E000EF722B3
:1000D0000900F5501200280C0106F76AEA0FF66EC7
:1000E000000EF7220900F550120000001515151535
:1000F00015001F1F1F1F1F1F1F1F1F11111111117F
:10010000111F0900F6CF78F0F7CF79F0F5509EA8CF
:10011000FED7AD6E78C0F6FF79C0F7FF772EF1D726
:10012000C1EF00F0EF5210E0EACF78F0E9CF77F0BE
:10013000EF509EA8FED7AD6E78C0EAFF77C0E9FF0A
:10014000E92AD8B4EA2AEED7C5EF00F09EAAFED776
:10015000AECF28F0036A3150290FE96E000E03205C
:10016000EA6E28C0EFFF312A285021080EE1316ADB
:10017000010E326E920EF66E010EF76E060E776E5F
:10018000C0D7EA6A28C0E9FFCDD79D9A9E9A3CEF76
:1001900000F0646174613A202573000020002000A3
:1001A0002000202000002020202020486F6D696E54
:1001B000672E2E2E2020202000000C00636F756E0D
:1001C000743A20254C750000420E006E002EFED7BA
:1001D0000000420E006E002EFED70000420E006EA0
:1001E000002EFED70000420E006E002EFED700004B
:1001F000420E006E002EFED70000530E006E002E41
:10020000FED7420E006E002EFED70000420E006E9A
:10021000002EFED70000786A0A0ED8807754785CEA
:1002200007E2420E006E002EFED70000782AF4D7B7
:100230001200485266E121C077F0C6DF95948C84A5
:1002400093928A9293908A90949A8B8A21C077F0A5
:10025000BBDF95948C9493928A9293908A90949A0F
:100260008B8A21C077F0B0DF95948C9493928A8228
:1002700093908A90949A8B8A21C077F0A5DF959409
:100280008C9493928A8293908A90949A8B9A21C0AC
:1002900077F09ADF95948C9493928A8293908A80D7
:1002A000949A8B9A21C077F08FDF95948C949392D7
:1002B0008A9293908A80949A8B9A21C077F084DFF7
:1002C00095948C8493928A9293908A80949A8B9A34
:1002D00021C077F079DF95948C8493928A929390E1
:1002E0008A90949A8B9A3E2AD8B43F2A3A503F5C1F
:1002F00008E303E13E50395C04E23AC03FF039C004
:100300003EF0482C61D021C077F05EDF95948C845C
:1003100093928A9293908A90949A8B9A21C077F0C4
:1003200053DF95948C8493928A9293908A80949AC6
:100330008B9A21C077F048DF95948C9493928A929F
:1003400093908A80949A8B9A21C077F03DDF9594A0
:100350008C9493928A8293908A80949A8B9A21C0EB
:1003600077F032DF95948C9493928A8293908A905E
:10037000949A8B9A21C077F027DF95948C9493926E
:100380008A8293908A90949A8B8A21C077F01CDF9E
:1003900095948C9493928A9293908A90949A8B8A53
:1003A00021C077F011DF95948C8493928A92939078
:1003B0008A90949A8B8A3E50D8B43F063E063D52AE
:1003C00003E0392AD8B43A2ACF68D00ECE6E9E9078
:1003D0009E903CEF00F09D909D9AF250006EF29E30
:1003E000010EA96E20C0A8FFA69CA69EA6840F01A0
:1003F000550EA76EAA0EA76EA682A6B2FED7A69429
:100400000050F212F2CF00F0F29E020EA96E22C04E
:10041000A8FFA69CA69EA684550EA76EAA0EA76E40
:10042000A682A6B2FED7A6940050F212F2CF00F038
:10043000F29E030EA96E38C0A8FFA69CA69EA684B5
:10044000550EA76EAA0EA76EA682A6B2FED7A694D8
:100450000050F2123EC040F03FC041F0F2CF00F039
:10046000F29E040EA96E40C0A8FFA69CA69EA6847C
:10047000550EA76EAA0EA76EA682A6B2FED7A694A8
:100480000050F212F2CF00F0F29E050EA96E41C0AC
:10049000A8FFA69CA69EA684550EA76EAA0EA76EC0
:1004A000A682A6B2FED7A6940050F212F2CF00F0B8
:1004B000F29E060EA96E44C0A8FFA69CA69EA68426
:1004C000550EA76EAA0EA76EA682A6B2FED7A69458
:1004D0000050F21239C03BF03AC03CF0F2CF00F0CD
:1004E000F29E070EA96E3BC0A8FFA69CA69EA684FE
:1004F000550EA76EAA0EA76EA682A6B2FED7A69428
:100500000050F212F2CF00F0F29E080EA96E3CC02D
:10051000A8FFA69CA69EA684550EA76EAA0EA76E3F
:10052000A682A6B2FED7A6940050F212F2CF00F037
:10053000F29E090EA96E42C0A8FFA69CA69EA684A4
:10054000550EA76EAA0EA76EA682A6B2FED7A694D7
:100550000050F212F2CF00F0F29E0A0EA96E37C0E0
:10056000A8FFA69CA69EA684550EA76EAA0EA76EEF
:10057000A682A6B2FED7A6940050F212F2CF00F0E7
:10058000F29E0B0EA96E36C0A8FFA69CA69EA6845E
:10059000550EA76EAA0EA76EA682A6B2FED7A69487
:1005A0000050F212939E8A8E939E8A9E939E8A8E0C
:1005B000939E8A9E939E8A8E939E8A9E939E8A8EF7
:1005C000939E8A9EA094A19400013CEF00F04565A3
:1005D00070726F6D204661696C0043656E7465656D
:1005E000204D616368696E65000053706565643A0B
:1005F000202500003C4D616E75656C3E00003C207E
:100600004175746F203E0000416363656C3A20259C
:10061000000043656E746572204D616368696E65A4
:1006200000002500202020200000250025002500B6
:100630002020202000002500250025002500250081
:1006400025003C204175746F203E0000EA6A6E0E62
:10065000E96EEF500DE0060E016E006A002EFED727
:10066000012EFBD77B0E006E002EFED7EF2EF3D7A8
:10067000120075B002D0899801D08988929875B21D
:1006800002D0899A01D0898A929A75B402D08D904D
:1006900001D08D80969075B602D08D9201D08D825A
:1006A0009692000092968986030E006E002EFED769
:1006B000929689961200766A9296898600D000D02A
:1006C00000009288769080B87680928A769280BA7E
:1006D00076829680769484B076849682769684B27A
:1006E00076869296899600D000D0000076C001F000
:1006F0001200929489840000DEDF01C075F0DBDF18
:1007000001C074F07538006EF00E001600507410C1
:10071000016E8EEF03F092928992EBD701C074F0D4
:1007200001BEFBD7725203E09292898202D092926C
:100730008992000092948994000092968996733869
:10074000746E0F0E741674C075F093DF73500F0B38
:10075000746E756E8EDF1200010E1F6E929289927A
:100760009294899492968996230E6E6E6FDF626AD8
:100770006250020808E3030E756E7BDF050E6E6E95
:1007800065DF622AF5D7020E756E73DF626A62500A
:10079000030809E3036A625096DC636E726A736E43
:1007A000BADF622AF4D7ACEF08F0726A400E736EBB
:1007B000B2DF626A625017080BE3036A62508DDC95
:1007C000636E010E726E63C073F0A5DF622AF2D70A
:1007D000726A800E736E9FDFAEEF08F0D650D7CFEF
:1007E00003F0F2A40CD0010E1926D8B01A2AD8B4FE
:1007F0001B2AD8B41C2AF294D650D7CF03F0006E2F
:1008000003C001F019C002F01AC003F01B50E83217
:10081000033202320132003212006F50010A07E047
:10082000030A07E0010A08E0070A09E00BD0706A32
:100830000AD0400E706E07D0140E706E04D0540EA5
:10084000706E01D0706A010E6E5C70267050800967
:10085000716E726A736E5FDF12006D500C0A05E0F4
:10086000060A0DE0020A12E016D0726A010E736EDB
:1008700052DF010E1F6E020E6E6EE8DE11D01F2ACF
:10088000010E6E6E1FC06FF0C8DF0AD0726A100EC4
:10089000736E41DF05D0010E726E6DC073F03BDFE9
:1008A00012000900F5520CE0F6CF65F0F7CF66F0C4
:1008B000F5CF6DF0D2DF65C0F6FF66C0F7FFF1D768
:1008C0001200EACF6CF0E9CF6BF06538F009676E83
:1008D0006726E20F686E320F6A6E65500F0B68264E
:1008E00068266A26E90F696E6926692664380F0B47
:1008F00069266A2669366A366A1E6A3664500F0BA4
:100900006A266736070E666E0A0E69066A26FDE3DA
:1009100068066926FDE367066826FDE36606672626
:10092000FDE3EA6A660EE96E070E6B146B9CE9261E
:10093000000EEA22E9506A0803E1EA5201E16B8CF9
:10094000EF50006E08E16BBC06D06BB813D06BB6ED
:1009500002D0200E03D06B866B98300E0026EACFB3
:1009600065F0E9CF64F000C06DF077DF65C0EAFFA5
:1009700064C0E9FFEE506BACDDD712006A50016A2B
:10098000695C03E269C000F00CD0006A080E6B6E6F
:10099000693600366A50005CD8B0006E01366B2EA6
:1009A000F7D71200200E64A8300E656E63C000F009
:1009B00063AE08D0001E002A00C063F02D0E656EE5
:1009C000648E6480015063C069F0640E6A6ED6DF85
:1009D00000C063F0300E0124666E63C069F00A0E39
:1009E0006A6ECCDF300E0024686E300E0124676E14
:1009F00065C000F0300E665C04E0648264BE64840E
:100A000012D065C066F0200E656E300E675C04E0A3
:100A1000648064BE648207D0D8A4648004E166C0A8
:100A200067F0200E666E64B405D064B206D064B080
:100A300007D009D065C06DF010DF66C06DF00DDF26
:100A400067C06DF00ADF68C06DF007DF120001506B
:100A500063C069F0640E6A6E91DF00C063F00150FC
:100A6000300E07E164A20CD064B60AD064B8200E40
:100A700003D0649664986480012601C06DF0EDDEB9
:100A800063C069F00A0E6A6E79DF00C063F001503E
:100A9000300E06E164B608D064A006D064B8200E1B
:100AA000012601C06DF0D9DE300E632663C06DF003
:100AB000D4DE120095948C9493928A9293908A90AB
:100AC000949A8B9A1200958C83AC19D0010E356ED6
:100AD000375214E1010E6E6E040E6F6E9EDE010E33
:100AE0006D6EBBDE020E6E6E040E6F6E96DE9C0E99
:100AF000F66E010EF76ED5DE010E376E0CD0356A3C
:100B0000365209E0140E6E6E040E6F6E86DE020E13
:100B10006D6EA3DE366A35C001F01200016A026A0A
:100B2000006A036A675002E1665018E0100E686EB2
:100B3000D89064366536003603366750035C02E1B0
:100B40006650005C07E36650005ED8A0030667505D
:100B5000035ED88001360236682EEAD712003F5273
:100B600007E144503E5C04E2010E445C3E6E3F6A85
:100B70003FC065F03EC064F0676A44C066F0CEDFF7
:100B800000C064F003C065F0645202E1655202E007
:100B9000000E01D0010E3814646E3F5203E13E5046
:100BA000445C02E2000E01D0010E64104BE03FC035
:100BB00065F03EC064F0676A44C066F0AFDF01C014
:100BC00042F04250120802E2130E426E42500108F7
:100BD00002E3020E426E4350425C2BE24250120886
:100BE0000DE1130E6E6E040E6F6E17DE9E0EF66E26
:100BF000010EF76E56DE42C043F024D0422C0DD0D9
:100C0000020E6E6E040E6F6E08DEA00EF66E010E02
:100C1000F76E47DE42C043F015D0010E4224646EE9
:100C20006E6E040E6F6EF9DDA20EF66E010EF76E9B
:100C300038DE42C06EF0040E6F6EEFDD6D6A0DDEC1
:100C400042C043F01200010E486E9D8088DF9D90E7
:100C5000120095988C88452C31D00A0ED8802254E9
:100C6000205C246E626A0A0ED8802254625C20E204
:100C7000636A2350635C18E29582000E83A2010E22
:100C8000646E9486000E82B6010E64121CDF6450FE
:100C9000011005E00FDF476A47C001F011D024C002
:100CA00021F0D1DF632AE5D7010E2426622ADBD7A3
:100CB000456A010E476E016E03D0CDD795988C988A
:100CC00006EF0EF0958E83AE11D0010E356E3AC050
:100CD0003FF039C03EF0140E6E6E040E6F6E9DDD57
:100CE000010E6D6EBADD010E366E0CD0356A3752CC
:100CF00009E0010E6E6E040E6F6E8FDD020E6D6EDA
:100D0000ACDD376A35C001F01200486A9D8027DFEC
:100D10009D90120095988C88452C31D00A0ED88071
:100D20002254205C246E626A0A0ED8802254625CCF
:100D300020E2636A2350635C18E29486000E82A668
:100D4000010E646E9582000E83B2010E6412BADF4A
:100D50006450011005E0AEDE476A47C001F011D0D3
:100D600024C021F0D2DF632AE5D7010E2426622AAF
:100D7000DBD7456A010E476E016E03D0CDD795983B
:100D80008C9829EF0EF0452C31D00A0ED8802254D1
:100D9000205C246E626A0A0ED8802254625C20E2D3
:100DA000636A2350635C18E29582000E83B2010EE1
:100DB000646E9486000E82B6010E641284DE645066
:100DC000011005E077DE476A47C001F00FD024C06C
:100DD00021F039DF632AE5D7010E2426622ADBD70A
:100DE000456A010E476E016E01D0CDD79BEF0EF024
:100DF000452C31D00A0ED8802254205C246E626AC1
:100E00000A0ED8802254625C20E2636A2350635C3D
:100E100018E29582000E83B2010E656E9486000E74
:100E200082B6010E65124EDF6550011005E042DE0C
:100E3000476A47C001F00FD024C021F066DF632A63
:100E4000E5D7010E2426622ADBD7456A010E476EDC
:100E5000016E01D0CDD7D3EF0EF00900F6CF65F0CB
:100E6000F7CF66F0F5CF6DF0F8DC65C0F6FF66C031
:100E7000F7FF642EF2D70FEF08F0010E6E6E040E2E
:100E80006F6ECBDC020E6D6EE8DC140E6E6E040E1F
:100E90006F6EC3DC020E6D6EE0DC020E6E6E040E31
:100EA0006F6EBBDCA60EF66E010EF76EFADC060E58
:100EB000216E386A3A6A396A05DF015205E0FADDC7
:100EC00095988C78326A15D09582000E83B2010E07
:100ED000646E9486000E82B6010E641008E0EADDAE
:100EE000010E6E6E040E6F6E98DC386ADFD00DDF77
:100EF000E3D774DC03C04CF002C04BF001C04AF0F1
:100F000000C049F0010E3D6EDEDD015203E0D2DD8E
:100F1000326A15D09582000E83B2010E646E9486FB
:100F2000000E82B6010E641008E0C4DD010E6E6E84
:100F3000040E6F6E72DC386AB9D085DEE3D74EDC02
:100F400003C050F002C04FF001C04EF000C04DF0A1
:100F500045DC03C054F002C053F001C052F000C0A1
:100F600051F04D50515C646E4E505258656E4F506A
:100F70005358666E50505458676E49504D5C686EB9
:100F80004A504E58696E4B504F586A6E4C505058EC
:100F90006B6ED8906B30036E6A30026E6930016EF2
:100FA0006830006E6750035C28E30BE16650025C1A
:100FB00024E307E16550015C20E303E16450005C39
:100FC0001CE33D6A0BDC03C054F002C053F001C0C7
:100FD00052F000C051F09582000E83B2010E646E93
:100FE0009486000E82B6010E64126CDE645001100D
:100FF00002E060DD5BD089DEB4D75CDDBA0EF66E50
:10100000010EF76E4EDC010E6E6E030E6F6E05DC88
:10101000BC0EF66E010EF76E070E646E1ED7100E34
:10102000E96E3AC065F039C064F04BDCD8903A30D4
:101030003F6E39303E6E010E386E3D6A3AC065F043
:1010400039C064F0676A140E666E68DD01C044F052
:101050003FC065F03EC064F0676A44C066F05EDD84
:1010600001C042F0010E6E6E040E6F6E0DEC04F0C6
:10107000020E6D6E2DEC04F0140E6E6E040E6F6E8B
:101080000DEC04F0020E6D6E2DEC04F0020E636E9A
:1010900063500A080BE363C06EF0040E6F6E0DEC34
:1010A00004F06D6A2DEC04F0632AF2D701EF0FF023
:1010B000F86AD09E078E1C6A1B6A1A6A196AD59E46
:1010C000870ED56ED76AD66AF294B886080EAF6ED0
:1010D000020EB06EA60EAC6E900EAB6E000000005D
:1010E000050E206E216A060E226E1E0E236E246AE5
:1010F000256A010E266E276E316A326A336A346AB7
:10110000356A366E376E386A3A6839683D6A3F6EBE
:101110005E0E3E6E426A436A446A010E456E466A3E
:10112000476E486A566A556AC150C00B0F09C16EB6
:10113000070EB46E1D6A1E6AF00EBD169E901A0E42
:10114000D26EA084C00EF2129D90B50ECD6ECF6807
:10115000D00ECE6EACEF03F0D5EF03F0EEEC03F063
:1011600003C054F002C053F001C052F000C051F06F
:1011700054C04CF053C04BF052C04AF051C049F03B
:101180004CC050F04BC04FF04AC04EF049C04DF03B
:10119000F2CF62F0F29E010EA96EA69CA69EA680DA
:1011A000A85062BEF28EF2CF63F0F29E010EA96EDD
:1011B000A69CA69EA680A85063BEF28E0A0802E3F3
:1011C000000E01D0010E000AD8B4E5D0F250006E36
:1011D000F29E010EA96E050EA86EA69CA69EA68480
:1011E0000F01550EA76EAA0EA76EA682A6B2FED755
:1011F000A6940050F212F2CF00F0F29E020EA96EF9
:10120000060EA86EA69CA69EA684550EA76EAA0ED4
:10121000A76EA682A6B2FED7A6940050F212F2CF15
:1012200000F0F29E030EA96EA86AA69CA69EA68454
:10123000550EA76EAA0EA76EA682A6B2FED7A694DA
:101240000050F212F2CF00F0F29E040EA96E640E6E
:10125000A86EA69CA69EA684550EA76EAA0EA76E83
:10126000A682A6B2FED7A6940050F212F2CF00F0EA
:10127000F29E050EA96E640EA86EA69CA69EA6847C
:10128000550EA76EAA0EA76EA682A6B2FED7A6948A
:101290000050F212F2CF00F0F29E060EA96EA86A7C
:1012A000A69CA69EA684550EA76EAA0EA76EA68221
:1012B000A6B2FED7A6940050F212F2CF00F0F29E32
:1012C000070EA96EA86AA69CA69EA684550EA76EB8
:1012D000AA0EA76EA682A6B2FED7A6940050F2125E
:1012E000F2CF00F0F29E080EA96EA86AA69CA69EF8
:1012F000A684550EA76EAA0EA76EA682A6B2FED72A
:10130000A6940050F212F2CF00F0F29E090EA96EE0
:10131000A86AA69CA69EA684550EA76EAA0EA76EC6
:10132000A682A6B2FED7A6940050F212F2CF00F029
:10133000F29E0A0EA96E010EA86EA69CA69EA68419
:10134000550EA76EAA0EA76EA682A6B2FED7A694C9
:101350000050F212F2CF00F0F29E0B0EA96E010EB9
:10136000A86EA69CA69EA684550EA76EAA0EA76E72
:10137000A682A6B2FED7A6940050F212010E6E6E9F
:10138000030E6F6E00010DEC04F0CE0EF66E050E2E
:10139000F76E51EC04F0F2CF62F0F29E010EA96EEE
:1013A000A69CA69EA680A85062BEF28E206EF2CFAA
:1013B00062F0F29E020EA96EA69CA69EA680A85080
:1013C00062BEF28E226EF2CF62F0F29E030EA96E22
:1013D000A69CA69EA680A85062BEF28E386EF2CF62
:1013E00062F0F29E0A0EA96EA69CA69EA680A85048
:1013F00062BEF28E376EF2CF62F0F29E0B0EA96ED5
:10140000A69CA69EA680A85062BEF28E366E38526A
:10141000D8B4C0D0F2CF62F0F29E040EA96EA69CA2
:10142000A69EA680A85062BEF28E406EF2CF62F0F9
:10143000F29E050EA96EA69CA69EA680A85062BE2E
:10144000F28E416E41C03FF040C03EF0010E6E6E24
:10145000030E6F6E0DEC04F0100EE96E3FC065F0E8
:101460003EC064F061EC04F0F2CF62F0F29E060E32
:10147000A96EA69CA69EA680A85062BEF28E446E5F
:10148000200E6D6E2DEC04F044C063F0180E646EF7
:10149000D2EC04F0F2CF62F0F29E070EA96EA69C89
:1014A000A69EA680A85062BEF28E3B6EF2CF62F07E
:1014B000F29E080EA96EA69CA69EA680A85062BEAB
:1014C000F28E3C6E3CC03AF03BC039F0F2CF62F095
:1014D000F29E090EA96EA69CA69EA680A85062BE8A
:1014E000F28E426E010E6E6E040E6F6E0DEC04F005
:1014F000020E6D6E2DEC04F0140E6E6E040E6F6E07
:101500000DEC04F0020E6D6E2DEC04F03F5203E181
:1015100044503E5C10E3020E576E5750425C0BE3A2
:1015200057C06EF0040E6F6E0DEC04F06D6A2DEC7A
:1015300004F0572AF2D7958E83AE14D0010E6E6E4A
:10154000040E6F6E0DEC04F0020E6D6E2DEC04F0C7
:10155000140E6E6E040E6F6E0DEC04F0010E6D6EC7
:101560002DEC04F0958C83AC14D0010E6E6E040E3D
:101570006F6E0DEC04F0010E6D6E2DEC04F0140E88
:101580006E6E040E6F6E0DEC04F0020E6D6E2DEC9F
:1015900004F00BD0040E6E6E6F6E0DEC04F0DA0EDC
:1015A000F66E050EF76E51EC04F09D8A010E6E6E1C
:1015B0006F6E0DEC04F0EA0EF66E050EF76E51EC50
:1015C00004F020500A0DF3CF63F01B0E646E27EC7D
:1015D00005F00D0E6E6E010E6F6E0DEC04F0262CF4
:1015E00006D0F40EF66E050EF76E51EC04F0252CC5
:1015F00006D0FE0EF66E050EF76E51EC04F0010EED
:101600006E6E020E6F6E0DEC04F0080EF66E060E96
:10161000F76E51EC04F022500A0DF3CF63F01B0E6D
:10162000646E27EC05F038520BE1040E6E6E6F6E9F
:101630000DEC04F0120EF66E060EF76E51EC04F08F
:10164000948282A246D2948282B2FDD7010E586E55
:10165000596AEEEC03F003C04CF002C04BF001C03D
:101660004AF000C049F0020E626EFA0E6E6E26EC71
:1016700003F0622EFAD7582CD5D0EEEC03F003C05D
:1016800054F002C053F001C052F000C051F0495074
:10169000515C626E4A505258636E4B505358646EA0
:1016A0004C505458656E65520CE164520AE1635027
:1016B000080805E2FF0A05E16250C40802E3000ED3
:1016C00001D0010E626E592C01D002D0000E01D063
:1016D000010E62141DE0080E6E6E58C06FF00DEC26
:1016E00004F0220EF66E060EF76E51EC04F0205058
:1016F0000A0DF3CF63F0180E646ED2EC04F0596A51
:1017000054C04CF053C04BF052C04AF051C049F0A5
:101710004950515C626E4A505258636E4B50535858
:10172000646E4C505458656E65520CE164520AE187
:101730006350080805E2FF0A05E16250C40802E3AD
:10174000000E01D0010E626E595202E0000E01D06F
:10175000010E621416E0080E6E6E58C06FF00DECAC
:1017600004F0240EF66E060EF76E51EC04F0010E36
:10177000596E54C04CF053C04BF052C04AF051C0A7
:1017800049F0958283A225D02006205202E1010E65
:10179000206E080E6E6E58C06FF00DEC04F02A0E2D
:1017A000F66E060EF76E51EC04F020500A0DF3CFE2
:1017B00063F0180E646ED2EC04F0200E6D6E2DEC0A
:1017C00004F0020E626EFA0E6E6E26EC03F0622ECC
:1017D000FAD7948682A626D0202A2050090802E251
:1017E0000A0E206E080E6E6E58C06FF00DEC04F0FD
:1017F0002C0EF66E060EF76E51EC04F020500A0D1A
:10180000F3CF63F0180E646ED2EC04F0200E6D6E10
:101810002DEC04F0020E626EFA0E6E6E26EC03F0F2
:10182000622EFAD758500208D8A4D5D0EEEC03F0B7
:1018300003C054F002C053F001C052F000C051F098
:101840004950515C626E4A505258636E4B50535827
:10185000646E4C505458656E65520CE164520AE156
:101860006350080805E2FF0A05E16250C40802E37C
:10187000000E01D0010E626E592C01D002D0000E74
:1018800001D0010E62141DE0080E6E6E58C06FF09C
:101890000DEC04F02E0EF66E060EF76E51EC04F011
:1018A00022500A0DF3CF63F0180E646ED2EC04F0F0
:1018B000596A54C04CF053C04BF052C04AF051C06A
:1018C00049F04950515C626E4A505258636E4B5019
:1018D0005358646E4C505458656E65520CE1645216
:1018E0000AE16350080805E2FF0A05E16250C408F6
:1018F00002E3000E01D0010E626E595202E0000EAA
:1019000001D0010E621416E0080E6E6E58C06FF022
:101910000DEC04F0300EF66E060EF76E51EC04F08E
:10192000010E596E54C04CF053C04BF052C04AF0F7
:1019300051C049F0958283A225D02206225202E1AD
:10194000010E226E080E6E6E58C06FF00DEC04F0A2
:10195000360EF66E060EF76E51EC04F022500A0DAC
:10196000F3CF63F0180E646ED2EC04F0200E6D6EAF
:101970002DEC04F0020E626EFA0E6E6E26EC03F091
:10198000622EFAD7948682A626D0222A22500A08EE
:1019900002E20A0E226E080E6E6E58C06FF00DEC59
:1019A00004F0380EF66E060EF76E51EC04F022507D
:1019B0000A0DF3CF63F0180E646ED2EC04F0200E23
:1019C0006D6E2DEC04F0020E626EFA0E6E6E26EC59
:1019D00003F0622EFAD7948482A435D0080E6E6E7E
:1019E000010E6F6E0DEC04F03A0EF66E060EF76EF9
:1019F00051EC04F020500A0DF3CF63F0180E646E22
:101A0000D2EC04F0080E6E6E020E6F6E0DEC04F058
:101A10003C0EF66E060EF76E51EC04F022500A0DE5
:101A2000F3CF63F0180E646ED2EC04F058065852EF
:101A300002E1020E586E020E626EFA0E6E6E26EC17
:101A400003F0622EFAD7958083A036D0080E6E6E12
:101A5000010E6F6E0DEC04F03E0EF66E060EF76E84
:101A600051EC04F020500A0DF3CF63F0180E646EB1
:101A7000D2EC04F0080E6E6E020E6F6E0DEC04F0E8
:101A8000400EF66E060EF76E51EC04F022500A0D71
:101A9000F3CF63F0180E646ED2EC04F0582A58505D
:101AA000020802E2010E586E020E626EFA0E6E6EAF
:101AB00026EC03F0622EFAD7948282A209D0020E9D
:101AC000626EFA0E6E6E26EC03F0622EFAD701D02B
:101AD000D2D5958A83AA80D0010E5A6E5B6A020E17
:101AE000626EFA0E6E6E26EC03F0622EFAD7272C89
:101AF0006BD0276A010E256E266A0D0E6E6E010EE2
:101B00006F6E0DEC04F0420EF66E060EF76E51ECA1
:101B100004F05A2C35D00A0ED8802254205C246E52
:101B20005C6A0A0ED88022545C5C28E25B2C01D0EF
:101B300025D05D6A23505D5C1DE29582000E83B264
:101B4000010E636E9486000E82B6010E631005E0EE
:101B50005AEC05F0010E5B6E0DD063EC05F00152FE
:101B600005E05AEC05F0010E5B6E04D023EC06F0A4
:101B70005D2AE0D7010E24265C2AD3D75A6AC9D73A
:101B800063EC05F0015204E05AEC05F0326A1BD018
:101B900023EC06F09580000E83B0010E636E9486F0
:101BA000000E82B6010E63129486000E82B6010EFC
:101BB00063129484000E82B4010E631003E05AECA9
:101BC00005F001D0A6D708D0275205E1010E276EF7
:101BD000256A266E01D07DD7010E456E466A958234
:101BE000000E83B2010E26141DE063EC05F001C067
:101BF00062F09486000E82B6010E011005E05AECE8
:101C000005F0326A9D900ED029EF06F0475203E1AD
:101C1000010E476E07D020C021F023EC06F0010E24
:101C2000336EDDD79486000E82B6010E26141DE0B9
:101C300062EC06F001C062F09582000E83B2010EE4
:101C4000011005E05AEC05F0326A9D900ED08AEF43
:101C500006F0475203E1010E476E07D020C021F085
:101C600085EC06F0010E346EDDD7345226E05E6A54
:101C70000A0ED88022545E5C1CE25F6A23505F5CCF
:101C800014E29582000E83B2010E626E62EC06F0E1
:101C90006250011004E05AEC05F09D9006D024C07B
:101CA00021F085EC06F05F2AE9D7010E245E5E2A5A
:101CB000DFD7346A5AEC05F0D8D7335226E0606A91
:101CC0000A0ED8802254605C1CE2616A2350615C79
:101CD00014E29486000E82B6010E626E63EC05F08B
:101CE0006250011004E05AEC05F09D9006D024C02B
:101CF00021F023EC06F0612AE9D7010E245E602A68
:101D0000DFD7336A5AEC05F0D8D75AEC05F0958244
:101D1000000E83B2010E626E252C01D002D0000E9F
:101D200001D0010E621426E0010E456E958283B249
:101D3000FDD7C3EF06F0475203E1010E476E1AD0FC
:101D400023EC06F09580000E83B0010E626E94863F
:101D5000000E82B6010E62129484000E82B4010E4F
:101D6000621263EC05F06250011003E05AEC05F0DA
:101D700001D0DFD79486000E82B6010E636E252C4B
:101D800001D002D0000E01D0010E63142BE0010E31
:101D9000456E020E626EFA0E6E6E26EC03F0622E37
:101DA000FAD7F8EF06F0475203E1010E476E1AD05A
:101DB00085EC06F09580000E83B0010E626E958270
:101DC000000E83B2010E62129484000E82B4010EE2
:101DD000621262EC06F06250011003E05AEC05F06A
:101DE00001D0DFD7958083A00CD0020E626EFA0E70
:101DF0006E6E26EC03F0622EFAD7060E626E3DEF91
:101E000007F0948482A486D0020E626EFA0E6E6E83
:101E100026EC03F0622EFAD7F250006EF29E010E0D
:101E2000A96E20C0A8FFA69CA69EA6840F01550EF1
:101E3000A76EAA0EA76EA682A6B2FED7A6940050E1
:101E4000F212F2CF00F0F29E020EA96E22C0A8FF9D
:101E5000A69CA69EA684550EA76EAA0EA76EA68265
:101E6000A6B2FED7A6940050F212F2CF00F0F29E76
:101E7000030EA96E38C0A8FFA69CA69EA684550E88
:101E8000A76EAA0EA76EA682A6B2FED7A694005091
:101E9000F2123EC040F03FC041F0F2CF00F0F29E9F
:101EA000040EA96E40C0A8FFA69CA69EA684550E4F
:101EB000A76EAA0EA76EA682A6B2FED7A694005061
:101EC000F212F2CF00F0F29E050EA96E41C0A8FFFB
:101ED000A69CA69EA684550EA76EAA0EA76EA682E5
:101EE000A6B2FED7A6940050F212F2CF00F0F29EF6
:101EF000060EA96E44C0A8FFA69CA69EA684550EF9
:101F0000A76EAA0EA76EA682A6B2FED7A694005010
:0A1F1000F2120001D5EF0AF0030001
:020000040030CA
:0E00000000C21E1E008781000FC00FE00F40DF
:00000001FF
;PIC18F4520
;CRC=5565  CREATED="01-Eyl-22 08:40"
