:04000000EFEF09F025
:0800080094EF00F0000000007D
:100010000000000000000000046ED8CF05F0E0CF23
:1000200006F00001E9CF0CF0EACF07F0E1CF08F0CD
:10003000E2CF09F0D9CF0AF0DACF0BF0F3CF12F00C
:10004000F4CF13F0FACF14F0F5CF15F0F6CF16F089
:10005000F7CF17F000C00EF001C00FF002C010F093
:1000600003C011F09DA038EF00F09EB0D1EF00F07A
:10007000A0A43EEF00F0A1B4B8EF01F00EC000F074
:100080000FC001F010C002F011C003F00CC0E9FF76
:1000900007C0EAFF078E08C0E1FF09C0E2FF0AC0FF
:1000A000D9FF0BC0DAFF12C0F3FF13C0F4FF14C076
:1000B000FAFF15C0F5FF16C0F6FF17C0F7FF045092
:1000C00006C0E0FF05C0D8FF1000F76ADA0FF66E31
:1000D000000EF7220900F5501200280C0106F76AFD
:1000E000EE0FF66E000EF7220900F5501200000028
:1000F0001515151515001F1F1F1F1F1F1F1F1F116F
:1001000011111111111F20002000200020200000DB
:100110003C43656E7465723E00000C00636F756E43
:10012000743A20254C7500009D9A9EAAFED7AECF4A
:1001300029F0036A2E502A0FE96E000E0320EA6EA2
:1001400029C0EFFF2E2A2950210805E12E6A010E51
:100150002F6E95988C789E9A1100010E8C5F0BE3A0
:10016000EA6A8C0EE96EEF5006E0040E006E002E77
:10017000FED7EF2EFAD7C2EF00F0020E8B6FA50E5E
:100180008C6FEBD78B2FFBD78A6B0A0ED8808955E3
:100190008A5D06E2D50E006E002EFED78A2BF5D7BB
:1001A0001200495266E122C089F0E7DF94948B8403
:1001B00094968B9694908B9094928B8222C089F027
:1001C000DCDF94948B9494968B9694908B9094927D
:1001D0008B8222C089F0D1DF94948B9494968B8685
:1001E00094908B9094928B8222C089F0C6DF949475
:1001F0008B9494968B8694908B9094928B9222C041
:1002000089F0BBDF94948B9494968B8694908B802A
:1002100094928B9222C089F0B0DF94948B94949640
:100220008B9694908B8094928B9222C089F0A5DF5C
:1002300094948B8494968B9694908B8094928B92CA
:1002400022C089F09ADF94948B8494968B96949034
:100250008B9094928B923B2AD8B43C2A37503C5CCA
:1002600008E303E13B50365C04E237C03CF036C0A3
:100270003BF0492C61D022C089F07FDF94948B84BD
:1002800094968B9694908B9094928B9222C089F046
:1002900074DF94948B8494968B9694908B80949234
:1002A0008B9222C089F069DF94948B9494968B96FC
:1002B00094908B8094928B9222C089F05EDF94940C
:1002C0008B9494968B8694908B8094928B9222C080
:1002D00089F053DF94948B9494968B8694908B90B2
:1002E00094928B9222C089F048DF94948B949496D8
:1002F0008B8694908B9094928B8222C089F03DDF04
:1003000094948B9494968B9694908B9094928B82E9
:1003100022C089F032DF94948B8494968B969490CB
:100320008B9094928B823B50D8B43C063B063A5259
:1003300003E0432AD8B4442ACF68CE0ECE6E000024
:100340009E909E903EEF00F0EA6A890EE96EEF50B3
:100350000EE0140E016E006A002EFED7012EFBD7B0
:10036000BF0E006E002EFED700D0EF2EF2D7120087
:100370009D909D9A0A0E896FE7DFF250006EF29E03
:10038000AA6A010EA96E21C0A8FFA69CA69EA684FB
:100390000F01550EA76EAA0EA76EA682A6B2FED7B3
:1003A000A6940050F212F2CF00F0F29EAA6A020E5A
:1003B000A96E23C0A8FFA69CA69EA684550EA76E74
:1003C000AA0EA76EA682A6B2FED7A6940050F2127D
:1003D000F2CF00F0F29EAA6A030EA96E35C0A8FF04
:1003E000A69CA69EA684550EA76EAA0EA76EA682F0
:1003F000A6B2FED7A6940050F2123BC03DF03CC01E
:100400003EF0F2CF00F0F29EAA6A040EA96E3DC043
:10041000A8FFA69CA69EA684550EA76EAA0EA76E40
:10042000A682A6B2FED7A6940050F212F2CF00F038
:10043000F29EAA6A050EA96E3EC0A8FFA69CA69EC3
:10044000A684550EA76EAA0EA76EA682A6B2FED7E8
:10045000A6940050F212F2CF00F0F29EAA6A060EA5
:10046000A96E41C0A8FFA69CA69EA684550EA76EA5
:10047000AA0EA76EA682A6B2FED7A6940050F212CC
:1004800036C038F037C039F0F2CF00F0F29EAA6AD9
:10049000070EA96E38C0A8FFA69CA69EA684550E7E
:1004A000A76EAA0EA76EA682A6B2FED7A69400508B
:1004B000F212F2CF00F0F29EAA6A080EA96E39C0BD
:1004C000A8FFA69CA69EA684550EA76EAA0EA76E90
:1004D000A682A6B2FED7A6940050F212F2CF00F088
:1004E000F29EAA6A090EA96E3FC0A8FFA69CA69E0E
:1004F000A684550EA76EAA0EA76EA682A6B2FED738
:10050000A6940050F212F2CF00F0F29EAA6A0A0EF0
:10051000A96E34C0A8FFA69CA69EA684550EA76E01
:10052000AA0EA76EA682A6B2FED7A6940050F2121B
:10053000F2CF00F0F29EAA6A0B0EA96E33C0A8FF9C
:10054000A69CA69EA684550EA76EAA0EA76EA6828E
:10055000A6B2FED7A6940050F21296908D80A09479
:10056000A19400013EEF00F0456570726F6D20466A
:1005700061696C0043656E746565204D61636869EF
:100580006E65000053706565643A202520202000C8
:100590003C4D616E75656C3E00003C204175746F8A
:1005A000203E0000416363656C3A20252020200036
:1005B00043656E746572204D616368696E65000005
:1005C00025002020202000002500250025002020D7
:1005D00020200000250025002500250025002500FD
:1005E0003C204175746F203E000087B102D08A988C
:1005F00001D08A88939887B302D08A9A01D08A8AD8
:10060000939A87B502D08A9C01D08A8C939C87B735
:1006100002D08A9E01D08A8E939E000093968A868D
:100620000A0E006E002EFED7000093968A961200E6
:10063000886B93968A86050E006E002EFED79388EF
:10064000889181B88881938A889381BA8883938CB2
:10065000889581BC8885938E889781BE888793967C
:100660008A96050E006E002EFED788C001F012009B
:1006700093948A840000DCDF01C087F0D9DF01C0D9
:1006800086F08739006EF00E001600508611016E5C
:100690004DEF03F093928A92EBD701C086F001BE32
:1006A000FBD7845303E093928A8202D093928A927A
:1006B000000093948A94000093968A968539866FF9
:1006C0000F0E861786C087F090DF85510F0B866F5F
:1006D000876F8BDF1200010E206E93928A929394A3
:1006E0008A9493968A96196AF2BE198EF29E230E08
:1006F000896F2ADE19BEF28E726B725102080EE308
:10070000030E876F72DF196AF2BE198EF29E050E14
:10071000896F1ADE19BEF28E722BEFD7020E876F29
:1007200064DF726B7251030809E3036A7251CDDC16
:10073000736F846B856FAEDF722BF4D779EF0AF09D
:10074000846B400E856FA6DF726B725117080BE346
:10075000036A7251C4DC736F010E846F73C085F03D
:1007600099DF722BF2D7846B800E856F93DF7BEF5E
:100770000AF0D650D7CF03F0F2A40CD0010E1A26FF
:10078000D8B01B2AD8B41C2AD8B41D2AF294D6504B
:10079000D7CF03F0006E03C001F01AC002F01BC0F7
:1007A00003F01C50E8320332023201320032E832E8
:1007B0000332023201320032E832033202320132B5
:1007C000003212008151010A07E0030A07E0010A22
:1007D00008E0070A09E00BD0826B0AD0400E826F56
:1007E00007D0140E826F04D0540E826F01D0826B3A
:1007F000010E805D822782518009836F846B856F33
:1008000049DF12007F510C0A05E0060A13E0020AD4
:1008100018E01CD0846B010E856F3CDF010E206E4A
:10082000196AF2BE198EF29E020E896F8DDD19BE15
:10083000F28E11D0202A010E806F20C081F0C2DF1D
:100840000AD0846B100E856F25DF05D0010E846FF2
:100850007FC085F01FDF12000900F5520CE0F6CFD3
:1008600079F0F7CF7AF0F5CF7FF0CCDF79C0F6FFE3
:100870007AC0F7FFF1D71200EACF7EF0E9CF7DF022
:100880007739F009796F7927E20F7A6F320F7C6F31
:1008900077510F0B7A277A277C27E90F7B6F7B270D
:1008A0007B2776390F0B7B277C277B377C377C1F98
:1008B0007C3776510F0B7C277937070E786F0A0E3D
:1008C0007B077C27FDE37A077B27FDE379077A27FF
:1008D000FDE378077927FDE3EA6A780EE96E070EF3
:1008E0007D157D9DE926000EEA22E9507C0803E192
:1008F000EA5201E17D8DEF50006E08E17DBD06D02A
:100900007DB913D07DB702D0200E03D07D877D99AD
:10091000300E0026EACF77F0E9CF76F000C07FF006
:1009200071DF77C0EAFF76C0E9FFEE507DADDDD71D
:1009300012007A51016A795D03E279C000F00CD0AF
:10094000006A080E7B6F793700367A51005CD8B0A8
:10095000006E01367B2FF7D71200200E74A9300EDF
:10096000756F73C000F073AF08D0001E002A00C07E
:1009700073F02D0E756F748F7481015073C079F010
:10098000640E7A6FD6DF00C073F0300E0124766FEC
:1009900073C079F00A0E7A6FCCDF300E0024786FC6
:1009A000300E0124776F75C000F0300E765D04E0E4
:1009B000748374BF748512D075C076F0200E756F85
:1009C000300E775D04E0748174BF748307D0D8A4BF
:1009D000748104E176C077F0200E766F74B505D08F
:1009E00074B306D074B107D009D075C07FF00ADFA8
:1009F00076C07FF007DF77C07FF004DF78C07FF03C
:100A000001DF12002A506D080EE195988C782B506A
:100A1000300803E1266A010E276E2B50310803E1EE
:100A2000010E266E276A12008E0E006E74C001F051
:100A300073C002F0036A015209E102C001F0026AC8
:100A4000080E005E015202E1006A08D0D89001BE93
:100A500004D0023601360006F9D7019E12002A5052
:100A6000680837E195988C782B5030082DE12C5090
:100A7000310802E1010E216E2C50320802E1020E13
:100A8000216E2C50330802E1030E216E2C503408E5
:100A900002E1040E216E2C50350802E1050E216E94
:100AA0002C50360802E1060E216E2C50370802E168
:100AB000070E216E2C50380802E1080E216E2C50D2
:100AC000390802E1090E216E2B50310802E10A0EAD
:100AD000216E746B21C073F0A7DF12002A506108E9
:100AE00037E195988C782B5030082DE12C50310847
:100AF00002E1010E236E2C50320802E1020E236E39
:100B00002C50330802E1030E236E2C50340802E10E
:100B1000040E236E2C50350802E1050E236E2C5076
:100B2000360802E1060E236E2C50370802E1070E4C
:100B3000236E2C50380802E1080E236E2C50390821
:100B400002E1090E236E2B50310802E10A0E236EDA
:100B5000746B23C073F068DF1200948882B813D0DE
:100B6000010E326E37C03CF036C03BF033520AE122
:100B7000140E806F040E816F25DE010E7F6F42DE42
:100B8000010E336E0CD0326A345209E0010E806FD0
:100B9000040E816F17DE020E7F6F34DE346A32C0BE
:100BA00001F012009D9094948B9494968B9694905F
:100BB0008B9094928B921200016A026A006A036A17
:100BC0007C5102E17B5118E0100E7D6FD89079378F
:100BD0007A37003603367C51035C02E17B51005CBE
:100BE00007E37B51005ED8A003067C51035ED880EA
:100BF000013602367D2FEAD71200422A3C5207E125
:100C000041503B5C04E2010E415C3B6E3C6A425049
:100C100014080AE13CC07AF03BC079F07C6B0A0E04
:100C20007B6FCADF01C078F04150425C02E0000EE9
:100C300001D0010E796F3C5203E13B50415C02E26E
:100C4000000E01D0010E79114AE0426A3CC07AF0F0
:100C50003BC079F07C6B41C07BF0AEDF01C03FF060
:100C60003F50120802E2130E3F6E3F50010802E3AC
:100C7000020E3F6E40503F5C29E23F5012080DE1EA
:100C8000130E806F040E816F9DDD080EF66E010E4F
:100C9000F76EE2DD3FC040F022D03F2C0DD0020EB7
:100CA000806F040E816F8EDD0A0EF66E010EF76EF8
:100CB000D3DD3FC040F013D03FC080F0040E816F01
:100CC00081DD0C0EF66E010EF76EC6DD3FC080F0C2
:100CD000040E816F77DD7F6B95DD3FC040F0120021
:100CE000496A9D808ADF9D901200948A82BA19D049
:100CF000010E326E345214E1010E806F040E816FCA
:100D000061DD010E7F6F7EDD020E806F040E816F4C
:100D100059DD060EF66E010EF76E9EDD010E346E85
:100D20000CD0326A335209E0140E806F040E816FCA
:100D300049DD020E7F6F66DD336A32C001F01200BA
:100D4000010E496E9D8059DF9D9012000900F6CF7B
:100D500077F0F7CF78F0F5CF7FF054DD77C0F6FF6E
:100D600078C0F7FF762FF2D76FEF07F00D0E806F88
:100D7000010E816F27DD100EF66E010EF76E6CDD31
:100D8000446A436A010E806F040E816F1BDD020E00
:100D90007F6F38DD140E806F040E816F13DD020E3D
:100DA0007F6F30DD020E806F040E816F0BDD060E4B
:100DB000226E9D8AD2DE01520FE0F4DE196AF2BE85
:100DC000198EF29EFA0E896FA4EC01F019BEF28E14
:100DD00095988C782F6A15D0958C000E83AC010EF7
:100DE000766F958A000E83AA010E761108E0DADE8E
:100DF000010E806F040E816FE5DC356ABED070DFB6
:100E0000D8D79D8A010E3A6E70DF01520FE0CADE1C
:100E1000196AF2BE198EF29EFA0E896FA4EC01F0E7
:100E200019BEF28E2F6A3C6A3B6A15D0958C000E73
:100E300083AC010E766F958A000E83AA010E76119F
:100E400008E0B0DE010E806F040E816FBBDC356AF6
:100E500094D076DFD6D7D8904430036E4330026EFC
:100E6000016E3C50035C21E303E101503B5C1DE259
:100E70009D8A3A6A7EDC03C067F002C066F001C05A
:100E800065F000C064F0958C000E83AC010E766FA7
:100E9000958A000E83AA010E76135FDE765101104B
:100EA00002E080DE6AD01CDFD6D77CDE1A0EF66E3A
:100EB000010EF76ED1DC010E806F030E816F82DCB4
:100EC00044C037F043C036F0030E3626000E3722FA
:100ED0001C0EF66E010EF76E070E766F37D7100EEA
:100EE000E96E37C077F036C076F0C6DCD890373080
:100EF0003C6E36303B6E010E356E3A6A37C07AF082
:100F000036C079F07C6B140E7B6F56DE01C041F069
:100F1000010E415C426E3CC07AF03BC079F07C6BC4
:100F20000A0E7B6F49DE01C074F03CC07AF03BC012
:100F300079F07C6B41C07BF03FDE01C03FF0010ED9
:100F4000806F040E816F3EDC020E7F6F5BDC140E3F
:100F5000806F040E816F36DC020E7F6F53DC020E51
:100F6000756F75510A0809E375C080F0040E816F32
:100F700029DC7F6B47DC752BF4D71200010E736FF1
:100F800095988C789D8A9D8A732D47D09D8A0A0EEC
:100F9000D8802354215C256E746B0A0ED8802354AC
:100FA000745D39E29D8A756B2450755D30E29D8ACF
:100FB000958C000E83AC010E786F958A000E83AA83
:100FC000010E78139586000E83A6010E78132A5021
:100FD000670802E1000E01D0010E781102E0E2DDA7
:100FE000C6D0BBDD01520EE0010E736FDBDD196A66
:100FF000F2BE198EF29E640E896FA4EC01F019BE48
:10100000F28E05D025C022F06BDE752BCDD7010EF8
:101010002526742BC2D7736BB7D79FDD015211E021
:10102000C1DD95988C78196AF2BE198EF29E640E15
:10103000896FA4EC01F019BEF28E010E736F2F6A56
:101040001DD0958E000E83AE010E786F958C000E2C
:1010500083AC010E7813958A000E83AA010E7813D3
:101060002A50670802E1000E01D0010E781102E05B
:1010700099DD7DD025C022F033DE85D79D8A732D82
:1010800046D09D8A0A0ED8802354215C256E766B4B
:101090000A0ED8802354765D38E29D8A776B2450FF
:1010A000775D2FE29D8A958C000E83AC010E786FE0
:1010B000958A000E83AA010E78132A50670802E170
:1010C000000E01D0010E781102E06CDD50D00DDE73
:1010D000015212E0010E736F65DD020E786F196A1E
:1010E000F2BE198EF29EFA0E896FA4EC01F019BEC1
:1010F000F28E782FF4D705D025C022F021DE772B91
:10110000CED7010E2526762BC3D7736BB8D7EDDD6E
:1011100001520FE047DD196AF2BE198EF29E640E8D
:10112000896FA4EC01F019BEF28E010E736F2F6A65
:101130001DD0958E000E83AE010E786F958C000E3B
:1011400083AC010E7813958A000E83AA010E7813E2
:101150002A50670802E1000E01D0010E781102E06A
:1011600021DD05D025C022F0EBDD88D70BD712009A
:101170009D8A2F522DE09D8A45DC71DCAFDC2A5020
:10118000630803E1060E736FF1DD2A50670801E181
:10119000F5DE2A5064081CE1275200E0265200E0E8
:1011A000196AF2BE198EF29E320E896FA4EC01F01C
:1011B00019BEF28E355200E03CC07AF03BC079F0A7
:1011C0007C6B0A0E7B6FF8DC01C072F0300E2A6E69
:1011D0002EEF0DF0455242E09D8A0A0ED88023542E
:1011E000215C256E726B0A0ED8802354725D30E24A
:1011F0009D8A736B2450735D27E29D8A958C000E47
:1012000083AC010E746F958A000E83AA010E7413CD
:101210006CDD015074132A506C0802E1000E01D0FD
:10122000010E74132B50310802E1000E01D0010EA3
:10123000741105E0B7DC476A47C001F00FD025C044
:1012400022F07EDD732BD6D7010E2526722BCBD74D
:10125000456A010E476E016E01D0BCD71200959809
:101260008C88455234E09D8A0A0ED8802354215C34
:10127000256E726B0A0ED8802354725D22E29D8A1D
:10128000736B2450735D19E29D8A958A000E83AAC0
:10129000010E746F2ADD01507413958C000E83BC0F
:1012A000010E741105E07EDC476A47C001F011D0E1
:1012B00025C022F045DD732BE4D7010E2526722BC5
:1012C000D9D7456A010E476E016E03D0CAD79598EB
:1012D0008C9869EF10F095988C88455234E09D8A7F
:1012E0000A0ED8802354215C256E726B0A0ED880BA
:1012F0002354725D22E29D8A736B2450735D19E260
:101300009D8A958C000E83AC010E746F26DC015013
:101310007413958A000E83BA010E741105E042DC45
:10132000476A47C001F011D025C022F0D9DC732BE9
:10133000E4D7010E2526722BD9D7456A010E476ED8
:10134000016E03D0CAD795988C989CEF10F0452C6D
:1013500044D09D8A0A0ED8802354215C256E726B7E
:101360000A0ED8802354725D32E29D8A736B24503A
:10137000735D29E29D8A958C000E83AC010E746F1B
:10138000958A000E83AA010E7413ADEC05F001508E
:1013900074132A50720802E1000E01D0010E74137A
:1013A0002B50310802E1000E01D0010E741106E04D
:1013B000D2EC05F0476A47C001F00FD025C022F0FB
:1013C0008FDC732BD4D7010E2526722BC9D7456A23
:1013D000010E476E016E01D0BAD787EF11F0F86A9F
:1013E0009F909F8AA294D08E078E700ED36E9B8C96
:1013F0009B9E1D6A1C6A1B6A1A6AD59E870ED56E53
:10140000D76AD66A0000F294B886820EAF6E060ED6
:10141000B06EA60EAC6E900EAB6E050E216E226AFB
:10142000236E1E0E246E256A266A010E276E286E14
:101430002E6A2F6A306A316A326A336E346E356AC8
:10144000376836683A6A3C6E5E0E3B6E3F6A406AA9
:10145000416A010E415C426E44684368010E456E6C
:10146000466A476E486A496A696B686B0F01386B58
:10147000396B3A6B3B6B3C6B776A786A796A1E6AA8
:101480001F6A310E4A6E320E4B6E330E4C6E340EA6
:101490004D6E350E4E6E360E4F6E370E506E380E48
:1014A000516E390E526E010E536E020E546E030EC3
:1014B000556E040E566E050E576E060E586E070ECC
:1014C000596E080E5A6E090E5B6EF00EBD169E9098
:1014D0001A0E9C6EA084C00EF2129D8A9D90370E4B
:1014E000CD6ECC6ACF68CE0ECE6E000000016BEFE1
:1014F00003F0A0EF03F0B9EC03F003C067F002C003
:1015000066F001C065F000C064F067C05FF066C0BF
:101510005EF065C05DF064C05CF05FC063F05EC00B
:1015200062F05DC061F05CC060F0F2CF72F0F29EDC
:10153000AA6A010EA96EA69CA69EA680A85072BF9C
:10154000F28E000A02E0000E01D0010E736FF2CF9E
:1015500074F0F29EAA6A010EA96EA69CA69EA680B1
:10156000A85074BFF28E0A0802E3000E01D0010EEB
:101570007311000AD8B4F0D0010E806F030E816F92
:10158000E2EC03F0680EF66E050EF76E2CEC04F03C
:10159000F250006EF29EAA6A010EA96E050EA86EA8
:1015A000A69CA69EA6840F01550EA76EAA0EA76E36
:1015B000A682A6B2FED7A6940050F212F2CF00F097
:1015C000F29EAA6A020EA96E050EA86EA69CA69EA1
:1015D000A684550EA76EAA0EA76EA682A6B2FED747
:1015E000A6940050F212F2CF00F0F29EAA6A030E07
:1015F000A96EA86AA69CA69EA684550EA76EAA0EE2
:10160000A76EA682A6B2FED7A6940050F212F2CF21
:1016100000F0F29EAA6A040EA96E640EA86EA69C43
:10162000A69EA684550EA76EAA0EA76EA682A6B287
:10163000FED7A6940050F212F2CF00F0F29EAA6AF2
:10164000050EA96E640EA86EA69CA69EA684550ED5
:10165000A76EAA0EA76EA682A6B2FED7A6940050C9
:10166000F212F2CF00F0F29EAA6A060EA96EA86AE4
:10167000A69CA69EA684550EA76EAA0EA76EA6824D
:10168000A6B2FED7A6940050F212F2CF00F0F29E5E
:10169000AA6A070EA96EA86AA69CA69EA684550EE5
:1016A000A76EAA0EA76EA682A6B2FED7A694005079
:1016B000F212F2CF00F0F29EAA6A080EA96EA86A92
:1016C000A69CA69EA684550EA76EAA0EA76EA682FD
:1016D000A6B2FED7A6940050F212F2CF00F0F29E0E
:1016E000AA6A090EA96EA86AA69CA69EA684550E93
:1016F000A76EAA0EA76EA682A6B2FED7A694005029
:10170000F212F2CF00F0F29EAA6A0A0EA96E010E42
:10171000A86EA69CA69EA684550EA76EAA0EA76EBE
:10172000A682A6B2FED7A6940050F212F2CF00F025
:10173000F29EAA6A0B0EA96E010EA86EA69CA69E2A
:10174000A684550EA76EAA0EA76EA682A6B2FED7D5
:10175000A6940050F2120001F2CF72F0F29EAA6A33
:10176000010EA96EA69CA69EA680A85072BFF28EFE
:10177000216EF2CF72F0F29EAA6A020EA96EA69CAA
:10178000A69EA680A85072BFF28E236EF2CF72F092
:10179000F29EAA6A030EA96EA69CA69EA680A850D9
:1017A00072BFF28E356EF2CF72F0F29EAA6A0A0E06
:1017B000A96EA69CA69EA680A85072BFF28E346E1B
:1017C000F2CF72F0F29EAA6A0B0EA96EA69CA69E9C
:1017D000A680A85072BFF28E336E3552D8B4C6D0F0
:1017E000F2CF72F0F29EAA6A040EA96EA69CA69E83
:1017F000A680A85072BFF28E3D6EF2CF72F0F29EBC
:10180000AA6A050EA96EA69CA69EA680A85072BFC5
:10181000F28E3E6E3EC03CF03DC03BF0010E806F4C
:10182000030E816FE2EC03F0100EE96E3CC077F01E
:101830003BC076F03CEC04F0F2CF72F0F29EAA6A64
:10184000060EA96EA69CA69EA680A85072BFF28E18
:10185000416E200E7F6F02EC04F041C073F0180E51
:10186000746FADEC04F0F2CF72F0F29EAA6A070E2C
:10187000A96EA69CA69EA680A85072BFF28E386E56
:10188000F2CF72F0F29EAA6A080EA96EA69CA69EDE
:10189000A680A85072BFF28E396E39C037F038C0BA
:1018A00036F0F2CF72F0F29EAA6A090EA96EA69CDB
:1018B000A69EA680A85072BFF28E3F6E010E806F6A
:1018C000040E816FE2EC03F0020E7F6F02EC04F075
:1018D000140E806F040E816FE2EC03F0020E7F6F36
:1018E00002EC04F03C5203E141503B5C10E3020E79
:1018F0006A6F6A513F5C0BE36AC080F0040E816F2F
:10190000E2EC03F07F6B02EC04F06A2BF2D79488D0
:1019100082B814D0010E806F040E816FE2EC03F0E8
:10192000020E7F6F02EC04F0140E806F040E816FC4
:10193000E2EC03F0010E7F6F02EC04F0948A82BAAD
:1019400014D0010E806F040E816FE2EC03F0010EE3
:101950007F6F02EC04F0140E806F040E816FE2ECD6
:1019600003F0020E7F6F02EC04F00CD0030E806FC8
:10197000040E816FE2EC03F0740EF66E050EF76E46
:101980002CEC04F09D8A010E806F816FE2EC03F075
:10199000840EF66E050EF76E2CEC04F0090E806FC7
:1019A000010E816FE2EC03F021500A0DF3CF73F0CA
:1019B000180E746FADEC04F00D0E806F010E816F88
:1019C000E2EC03F0275206E0900EF66E050EF76E7D
:1019D0002CEC04F0265206E09A0EF66E050EF76E19
:1019E0002CEC04F0010E806F020E816FE2EC03F02C
:1019F000A40EF66E050EF76E2CEC04F0090E806F47
:101A0000020E816FE2EC03F023500A0DF3CF73F066
:101A1000180E746FADEC04F035520BE1040E806FBC
:101A2000816FE2EC03F0B00EF66E050EF76E2CEC53
:101A300004F0958E83BE76D2010E6B6F6C6BB9ECA1
:101A400003F003C05FF002C05EF001C05DF000C0B3
:101A50005CF0958E83AEFDD7B8EF08F09D8A6B2DB4
:101A6000E6D0B9EC03F003C067F002C066F001C035
:101A700065F000C064F05C50645D726F5D50655944
:101A8000736F5E506659746F5F506759756F755309
:101A90000CE174530AE17351080805E2FF0A05E1FD
:101AA0007251C40802E3000E01D0010E726F6C2D5A
:101AB00001D002D0000E01D0010E72151DE0080EFB
:101AC000806F6BC081F0E2EC03F0C00EF66E050E85
:101AD000F76E2CEC04F021500A0DF3CF73F0180EC2
:101AE000746FADEC04F06C6B67C05FF066C05EF0C5
:101AF00065C05DF064C05CF05C50645D726F5D5009
:101B00006559736F5E506659746F5F506759756F92
:101B100075530CE174530AE17351080805E2FF0A9A
:101B200005E17251C40802E3000E01D0010E726F8C
:101B30006C5302E0000E01D0010E721516E0080E83
:101B4000806F6BC081F0E2EC03F0C20EF66E050E02
:101B5000F76E2CEC04F0010E6C6F67C05FF066C08E
:101B60005EF065C05DF064C05CF0958C83BC2CD0E9
:101B7000010E215E215202E1010E216E080E806FDE
:101B80006BC081F0E2EC03F0C80EF66E050EF76E46
:101B90002CEC04F021500A0DF3CF73F0180E746F83
:101BA000ADEC04F0200E7F6F02EC04F0020E726FB9
:101BB000196AF2BE198EF29EFA0E896FA4EC01F03A
:101BC00019BEF28E722FF4D7958A83BA30D0010EE7
:101BD00021262150090802E20A0E216E080E806FAC
:101BE0006BC081F0E2EC03F0CA0EF66E050EF76EE4
:101BF0002CEC04F021500A0DF3CF73F0180E746F23
:101C0000ADEC04F0200E7F6F02EC04F021500908C7
:101C100000E3020E726F196AF2BE198EF29EFA0E7E
:101C2000896FA4EC01F019BEF28E722FF4D76B51BC
:101C30000208D8A4E6D0B9EC03F003C067F002C0F4
:101C400066F001C065F000C064F05C50645D726FC6
:101C50005D506559736F5E506659746F5F50675978
:101C6000756F75530CE174530AE17351080805E26E
:101C7000FF0A05E17251C40802E3000E01D0010E13
:101C8000726F6C2D01D002D0000E01D0010E7215C2
:101C90001DE0080E806F6BC081F0E2EC03F0CC0E0B
:101CA000F66E050EF76E2CEC04F023500A0DF3CF00
:101CB00073F0180E746FADEC04F06C6B67C05FF0DE
:101CC00066C05EF065C05DF064C05CF05C50645D51
:101CD000726F5D506559736F5E506659746F5F50D7
:101CE0006759756F75530CE174530AE17351080815
:101CF00005E2FF0A05E17251C40802E3000E01D0BB
:101D0000010E726F6C5302E0000E01D0010E7215CD
:101D100016E0080E806F6BC081F0E2EC03F0CE0E8F
:101D2000F66E050EF76E2CEC04F0010E6C6F67C0BA
:101D30005FF066C05EF065C05DF064C05CF0958CDD
:101D400083BC2CD0010E235E235202E1010E236ED0
:101D5000080E806F6BC081F0E2EC03F0D40EF66EDB
:101D6000050EF76E2CEC04F023500A0DF3CF73F040
:101D7000180E746FADEC04F0200E7F6F02EC04F0CF
:101D8000020E726F196AF2BE198EF29EFA0E896FF8
:101D9000A4EC01F019BEF28E722FF4D7958A83BAA3
:101DA00030D0010E232623500A0802E20A0E236EC9
:101DB000080E806F6BC081F0E2EC03F0D60EF66E79
:101DC000050EF76E2CEC04F023500A0DF3CF73F0E0
:101DD000180E746FADEC04F0200E7F6F02EC04F06F
:101DE0002350090800E3020E726F196AF2BE198EC1
:101DF000F29EFA0E896FA4EC01F019BEF28E722FDA
:101E0000F4D7958683B63BD0080E806F010E816FA4
:101E1000E2EC03F0D80EF66E050EF76E2CEC04F033
:101E200021500A0DF3CF73F0180E746FADEC04F06F
:101E3000080E806F020E816FE2EC03F0DA0EF66E90
:101E4000050EF76E2CEC04F023500A0DF3CF73F05F
:101E5000180E746FADEC04F06B076B5302E1020EC9
:101E60006B6F020E726F196AF2BE198EF29EFA0E35
:101E7000896FA4EC01F019BEF28E722FF4D7958809
:101E800083B83CD0080E806F010E816FE2EC03F046
:101E9000DC0EF66E050EF76E2CEC04F021500A0DE8
:101EA000F3CF73F0180E746FADEC04F0080E806F72
:101EB000020E816FE2EC03F0DE0EF66E050EF76E99
:101EC0002CEC04F023500A0DF3CF73F0180E746F4E
:101ED000ADEC04F06B2B6B51020802E2010E6B6F4C
:101EE000020E726F196AF2BE198EF29EFA0E896F97
:101EF000A4EC01F019BEF28E722FF4D7958E83BE3A
:101F00000FD0020E726F196AF2BE198EF29EFA0E8F
:101F1000896FA4EC01F019BEF28E722FF4D701D0B4
:101F20009BD52F6A2F525EE002EC05F02FEC05F0F6
:101F30006EEC05F02A50630804E1060E736FB6ECF0
:101F400006F02A50670802E1BEEC07F02A50640848
:101F500049E1780E9EA8FED7AD6E196AF2BE198EC1
:101F6000F29E320E896FA4EC01F019BEF28E196A4E
:101F7000F2BE198EF29E320E896FA4EC01F019BEEA
:101F8000F28E196AF2BE198EF29E320E896FA4EC9F
:101F900001F019BEF28E275200E0265200E0196AC5
:101FA000F2BE198EF29E320E896FA4EC01F019BEBA
:101FB000F28E355200E0196AF2BE198EF29E320E90
:101FC000896FA4EC01F019BEF28E3CC07AF03BC0E0
:101FD00079F07C6B0A0E7B6FDCEC05F001C06DF0D4
:101FE000300E2A6E958283B24AD0020E726F196A41
:101FF000F2BE198EF29EFA0E896FA4EC01F019BEA2
:10200000F28E722FF4D7285234E0286A010E266E21
:10201000276A0D0E806F010E816FE2EC03F0E00E77
:10202000F66E050EF76E2CEC04F0010E456EEAEC30
:1020300008F0475203E1010E476E1AD0A0EC06F0FB
:102040009588000E83A8010E726F958A000E83AAF0
:10205000010E72139586000E83A6010E721375ECA5
:1020600006F07251011003E0D2EC05F001D0DFD789
:1020700005D0010E286E266A276E01D0B3D7010E57
:10208000456E466A958C000E83AC010E2714726F64
:102090002A506C0802E0000E01D0010E736F2B5025
:1020A000300802E0000E01D0010E731572111DE020
:1020B0009D8A75EC06F001C072F0958A000E83AA25
:1020C000010E011004E0D2EC05F09D900ED02FEF30
:1020D00009F0475203E1010E476E07D021C022F0FC
:1020E000A0EC06F0010E306ECDD7958A000E83AAC3
:1020F000010E2714726F2A50720802E0000E01D000
:10210000010E736F2B50300802E0000E01D0010E5B
:10211000731572111DE09D8AADEC05F001C072F0DF
:10212000958C000E83AC010E011004E0D2EC05F09A
:102130009D900ED06BEF09F0475203E1010E476E00
:1021400007D021C022F070EC06F0010E316ECDD721
:10215000315228E06E6B0A0ED88023546E5D1EE269
:102160009D8A6F6B24506F5D15E29D8A958C000EE1
:1021700083AC010E726FADEC05F07251011004E0FA
:10218000D2EC05F09D9006D025C022F070EC06F050
:102190006F2BE8D7010E255E6E2BDDD7316AD2ECAE
:1021A00005F0D6D7305228E0706B0A0ED880235441
:1021B000705D1EE29D8A716B2450715D15E29D8AEF
:1021C000958A000E83AA010E726F75EC06F07251AB
:1021D000011004E0D2EC05F09D9006D025C022F05D
:1021E000A0EC06F0712BE8D7010E255E702BDDD731
:1021F000306AD2EC05F0D6D7D2EC05F0958C000E03
:1022000083AC010E2614726F2A506C0802E0000E97
:1022100001D0010E736F2B50310802E0000E01D087
:10222000010E7315721146E0020E726F196AF2BE4A
:10223000198EF29EFA0E896FA4EC01F019BEF28E8F
:10224000722FF4D7010E456E6C0E2A6E310E2B6E76
:102250009D8AEAEC08F0475203E1010E476E2AD04E
:10226000A0EC06F09588000E83A8010E726F958A87
:10227000000E83AA010E72139586000E83A6010E2E
:10228000721375EC06F0015072132A506C0802E1CB
:10229000000E01D0010E72132B50310802E1000E26
:1022A00001D0010E721105E0D2EC05F0300E2A6E5D
:1022B00001D0CED7958A000E83AA010E2614726F24
:1022C0002A50720802E0000E01D0010E736F2B50ED
:1022D000310802E0000E01D0010E7315721146E0C4
:1022E000020E726F196AF2BE198EF29EFA0E896F93
:1022F000A4EC01F019BEF28E722FF4D7010E456ED8
:10230000720E2A6E310E2B6E9D8AA7EF09F047528E
:1023100003E1010E476E2AD070EC06F09588000E9E
:1023200083A8010E726F958C000E83AC010E7213A0
:102330009586000E83A6010E7213ADEC05F00150D8
:1023400072132A50720802E1000E01D0010E7213BE
:102350002B50310802E1000E01D0010E721105E090
:10236000D2EC05F0300E2A6E01D0CED7958483B41E
:1023700012D0020E726F196AF2BE198EF29EFA0E18
:10238000896FA4EC01F019BEF28E722FF4D7060EFD
:10239000736FB6EC06F0958683B612D0020E726F9C
:1023A000196AF2BE198EF29EFA0E896FA4EC01F042
:1023B00019BEF28E722FF4D7670E2A6EBEEC07F0AC
:0623C000C2EF0CF0030067
:020000040030CA
:0E00000000E81E3C00BF81000FC00FE00F4063
:00000001FF
;PIC18F46K22
;CRC=71AE  CREATED="05-Eki-22 21:13"
